S01100004C6162342D50726F6A2E7372656308
S11300000C942E000C9447050C94B3050C941F0615
S11300100C948B060C94F7060C944B000C94320D44
S11300200C944B000C94DF0C0C9463070C94CF07D6
S11300300C943B080C94A7080C9413090C947F09A6
S11300400C94EB090C94570A0C94C30A0C942F0BD0
S11300500C949B0B0C94070C0C94730C11241FBE72
S1130060CFEFD4E0DEBFCDBF11E0A0E0B1E0ECE81B
S1130070F2E202C005900D92A833B107D9F724E04B
S1130080A8E3B1E001C01D92AB38B207E1F70E94CA
S1130090C6020C9444110C940000CF92DF92EF92AC
S11300A0FF920F931F93FC0104811581C12CD12C65
S11300B08FECE82E80E0F82E20E030E0A9016AE120
S11300C076E080E090E00E94220E1F910F91FF9055
S11300D0EF90DF90CF900895CF92DF92EF92FF924E
S11300E00F931F93FC0104811581C12CD12C84EF43
S11300F0E82E80E0F82E20E030E0A90160E070E016
S1130100CB010E94220E1F910F91FF90EF90DF9080
S1130110CF900895CF92DF92EF92FF920F931F93A7
S1130120CF93DF93EC011F9B0EC01E9B2DC01F823B
S113013080E090E0DF91CF911F910F91FF90EF90BD
S1130140DF90CF90089581E08F830C811D81C12CB5
S1130150D12C21E7E22E21E0F22E20E030E0A901AB
S113016060E070E0CB010E94220E8AE8E82E80E075
S1130170F82E8E0120E030E0A90164E87EE180E001
S113018090E00E94220ED4CF81E08F830C811D81E8
S1130190C12CD12C9AE4E92E91E0F92EDECFCF9236
S11301A0DF92EF92FF920F931F93639B0BC0649BAC
S11301B009C080E090E01F910F91FF90EF90DF90D5
S11301C0CF900895FC0104811581C12CD12C88E9BC
S11301D0E82E81E0F82E20E030E0A90160E070E034
S11301E0CB010E94220EE5CFCF92DF92EF92FF92D5
S11301F00F931F93CF93DF93FC01278121111BC021
S1130200EC011F990FC0C12CD12C2AE8E22E20E06A
S1130210F22E8C0120E030E0A90160E070E0CB0117
S11302200E94220E1E9B12C01C9905C08E81811152
S11302301FC081E08E8380E090E0DF91CF911F9119
S11302400F91FF90EF90DF90CF900895C12CD12CA7
S11302509AE8E92E90E0F92E8E0120E030E0A90121
S113026060E070E0CB010E94220E1C9BDFCFE3CF45
S11302701E820C811D81C12CD12C85EAE82E81E0DF
S1130280F82E20E030E0A90160E070E0CB010E948C
S1130290220ED1CFCF92DF92EF92FF920F931F9352
S11302A0FC01248121111AC0FC0107811085C12C95
S11302B0D12C89EDE82E83E0F82E20E030E0A9016E
S11302C060E070E0CB010E94220E80E090E01F917C
S11302D00F91FF90EF90DF90CF90089505811681E4
S11302E0E6CFCF92DF92EF92FF920F931F93FC0120
S11302F0248121111AC0FC0107811085C12CD12C45
S11303008AE0E82E84E0F82E20E030E0A90160E0E5
S113031070E0CB010E94220E80E090E01F910F91CB
S1130320FF90EF90DF90CF90089505811681E6CF7E
S1130330FC01248191E029272483E9EFF0E0808106
S11303409827908380E090E00895CF92DF92EF9217
S1130350FF920F931F93FC01248121111AC0FC0109
S113036007811085C12CD12C89E3E82E84E0F82E76
S113037020E030E0A90160E070E0CB010E94220E91
S113038080E090E01F910F91FF90EF90DF90CF906D
S1130390089505811681E6CFAF92BF92CF92DF9286
S11303A0EF92FF920F931F93CF93DF93EC015B01C6
S11303B00D811E81C12CD12C8DE6E82E83E0F82E10
S11303C020E030E0A90160E070E0CB010E94220E41
S11303D00F81188520E030E0A90160E070E0CB01D6
S11303E00E94220EC501DF91CF911F910F91FF90C2
S11303F0EF90DF90CF90BF90AF90089587EB8093FC
S1130400E50087E08093E6008EE28093E70080E8D1
S11304108093E400E9EFF0E0908181E08927808314
S11304208DB180678DB9759A85B1806D85B98EB1AE
S11304308C608EB98DB3806C8DBBECE6F0E080816E
S1130440806D8083EBE6F0E080818C60808308958A
S1130450FB01E85FFE4FE081F0E0E451FF4FA82F7D
S1130460B0E0D0976170707877FD4CC080816130C6
S11304707105D9F1807F80838581807F8583828522
S1130480807F82878785807F878790E02081AA0F7D
S1130490BB1FAA0FBB1FA05FBE4F8C91092E01C0CA
S11304A0880F0A94EAF7822B8083258111968C9118
S11304B01197092E01C0880F0A94EAF7822B8583CD
S11304C0228512968C911297092E01C0880F0A94E6
S11304D0EAF7822B8287278513968C9101C0880FB7
S11304E09A95EAF7822B878708958F708083858198
S11304F08F70858382858F70828787858F708787C9
S113050094E0C4CF615071096E6F7F6F6F5F7F4F4E
S1130510ADCF0F931F93CF93DF93862F881F882728
S1130520881F7370770F782B072F10E06F77C62F13
S1130530D0E0763070F4CE0164E670E00E94C5101D
S11305406AE070E00E94C510862FB801805D0E94A9
S1130550280298012F5F3F4F263031053CF080E0A0
S113056090E0DF91CF911F910F910895CE016AE041
S113057070E00E94C510B901805D0E94280280E0ED
S113058090E0DF91CF911F910F9108950F931F93E6
S1130590CF93DF93CDB7DEB7C054D1090FB6F8942B
S11305A0DEBF0FBECDBF0E94FE011EAE1DAE219662
S11305B01FAE1EAE21971AAE19AE1CAE1BAE1A8A20
S11305C0198A1C8A1B8A1E8A1D8A188E1F8A81E03A
S11305D090E09A8F898F9C8F8B8F9E01235C3F4F75
S11305E03E8F2D8FCE01C99698A38F8F1A821982C0
S11305F01C821B821E821D8218861F8244E050E0EA
S11306005A87498743E050E05C874B873E872D87B4
S1130610988B8F871AA219A21CA21BA21DA28897CD
S11306209FA38EA3409799A788A7FE01BA9688E056
S1130630DF011D928A95E9F78E010F5D1F4F1FA7F9
S11306400EA71BAA1AAA1DAA1CAAFFABEEAB18AED2
S113065041E06DE470E0CE01C2960E948F1042E04A
S11306606CE670E0CE01C2960E948F1040E050E02C
S11306706CEC71E0C8010E94A910C05CDF4F0FB69A
S1130680F894DEBF0FBECDBFDF91CF911F910F91C4
S113069008956130710569F06330710519F080E0E7
S11306A090E008959EB180E489278EB980E090E0BF
S11306B008959EB180E189278EB980E090E0089585
S11306C06130710531F06330710519F080E090E01C
S11306D008951EB880E090E00895CF92DF92EF92E3
S11306E0FF920F931F93CF93DF93EC018C819D8135
S11306F0CA84DB8418161906D4F50C851D8549E4D3
S1130700E42E43E0F42E20E030E0A90160E070E044
S1130710CB010E94220E6C817D8184EF91E00E94C6
S1130720C5102DE730E0DB010E94D91097FD3CC0D5
S11307309595879577956795959587957795679519
S1130740C12CD12C3DE6E32E33E0F32E8E0120E0C4
S113075030E0A9010E94220E80E090E0DF91CF9169
S11307601F910F91FF90EF90DF90CF90089580E656
S1130770E82E83E0F82E8E0120E030E0A90160E04D
S113078070E0CB010E94220EC12CD12C9DE6E92EF3
S113079093E0F92E20E030E0A90169E07DE380E0F8
S11307A090E00E94220ED8CF6D5F7F4F8F4F9F4FF6
S11307B0BFCFCF92DF92EF92FF920F931F93FC0172
S11307C0C480D580F3E6CF16D104DCF4FC012FEF0E
S11307D0C21AD20AD582C482D084D0FAC7F88D2D29
S11307E086958370D82E0685178589E8E82E82E0E1
S11307F0F82E20E030E0A90160E070E0CB010E9417
S1130800220E80E090E01F910F91FF90EF90DF9017
S1130810CF900895CF92DF92EF92FF920F931F93A0
S1130820FC01C480D5801C141D042CF481E0C81A7A
S1130830D108D582C482D084D0FAC7F88D2D86958C
S11308408370D82E0685178589E8E82E82E0F82E75
S113085020E030E0A90160E070E0CB010E94220EAC
S113086080E090E01F910F91FF90EF90DF90CF9088
S11308700895CF92DF92EF92FF920F931F93FC01A2
S113088084819581009739F1978386831582148238
S113089090E0D0848D2D879588278795C92EC82A06
S11308A08D2D86958370D82E0685178589E8E82EC8
S11308B082E0F82E20E030E0A90160E070E0CB0196
S11308C00E94220E80E090E01F910F91FF90EF9024
S11308D0DF90CF90089596818781948385839F7755
S11308E0D8CFCF93DF9300D000D0CDB7DEB78BE263
S11308F092E02BE033E0FC01709791838083409673
S113090082179307C1F71092FC021092FB02E6E6ED
S1130910F1E083E891E09183808380EA91E0968F0F
S1130920858FADEBB1E0B3AFA2AF1D921C92FA83F9
S1130930E983E7E6F3E0FC83EB8389819A810696F9
S11309400E9403118B819C81E981FA81978B868BAC
S1130950918F808F84E190E1948F838F158214822C
S11309607D96FA83E983EB81FC81E05AFF4FFC8397
S1130970EB8389819A818A5D9140F9F6EEEFF1E08B
S1130980118210821582148213821282E1E6F0E051
S113099080E880831082109285001092840084E0A5
S11309A08093810081E080936F000F900F900F90EF
S11309B00F90DF91CF910895CF93DF9300D0CDB7FF
S11309C0DEB79A8389838091000190910101069694
S11309D00E940311892B29F00F900F90DF91CF9182
S11309E0089589819A81909301018093000161E0C7
S11309F070E006960E9423110F931F93CF93DF9309
S1130A00E0914001F09141013097F1F080910401AF
S1130A10909105010097C1F0C0910201D0910301AA
S1130A20AA81BB811097A9F04681578160857185A1
S1130A3016960D911D912D913C911997401B510BC8
S1130A40620B730B77FD05C0DF91CF911F910F915E
S1130A500895FC0120813181309305012093040124
S1130A60D183C0839093030180930201DF91CF91DE
S1130A701F910F910C94DC048FEF8093EC00809312
S1130A80ED008093EE0081E083BF8895FDCF1F9237
S1130A900F920FB60F9211242F933F934F935F93AE
S1130AA06F937F938F939F93AF93BF93EF93FF9332
S1130AB02091380130913901409184005091850092
S1130AC0C901032E000CAA0BBB0BDC019927882754
S1130AD060E070E0842B952BA62BB72B80933A0112
S1130AE090933B01A0933C01B0933D01B09B1BC08C
S1130AF04091840050918500C9010196092E000C93
S1130B00AA0BBB0BDC019927882760E070E0842BDB
S1130B10952BA62BB72B80933A0190933B01A0937E
S1130B203C01B0933D01E091DA01F091DB01309793
S1130B3039F060E070E080914201909143010995A1
S1130B400E94FC04FF91EF91BF91AF919F918F910F
S1130B507F916F915F914F913F912F910F900FBEB5
S1130B600F901F9018951F920F920FB60F92112499
S1130B702F933F934F935F936F937F938F939F93A1
S1130B80AF93BF93EF93FF932091380130913901D4
S1130B904091840050918500C901032E000CAA0BDA
S1130BA0BB0BDC019927882760E070E0842B952B30
S1130BB0A62BB72B80933A0190933B01A0933C0161
S1130BC0B0933D01B09B1BC04091840050918500BF
S1130BD0C9010196092E000CAA0BBB0BDC01992755
S1130BE0882760E070E0842B952BA62BB72B80938D
S1130BF03A0190933B01A0933C01B0933D01E091F5
S1130C00DC01F091DD01309739F061E070E0809112
S1130C1044019091450109950E94FC04FF91EF91D4
S1130C20BF91AF919F918F917F916F915F914F9100
S1130C303F912F910F900FBE0F901F9018951F9208
S1130C400F920FB60F9211242F933F934F935F93FC
S1130C506F937F938F939F93AF93BF93EF93FF9380
S1130C6020913801309139014091840050918500E0
S1130C70C901032E000CAA0BBB0BDC0199278827A2
S1130C8060E070E0842B952BA62BB72B80933A0160
S1130C9090933B01A0933C01B0933D01B09B1BC0DA
S1130CA04091840050918500C9010196092E000CE1
S1130CB0AA0BBB0BDC019927882760E070E0842B2A
S1130CC0952BA62BB72B80933A0190933B01A093CD
S1130CD03C01B0933D01E091DE01F091DF013097DA
S1130CE039F062E070E080914601909147010995E6
S1130CF00E94FC04FF91EF91BF91AF919F918F915E
S1130D007F916F915F914F913F912F910F900FBE03
S1130D100F901F9018951F920F920FB60F921124E7
S1130D202F933F934F935F936F937F938F939F93EF
S1130D30AF93BF93EF93FF93209138013091390122
S1130D404091840050918500C901032E000CAA0B28
S1130D50BB0BDC019927882760E070E0842B952B7E
S1130D60A62BB72B80933A0190933B01A0933C01AF
S1130D70B0933D01B09B1BC040918400509185000D
S1130D80C9010196092E000CAA0BBB0BDC019927A3
S1130D90882760E070E0842B952BA62BB72B8093DB
S1130DA03A0190933B01A0933C01B0933D01E09143
S1130DB0E001F091E101309739F063E070E0809157
S1130DC048019091490109950E94FC04FF91EF911B
S1130DD0BF91AF919F918F917F916F915F914F914F
S1130DE03F912F910F900FBE0F901F9018951F9257
S1130DF00F920FB60F9211242F933F934F935F934B
S1130E006F937F938F939F93AF93BF93EF93FF93CE
S1130E10209138013091390140918400509185002E
S1130E20C901032E000CAA0BBB0BDC0199278827F0
S1130E3060E070E0842B952BA62BB72B80933A01AE
S1130E4090933B01A0933C01B0933D01B09B1BC028
S1130E504091840050918500C9010196092E000C2F
S1130E60AA0BBB0BDC019927882760E070E0842B78
S1130E70952BA62BB72B80933A0190933B01A0931B
S1130E803C01B0933D01E091E201F091E301309720
S1130E9039F064E070E080914A0190914B0109952A
S1130EA00E94FC04FF91EF91BF91AF919F918F91AC
S1130EB07F916F915F914F913F912F910F900FBE52
S1130EC00F901F9018951F920F920FB60F92112436
S1130ED02F933F934F935F936F937F938F939F933E
S1130EE0AF93BF93EF93FF93209138013091390171
S1130EF04091840050918500C901032E000CAA0B77
S1130F00BB0BDC019927882760E070E0842B952BCC
S1130F10A62BB72B80933A0190933B01A0933C01FD
S1130F20B0933D01B09B1BC040918400509185005B
S1130F30C9010196092E000CAA0BBB0BDC019927F1
S1130F40882760E070E0842B952BA62BB72B809329
S1130F503A0190933B01A0933C01B0933D01E09191
S1130F60E401F091E501309739F065E070E080919B
S1130F704C0190914D0109950E94FC04FF91EF9161
S1130F80BF91AF919F918F917F916F915F914F919D
S1130F903F912F910F900FBE0F901F9018951F92A5
S1130FA00F920FB60F9211242F933F934F935F9399
S1130FB06F937F938F939F93AF93BF93EF93FF931D
S1130FC0209138013091390140918400509185007D
S1130FD0C901032E000CAA0BBB0BDC01992788273F
S1130FE060E070E0842B952BA62BB72B80933A01FD
S1130FF090933B01A0933C01B0933D01B09B1BC077
S11310004091840050918500C9010196092E000C7D
S1131010AA0BBB0BDC019927882760E070E0842BC6
S1131020952BA62BB72B80933A0190933B01A09369
S11310303C01B0933D01E091E601F091E701309766
S113104039F066E070E080914E0190914F0109956E
S11310500E94FC04FF91EF91BF91AF919F918F91FA
S11310607F916F915F914F913F912F910F900FBEA0
S11310700F901F9018951F920F920FB60F92112484
S11310802F933F934F935F936F937F938F939F938C
S1131090AF93BF93EF93FF932091380130913901BF
S11310A04091840050918500C901032E000CAA0BC5
S11310B0BB0BDC019927882760E070E0842B952B1B
S11310C0A62BB72B80933A0190933B01A0933C014C
S11310D0B0933D01B09B1BC04091840050918500AA
S11310E0C9010196092E000CAA0BBB0BDC01992740
S11310F0882760E070E0842B952BA62BB72B809378
S11311003A0190933B01A0933C01B0933D01E091DF
S1131110E801F091E901309739F067E070E08091DF
S113112050019091510109950E94FC04FF91EF91A7
S1131130BF91AF919F918F917F916F915F914F91EB
S11311403F912F910F900FBE0F901F9018951F92F3
S11311500F920FB60F9211242F933F934F935F93E7
S11311606F937F938F939F93AF93BF93EF93FF936B
S113117020913801309139014091840050918500CB
S1131180C901032E000CAA0BBB0BDC01992788278D
S113119060E070E0842B952BA62BB72B80933A014B
S11311A090933B01A0933C01B0933D01B09B1BC0C5
S11311B04091840050918500C9010196092E000CCC
S11311C0AA0BBB0BDC019927882760E070E0842B15
S11311D0952BA62BB72B80933A0190933B01A093B8
S11311E03C01B0933D01E091EA01F091EB013097AD
S11311F039F068E070E080915201909153010995B3
S11312000E94FC04FF91EF91BF91AF919F918F9148
S11312107F916F915F914F913F912F910F900FBEEE
S11312200F901F9018951F920F920FB60F921124D2
S11312302F933F934F935F936F937F938F939F93DA
S1131240AF93BF93EF93FF9320913801309139010D
S11312504091840050918500C901032E000CAA0B13
S1131260BB0BDC019927882760E070E0842B952B69
S1131270A62BB72B80933A0190933B01A0933C019A
S1131280B0933D01B09B1BC04091840050918500F8
S1131290C9010196092E000CAA0BBB0BDC0199278E
S11312A0882760E070E0842B952BA62BB72B8093C6
S11312B03A0190933B01A0933C01B0933D01E0912E
S11312C0EC01F091ED01309739F069E070E0809124
S11312D054019091550109950E94FC04FF91EF91EE
S11312E0BF91AF919F918F917F916F915F914F913A
S11312F03F912F910F900FBE0F901F9018951F9242
S11313000F920FB60F9211242F933F934F935F9335
S11313106F937F938F939F93AF93BF93EF93FF93B9
S11313202091380130913901409184005091850019
S1131330C901032E000CAA0BBB0BDC0199278827DB
S113134060E070E0842B952BA62BB72B80933A0199
S113135090933B01A0933C01B0933D01B09B1BC013
S11313604091840050918500C9010196092E000C1A
S1131370AA0BBB0BDC019927882760E070E0842B63
S1131380952BA62BB72B80933A0190933B01A09306
S11313903C01B0933D01E091EE01F091EF013097F3
S11313A039F06AE070E080915601909157010995F7
S11313B00E94FC04FF91EF91BF91AF919F918F9197
S11313C07F916F915F914F913F912F910F900FBE3D
S11313D00F901F9018951F920F920FB60F92112421
S11313E02F933F934F935F936F937F938F939F9329
S11313F0AF93BF93EF93FF9320913801309139015C
S11314004091840050918500C901032E000CAA0B61
S1131410BB0BDC019927882760E070E0842B952BB7
S1131420A62BB72B80933A0190933B01A0933C01E8
S1131430B0933D01B09B1BC0409184005091850046
S1131440C9010196092E000CAA0BBB0BDC019927DC
S1131450882760E070E0842B952BA62BB72B809314
S11314603A0190933B01A0933C01B0933D01E0917C
S1131470F001F091F101309739F06BE070E0809168
S113148058019091590109950E94FC04FF91EF9134
S1131490BF91AF919F918F917F916F915F914F9188
S11314A03F912F910F900FBE0F901F9018951F9290
S11314B00F920FB60F9211242F933F934F935F9384
S11314C06F937F938F939F93AF93BF93EF93FF9308
S11314D02091380130913901409184005091850068
S11314E0C901032E000CAA0BBB0BDC01992788272A
S11314F060E070E0842B952BA62BB72B80933A01E8
S113150090933B01A0933C01B0933D01B09B1BC061
S11315104091840050918500C9010196092E000C68
S1131520AA0BBB0BDC019927882760E070E0842BB1
S1131530952BA62BB72B80933A0190933B01A09354
S11315403C01B0933D01E091F201F091F301309739
S113155039F06CE070E080915A0190915B0109953B
S11315600E94FC04FF91EF91BF91AF919F918F91E5
S11315707F916F915F914F913F912F910F900FBE8B
S11315800F901F9018951F920F920FB60F9211246F
S11315902F933F934F935F936F937F938F939F9377
S11315A0AF93BF93EF93FF932091380130913901AA
S11315B04091840050918500C901032E000CAA0BB0
S11315C0BB0BDC019927882760E070E0842B952B06
S11315D0A62BB72B80933A0190933B01A0933C0137
S11315E0B0933D01B09B1BC0409184005091850095
S11315F0C9010196092E000CAA0BBB0BDC0199272B
S1131600882760E070E0842B952BA62BB72B809362
S11316103A0190933B01A0933C01B0933D01E091CA
S1131620F401F091F501309739F06DE070E08091AC
S11316305C0190915D0109950E94FC04FF91EF917A
S1131640BF91AF919F918F917F916F915F914F91D6
S11316503F912F910F900FBE0F901F9018951F92DE
S11316600F920FB60F9211242F933F934F935F93D2
S11316706F937F938F939F93AF93BF93EF93FF9356
S113168020913801309139014091840050918500B6
S1131690C901032E000CAA0BBB0BDC019927882778
S11316A060E070E0842B952BA62BB72B80933A0136
S11316B090933B01A0933C01B0933D01B09B1BC0B0
S11316C04091840050918500C9010196092E000CB7
S11316D0AA0BBB0BDC019927882760E070E0842B00
S11316E0952BA62BB72B80933A0190933B01A093A3
S11316F03C01B0933D01E091F601F091F701309780
S113170039F06EE070E080915E0190915F0109957F
S11317100E94FC04FF91EF91BF91AF919F918F9133
S11317207F916F915F914F913F912F910F900FBED9
S11317300F901F9018951F920F920FB60F921124BD
S11317402F933F934F935F936F937F938F939F93C5
S1131750AF93BF93EF93FF932091380130913901F8
S11317604091840050918500C901032E000CAA0BFE
S1131770BB0BDC019927882760E070E0842B952B54
S1131780A62BB72B80933A0190933B01A0933C0185
S1131790B0933D01B09B1BC04091840050918500E3
S11317A0C9010196092E000CAA0BBB0BDC01992779
S11317B0882760E070E0842B952BA62BB72B8093B1
S11317C03A0190933B01A0933C01B0933D01E09119
S11317D0F801F091F901309739F06FE070E08091F1
S11317E060019091610109950E94FC04FF91EF91C1
S11317F0BF91AF919F918F917F916F915F914F9125
S11318003F912F910F900FBE0F901F9018951F922C
S11318100F920FB60F9211242F933F934F935F9320
S11318206F937F938F939F93AF93BF93EF93FF93A4
S11318302091380130913901409184005091850004
S1131840C901032E000CAA0BBB0BDC0199278827C6
S113185060E070E0842B952BA62BB72B80933A0184
S113186090933B01A0933C01B0933D01B09B1BC0FE
S11318704091840050918500C9010196092E000C05
S1131880AA0BBB0BDC019927882760E070E0842B4E
S1131890952BA62BB72B80933A0190933B01A093F1
S11318A03C01B0933D01E091FA01F091FB013097C6
S11318B039F060E170E080916201909163010995D3
S11318C00E94FC04FF91EF91BF91AF919F918F9182
S11318D07F916F915F914F913F912F910F900FBE28
S11318E00F901F9018951F920F920FB60F9211240C
S11318F02F933F934F935F936F937F938F939F9314
S1131900AF93BF93EF93FF93209138013091390146
S11319104091840050918500C901032E000CAA0B4C
S1131920BB0BDC019927882760E070E0842B952BA2
S1131930A62BB72B80933A0190933B01A0933C01D3
S1131940B0933D01B09B1BC0409184005091850031
S1131950C9010196092E000CAA0BBB0BDC019927C7
S1131960882760E070E0842B952BA62BB72B8093FF
S11319703A0190933B01A0933C01B0933D01E09167
S1131980FC01F091FD01309739F061E170E0809144
S113199064019091650109950E94FC04FF91EF9107
S11319A0BF91AF919F918F917F916F915F914F9173
S11319B03F912F910F900FBE0F901F9018951F927B
S11319C00F920FB60F9211242F933F934F935F936F
S11319D06F937F938F939F93EF93FF93809138013D
S11319E09091390101969093390180933801E091E7
S11319F03E01F0913F01309739F042815381648177
S1131A00758186179707A1F080916F008D7F809371
S1131A106F00FF91EF919F918F917F916F915F91F3
S1131A204F913F912F910F900FBE0F901F901895DB
S1131A30CA012091840030918500421B530B413030
S1131A40510551F0909389008093880080916F0034
S1131A50826080936F00DDCF809184009091850037
S1131A600196F0CF1F920F920FB60F9211248F920E
S1131A709F92AF92BF92CF92DF92EF92FF920F9319
S1131A801F932F933F934F935F936F937F938F9302
S1131A909F93AF93BF93CF93DF93EF93FF93E09024
S1131AA03801F09039018091840090918500B099BB
S1131AB098C047010F2C000CAA08BB0854019924B4
S1131AC08824A0E0B0E0882A992AAA2ABB2AC091D7
S1131AD03E01D0913F0180914001909141012097B6
S1131AE009F43FC04A815B816C817D818A019B013D
S1131AF0081919092A093B091016110612061306BA
S1131B000CF440C0D880C9800097B9F10E811F81C0
S1131B1028853985FC0146815781608571850417C4
S1131B201507260737074CF1DC010AC046815781A7
S1131B30608571850417150726073707DCF0DF0178
S1131B40ED91FC911197309789F719821882CD9302
S1131B50DC93382F292FCD2DDC2D832F922F209726
S1131B6009F610923F0110923E0190934101809337
S1131B70400113C0F983E883EACF998388833C2F1B
S1131B802D2FE9CFD0933F01C0933E0190934101A3
S1131B9080934001E616F706D9F180916F008D7F9E
S1131BA080936F000E94FC04FF91EF91DF91CF912D
S1131BB0BF91AF919F918F917F916F915F914F9161
S1131BC03F912F911F910F91FF90EF90DF90CF9055
S1131BD0BF90AF909F908F900F900FBE0F901F906B
S1131BE01895209184003091850047018FEF881A61
S1131BF0980A092C000CAA08BB08D4019927882745
S1131C004901A12CB12C882A992AAA2ABB2A5FCF80
S1131C10CA012091840030918500421B530B41304E
S1131C20510551F0909389008093880080916F0052
S1131C30826080936F00B6CF80918400909185007C
S1131C400196F0CF3F924F925F926F927F928F9264
S1131C509F92AF92BF92CF92DF92EF92FF920F9337
S1131C601F93CF93DF93EFB7E0783E2EF894C091A3
S1131C700601D0910701209709F452C1E881F98146
S1131C80F0930701E09306011B870A87FD86EC8623
S1131C90DF86CE86332009F46FC0E0910001F09115
S1131CA001010280F381E02DC280D380E480F580BD
S1131CB0C60ED71EE81EF91ECA82DB82EC82FD82A4
S1131CC012161306140615060CF0F8C0DA01C90141
S1131CD08C019D010C0D1D1D2E1D3F1D0E831F83A8
S1131CE02887398780913801909139016091840067
S1131CF070918500B09949C02C01092E000C66082A
S1131D0077085201992488242B01612C712C4828CE
S1131D1059286A287B28B701A60144195509660980
S1131D20770914161506160617060CF068C0A0915C
S1131D303E01B0913F01109709F4DCC012960D9159
S1131D401D912D913C911597C016D106E206F3061C
S1131D505CF4D0C04281538164817581C416D50678
S1131D60E606F7064CF1DF01ED91FC9111973097EF
S1131D7089F71982188222C0C0903A01D0903B01A1
S1131D80E0903C01F0903D0193CFE0918400F0910C
S1131D9085002C014FEF441A540A052C000C6608E8
S1131DA07708B201552744272F01612C712C442A4E
S1131DB0552A662A772AAFCFF983E883CD93DC933B
S1131DC08217930709F47FC080916F008D7F809301
S1131DD06F00332009F07894CE01DF91CF911F91E9
S1131DE00F91FF90EF90DF90CF90BF90AF909F90B6
S1131DF08F907F906F905F904F903F900895A09147
S1131E004001B0914101109709F483C01696CD901A
S1131E10DD90ED90FC9019970C151D052E053F05DE
S1131E2064F477C0C680D780E084F1840C151D0566
S1131E302E053F050CF45BC0DF01ED91FC91119779
S1131E40309781F719821882CD93DC93332021F2E5
S1131E508091040190910501009709F4BCCFE091B1
S1131E600201F0910301209140013091410102816E
S1131E701381D90116964D915D916D917C911997BD
S1131E80D80116960D911D912D913C911997401BE7
S1131E90510B620B730B77FF9ECFDC012D913C91AC
S1131EA011973093050120930401ED93FC939093D3
S1131EB00301809302010E94DC048DCF8FEF9FEF1A
S1131EC0AFEFBFE705CFC801409184005091850072
S1131ED0041B150B01301105B1F090938900809318
S1131EE0880080916F00826080936F0072CFF983C5
S1131EF0E883AACFB983A883D0933F01C0933E015E
S1131F00970186015DCF80918400909185000196B0
S1131F10E4CFB983A883D0934101C093400196CF05
S1131F200E943C05CF92DF92EF92FF920F931F9392
S1131F30CF93DF93EC017B016A011FB71078F8940B
S1131F40A881B981109719F462C0A081B181149657
S1131F50ED91FC9115973097C1F7209100013091D4
S1131F6001012A173B0709F44CC01123A1F18A810E
S1131F709B81009719F0FC01158214823B832A830C
S1131F80F901D583C483CD010E94DC04E0910001F2
S1131F90F091010182819381892B09F441C0F98375
S1131FA0E8838A819B81019709F07894B601CE0178
S1131FB0F7010995F82E092F8FB7F8941982188222
S1131FC08A819B8182309105A0F4112379F0789461
S1131FD08F2D902F02C08FEF9FEFDF91CF911F9134
S1131FE00F91FF90EF90DF90CF9008958F2D902F59
S1131FF0F4CF1B821A82FC01158214820E94DC0435
S1132000E4CF112341F378948FEF9FEFE6CF8091D3
S113201000019091010199838883112339F2C1CF82
S1132020789480E090E0D9CFC0914001D0914101F3
S1132030E0910001F0910101209709F46EC08881BC
S113204099819093410180934001D383C283789412
S11320504E855F856C857D858A859B850E94920F60
S11320608FB7F89480910601909107019983888332
S1132070D0930701C0930601E0900201F0900301A0
S1132080F701A081B18112968D919C911397C09113
S11320904001D09141012097A9F0009749F24E8167
S11320A05F8168857985FC010681178120853185EA
S11320B0401B510B620B730B1416150616061706FC
S11320C00CF0B6CFB0930301A093020180910401F8
S11320D090910501F70191838083F0920501E092CC
S11320E004011496ED91FC911597309741F0A0816D
S11320F0B1811496ED91FC9115973097C1F7CD01FC
S11321000E94DC04C0914001D0914101E0910001A2
S1132110F0910101209709F092CF0E943C054231D1
S1132120B8F42FB7F89450E0440F551FFA01EE5B52
S1132130FE4F91838083FA01E652FE4F71836083E0
S113214041E050E0FC015383428327FF01C07894AF
S113215008958C017B016A018FB7F8940E94710481
S11321607894E114F10441F020E030E0A90160E04A
S113217070E0CB010E94220E8FB7F8940E94FC04F9
S1132180789481E083BF8895FDCF97FB072E16F4E2
S1132190009407D077FD09D00E94E01007FC05D019
S11321A03EF4909581959F4F0895709561957F4F6A
S11321B008950E94F410B7FF0895821B930B0895AD
S11321C0AA1BBB1B51E107C0AA1FBB1FA617B70759
S11321D010F0A61BB70B881F991F5A95A9F7809575
S11321E09095BC01CD010895A29FB001B39FC00199
S11321F0A39F700D811D1124911DB29F700D811D2F
S11322001124911D0895DC012D923D924D925D9211
S11322106D927D928D929D92AD92BD92CD92DD9202
S1132220ED92FD920D931D93CD93DD93FF91EF916C
S11322308DB78D938EB78D938FB78D93ED93FD935B
S1132240882799270994DC01CB0181309105811DF0
S11322502D903D904D905D906D907D908D909D90D2
S1132260AD90BD90CD90DD90ED90FD900D911D91C0
S1132270CD91DD91ED91FD910D90F894FEBF0FBECF
S10F2280EDBFED91FD910994F894FFCF9F
S113228CFE01FE0166011B020000010102020303B0
S113229C010505010008000201010E0101010B01F9
S11322AC00050B0001040B0100040F0101010900DE
S10B22BC01050F0101050B00EF
S9030000FC
