S01100004C6162342D50726F6A2E7372656308
S11300000C942E000C94D8070C9460080C94E80807
S11300100C9470090C94F8090C944B000C9457132D
S11300200C944B000C94C9120C94800A0C94080B89
S11300300C94900B0C94180C0C94A00C0C94280D9C
S11300400C94B00D0C94380E0C94C00E0C94480F04
S11300500C94D00F0C9458100C94E01011241FBE73
S1130060CFEFD4E0DEBFCDBF11E0A0E0B1E0E6ED1C
S1130070F3E302C005900D92A833B107D9F724E049
S1130080A8E3B1E001C01D92AB38B207E1F70E94CA
S1130090B8040C94E9190C940000CF92DF92EF920B
S11300A0FF920F931F93CF93DF9300D000D0CDB76F
S11300B0DEB79A8389837C836B8383E290E0FC01BF
S11300C08081882354F189819A81FC0184819581FE
S11300D0C12CD12C0F2EF1EEEF2EF1E0FF2EF02DDE
S11300E08C0120E030E0A90160E070E0CB010E94C7
S11300F0781589819A81C12CD12C0F2EFDE4EF2E25
S1130100F0E0FF2EF02D8C0120E030E0A90169E041
S11301107DE380E090E00E94781583E290E0FC01AA
S11301208081882F90E080749927892B51F58981EB
S11301309A81FC0184819581C12CD12C0F2EFFE87A
S1130140EF2EF1E0FF2EF02D8C0120E030E0A9012C
S113015060E070E0CB010E94781589819A81C12CFE
S1130160D12C0F2EFDE4EF2EF0E0FF2EF02D8C01AC
S113017020E030E0A90169E07DE380E090E00E94A6
S1130180781580E090E00F900F900F900F90DF9122
S1130190CF911F910F91FF90EF90DF90CF90089532
S11301A0CF92DF92EF92FF920F931F93CF93DF933F
S11301B000D000D0CDB7DEB79A8389837C836B836C
S11301C08CE290E0FC018081882F90E08270992776
S11301D0892B51F08CE290E0FC018081882F90E023
S11301E080749927892BB9F489819A81FC018481CF
S11301F09581C12CD12C0F2EF3E3EF2EF2E0FF2ECC
S1130200F02D8C0120E030E0A9016AE678E180E07D
S113021090E00E94781580E090E00F900F900F908E
S11302200F90DF91CF911F910F91FF90EF90DF908E
S1130230CF900895CF92DF92EF92FF920F931F9386
S1130240CF93DF9300D000D0CDB7DEB79A838983F4
S11302507C836B8383E290E0FC0180818823A4F09B
S113026089819A81C12CD12C0F2EFDE4EF2EF0E070
S1130270FF2EF02D8C0120E030E0A9016AE176E048
S113028080E090E00E94781583E290E0FC01808198
S1130290882F90E080749927892BA1F489819A8111
S11302A0C12CD12C0F2EFDE4EF2EF0E0FF2EF02D0B
S11302B08C0120E030E0A9016AE176E080E090E082
S11302C00E94781583E290E0FC018081882F90E001
S11302D080719927892BA1F489819A81C12CD12C11
S11302E00F2EF0E6EF2EF2E0FF2EF02D8C0120E031
S11302F030E0A9016AE176E080E090E00E947815A0
S113030080E090E00F900F900F900F90DF91CF91CD
S11303101F910F91FF90EF90DF90CF900895CF92AF
S1130320DF92EF92FF920F931F93CF93DF9300D04E
S113033000D0CDB7DEB79A8389837C836B838981B0
S11303409A81FC0184818823B9F089819A81FC0116
S113035085819681C12CD12C0F2EFEE8EF2EF5E07D
S1130360FF2EF02D8C0120E030E0A90160E070E068
S1130370CB010E94781516C089819A81FC0187817E
S11303809085C12CD12C0F2EFEE8EF2EF5E0FF2E28
S1130390F02D8C0120E030E0A90160E070E0CB0199
S11303A00E94781580E090E00F900F900F900F90CE
S11303B0DF91CF911F910F91FF90EF90DF90CF903D
S11303C00895CF92DF92EF92FF920F931F93CF93F2
S11303D0DF9300D000D0CDB7DEB79A8389837C83C6
S11303E06B8389819A81FC0184818823B9F0898196
S11303F09A81FC0185819681C12CD12C0F2EF8E1C4
S1130400EF2EF6E0FF2EF02D8C0120E030E0A90164
S113041060E070E0CB010E94781516C089819A8152
S1130420FC0187819085C12CD12C0F2EF8E1EF2E91
S1130430F6E0FF2EF02D8C0120E030E0A90160E011
S113044070E0CB010E94781580E090E00F900F904F
S11304500F900F90DF91CF911F910F91FF90EF902C
S1130460DF90CF900895CF93DF9300D000D0CDB725
S1130470DEB79A8389837C836B8389819A81FC01AB
S1130480948181E08927882F90E021E0892B09F469
S113049020E089819A81FC01248389EF90E029EF8F
S11304A030E0F901308121E02327FC01208380E042
S11304B090E00F900F900F900F90DF91CF910895DF
S11304C0CF92DF92EF92FF920F931F93CF93DF931C
S11304D000D000D0CDB7DEB79A8389837C836B8349
S11304E089819A81FC0184818823B9F089819A8168
S11304F0FC0185819681C12CD12C0F2EF5EAEF2EBB
S1130500F6E0FF2EF02D8C0120E030E0A90160E040
S113051070E0CB010E94781516C089819A81FC0194
S113052087819085C12CD12C0F2EF5EAEF2EF6E0B1
S1130530FF2EF02D8C0120E030E0A90160E070E096
S1130540CB010E94781580E090E00F900F900F90FF
S11305500F90DF91CF911F910F91FF90EF90DF905B
S1130560CF900895CF93DF93CDB7DEB781E690E0C7
S113057020E8FC01208381E690E0FC011082000069
S1130580DF91CF910895CF93DF93CDB7DEB785EE9A
S113059090E027EBFC01208386EE90E027E0FC014D
S11305A0208387EE90E02EE2FC01208384EE90E02D
S11305B020E8FC01208389EF90E029EF30E0F90185
S11305C0308121E02327FC0120830000DF91CF91BB
S11305D00895CF93DF93CDB7DEB784E290E020E8AF
S11305E0FC0120830000DF91CF910895CF93DF9326
S11305F0CDB7DEB785E290E025E230E0F901208155
S1130600206DFC0120838EE290E02EE230E0F901BF
S113061020812C60FC0120838DE390E02DE330E009
S1130620F9012081206CFC0120838CE690E02CE60B
S113063030E0F9012081286FFC0120838BE690E0F3
S11306402BE630E0F90120812C60FC0120830000BE
S1130650DF91CF910895CF93DF93CDB7DEB70E949A
S1130660B2020E94C3020E94E9020E94F602000044
S1130670DF91CF910895CF93DF93CDB7DEB729975C
S11306800FB6F894DEBF0FBECDBF8F83798768871E
S11306908885998599230CF409C1888599850697DD
S11306A00CF004C18F81803308F400C18F818A3338
S11306B008F0FCC088859985885D9E4FFC01808187
S11306C0882F90E084519F4F9C838B838F81882F48
S11306D090E0C0979E838D831A82198288859985BC
S11306E081709078992324F401978E6F9F6F0196FF
S11306F0019799F584E090E09A8389838B819C81AA
S1130700FC018081282F2F708B819C81FC01208328
S11307108B819C8105962B813C812B5F3F4FF90196
S113072020812F70FC0120838B819C810A962B8170
S11307303C81265F3F4FF90120812F70FC0120830B
S11307408B819C810F962B813C81215F3F4FF90166
S113075020812F70FC0120832EC08B819C81FC01A1
S11307608081282F207F8B819C81FC0120838B81B9
S11307709C8105962B813C812B5F3F4FF9012081A1
S1130780207FFC0120838B819C810A962B813C81F4
S1130790265F3F4FF9012081207FFC0120838B815C
S11307A09C810F962B813C81215F3F4FF901208171
S11307B0207FFC0120838D819E81880F991F880FE3
S11307C0991F80509F4FFC018081882F90E0098001
S11307D002C0880F991F0A94E2F7282F8B819C810D
S11307E0FC018081822B282F8B819C81FC0120833A
S11307F08B819C8105962D813E81220F331F220F10
S1130800331F2F5F3E4FF9012081222F30E00980F2
S113081002C0220F331F0A94E2F7422F2B813C813E
S11308202B5F3F4FF9012081242BFC0120838B8116
S11308309C810A962D813E81220F331F220F331F84
S11308402E5F3E4FF9012081222F30E0098002C043
S1130850220F331F0A94E2F7422F2B813C81265F3B
S11308603F4FF9012081242BFC0120838B819C8143
S11308700F962D813E81220F331F220F331F2D5FD0
S11308803E4FF9012081222F30E0098002C0220F5F
S1130890331F0A94E2F7422F2B813C81215F3F4FA3
S11308A0F9012081242BFC01208301C0000029963A
S11308B00FB6F894DEBF0FBECDBFDF91CF91089580
S11308C0CF93DF93CDB7DEB72A970FB6F894DEBF88
S11308D00FBECDBF98878F837A87698789859A856C
S11308E09E838D838D81881F8827881F9E819370A6
S11308F0990F892B882F90E09A8389838D818F7734
S1130900882F90E09C838B838B819C8124E630E04C
S1130910B9010E9466192AE030E0B9010E94661903
S1130920CB0120E3280F89819A81BC01822F0E9488
S11309303B0389819A8101969A8389838B819C8167
S11309402AE030E0B9010E94661920E3280F89816A
S11309509A81BC01822F0E943B0380E090E02A969A
S11309600FB6F894DEBF0FBECDBFDF91CF910895CF
S1130970CF93DF93CDB7DEB7E7970FB6F894DEBF1A
S11309800FBECDBF0E942B031A8219821C821B82C8
S11309901E821D8218861F821A8619861C861B8653
S11309A01E861D86188A1F8681E090E09A8B898BAB
S11309B081E090E09C8B8B8BCE0101969E8B8D8B7E
S11309C0CE010596988F8F8B1A8E198E1C8E1B8ED6
S11309D01E8E1D8E18A21F8E84E090E09AA389A318
S11309E083E090E09CA38BA3CE0101969EA38DA3EC
S11309F0CE01059698A78FA31AA619A61CA61BA616
S1130A001DA6CE0109969FA78EA7CE01499699AB44
S1130A1088AB1BAA1AAA1DAA1CAACE0189969FAB51
S1130A208EABCE01C29642E06AE171E00E94D41816
S1130A30CE01C29641E060ED70E00E94D41840E01F
S1130A4050E060E070E080E090E00E941719E796C3
S1130A500FB6F894DEBF0FBECDBFDF91CF910895DE
S1130A60CF93DF9300D000D0CDB7DEB79A838983CC
S1130A707C836B838B819C81019759F48EE290E097
S1130A802EE230E0F901308120E12327FC012083AC
S1130A900EC08B819C81039751F48EE290E02EE28C
S1130AA030E0F901308120E42327FC0120838EEF1C
S1130AB090E02EEF30E0F901308121E02327FC01A2
S1130AC0208380E090E00F900F900F900F90DF91C3
S1130AD0CF910895CF93DF9300D000D0CDB7DEB788
S1130AE09A8389837C836B838B819C81019729F40E
S1130AF08EE290E0FC01108208C08B819C810397F8
S1130B0021F48EE290E0FC01108280E090E00F90EE
S1130B100F900F900F90DF91CF910895CF92DF92B5
S1130B20EF92FF920F931F93CF93DF9300D000D0E7
S1130B3000D0CDB7DEB79C838B837E836D838B819E
S1130B409C81FC0184819581833691050CF045C01C
S1130B508B819C81FC01848195819C012F5F3F4F97
S1130B608B819C81FC01358324838B819C81FC01D6
S1130B70848195818F778F7799819078892B898368
S1130B808B819C81FC01808591858770982F917061
S1130B9097959927979529812F77922B99838695F5
S1130BA0837083709A819C7F892B8A8329813A81FF
S1130BB08B819C81FC018685978569010F2EF0E667
S1130BC0EF2EF4E0FF2EF02D8C0120E030E0A9019F
S1130BD060E070E0CB010E9478158B819C81FC0160
S1130BE084819581019799F48B819C81C12CD12CAE
S1130BF00F2EF1E5EF2EF7E0FF2EF02D8C0120E013
S1130C0030E0A90160E070E0CB010E94781580E03B
S1130C1090E026960FB6F894DEBF0FBECDBFDF91ED
S1130C20CF911F910F91FF90EF90DF90CF90089597
S1130C30CF92DF92EF92FF920F931F93CF93DF93A4
S1130C4000D000D000D0CDB7DEB79C838B837E83E9
S1130C506D838B819C81FC01848195811816190612
S1130C606CF48B819C81FC01848195819C012150D1
S1130C7031098B819C81FC01358324838B819C8188
S1130C80FC0184819581892BB9F48B819C81FC01C1
S1130C90228533858B819C8169010F2EFAE6EF2E24
S1130CA0F5E0FF2EF02D8C0120E030E0A90160E09A
S1130CB070E0CB010E9478158B819C81FC018481BA
S1130CC095818F778F7799819078892B89838B8110
S1130CD09C81FC01808591858770982F91709795F0
S1130CE09927979529812F77922B998386958370DD
S1130CF083709A819C7F892B8A8329813A818B8195
S1130D009C81FC018685978569010F2EF0E6EF2E04
S1130D10F4E0FF2EF02D8C0120E030E0A90160E02A
S1130D2070E0CB010E94781580E090E026960FB623
S1130D30F894DEBF0FBECDBFDF91CF911F910F910D
S1130D40FF90EF90DF90CF900895CF92DF92EF92D3
S1130D50FF920F931F93CF93DF9300D000D000D066
S1130D60CDB7DEB79C838B837E836D838B819C811F
S1130D70FC0184819581892B29F58B819C81FC015F
S1130D80268137818B819C81FC01358324838B816F
S1130D909C81FC0184819581892BD1F18B819C817B
S1130DA0C12CD12C0F2EF1E5EF2EF7E0FF2EF02D04
S1130DB08C0120E030E0A90160E070E0CB010E94EA
S1130DC0781526C08B819C81FC01248135818B811F
S1130DD09C81FC01378326838B819C81FC011582D5
S1130DE014828B819C81FC01228533858B819C81BB
S1130DF069010F2EFAE6EF2EF5E0FF2EF02D8C019F
S1130E0020E030E0A90160E070E0CB010E94781599
S1130E108B819C81FC01848195818F778F77998167
S1130E209078892B89838B819C81FC0180859185B5
S1130E308770982F917097959927979529812F7787
S1130E40922B99838695837083709A819C7F892BDA
S1130E508A8329813A818B819C81FC0186859785CF
S1130E6069010F2EF0E6EF2EF4E0FF2EF02D8C0139
S1130E7020E030E0A90160E070E0CB010E94781529
S1130E8080E090E026960FB6F894DEBF0FBECDBF8B
S1130E90DF91CF911F910F91FF90EF90DF90CF9052
S1130EA008958F929F92AF92BF92CF92DF92EF926A
S1130EB0FF920F931F93CF93DF9300D000D000D005
S1130EC0CDB7DEB79C838B837E836D838B819C81BE
S1130ED0FC0184819581892B09F455C08B819C8107
S1130EE0FC01228533858B819C81FC018485958559
S1130EF069010F2EF0E3EF2EF5E0FF2EF02D8C01AB
S1130F0020E030E0A90160E070E0CB010E94781598
S1130F108B819C81FC012481358184EF91E0B901AE
S1130F200E946619CB019A83898389819A819C01E5
S1130F30990F440B550B8DE790E0DC010E947A1960
S1130F40DC01CB01BB231CF40396A11DB11DB59597
S1130F50A79597958795B595A795979587954C01EE
S1130F605D018B819C81C12CD12C0F2EF1E5EF2EDC
S1130F70F7E0FF2EF02D8C0120E030E0A901C5013F
S1130F80B4010E94781580E090E026960FB6F8949C
S1130F90DEBF0FBECDBFDF91CF911F910F91FF90A8
S1130FA0EF90DF90CF90BF90AF909F908F90089577
S1130FB01F920F9200905F000F9211242F933F9382
S1130FC04F935F936F937F938F939F93AF93BF934D
S1130FD0EF93FF93CF93DF93CDB7DEB780914001BA
S1130FE090914101092E000CAA0BBB0BAC013327D5
S1130FF0222784E890E0FC0180819181CC01A0E06B
S1131000B0E0822B932BA42BB52B80933C019093BF
S11310103D01A0933E01B0933F0186E390E0FC01C3
S11310208081882F90E081709927892B01F180912C
S11310304001909141010196092E000CAA0BBB0BB3
S1131040AC013327222784E890E0FC018081918160
S1131050CC01A0E0B0E0822B932BA42BB52B809382
S11310603C0190933D01A0933E01B0933F018091D8
S1131070DA019091DB01892B61F02091DA01309142
S1131080DB01809142019091430160E070E0F9013D
S113109009950E9424150000DF91CF91FF91EF91F3
S11310A0BF91AF919F918F917F916F915F914F917C
S11310B03F912F910F9000925F000F901F90189511
S11310C01F920F9200905F000F9211242F933F9371
S11310D04F935F936F937F938F939F93AF93BF933C
S11310E0EF93FF93CF93DF93CDB7DEB780914001A9
S11310F090914101092E000CAA0BBB0BAC013327C4
S1131100222784E890E0FC0180819181CC01A0E059
S1131110B0E0822B932BA42BB52B80933C019093AE
S11311203D01A0933E01B0933F0186E390E0FC01B2
S11311308081882F90E081709927892B01F180911B
S11311404001909141010196092E000CAA0BBB0BA2
S1131150AC013327222784E890E0FC01808191814F
S1131160CC01A0E0B0E0822B932BA42BB52B809371
S11311703C0190933D01A0933E01B0933F018091C7
S1131180DC019091DD01892B61F02091DC0130912B
S1131190DD01809144019091450161E070E0F90125
S11311A009950E9424150000DF91CF91FF91EF91E2
S11311B0BF91AF919F918F917F916F915F914F916B
S11311C03F912F910F9000925F000F901F90189500
S11311D01F920F9200905F000F9211242F933F9360
S11311E04F935F936F937F938F939F93AF93BF932B
S11311F0EF93FF93CF93DF93CDB7DEB78091400198
S113120090914101092E000CAA0BBB0BAC013327B2
S1131210222784E890E0FC0180819181CC01A0E048
S1131220B0E0822B932BA42BB52B80933C0190939D
S11312303D01A0933E01B0933F0186E390E0FC01A1
S11312408081882F90E081709927892B01F180910A
S11312504001909141010196092E000CAA0BBB0B91
S1131260AC013327222784E890E0FC01808191813E
S1131270CC01A0E0B0E0822B932BA42BB52B809360
S11312803C0190933D01A0933E01B0933F018091B6
S1131290DE019091DF01892B61F02091DE01309114
S11312A0DF01809146019091470162E070E0F9010D
S11312B009950E9424150000DF91CF91FF91EF91D1
S11312C0BF91AF919F918F917F916F915F914F915A
S11312D03F912F910F9000925F000F901F901895EF
S11312E01F920F9200905F000F9211242F933F934F
S11312F04F935F936F937F938F939F93AF93BF931A
S1131300EF93FF93CF93DF93CDB7DEB78091400186
S113131090914101092E000CAA0BBB0BAC013327A1
S1131320222784E890E0FC0180819181CC01A0E037
S1131330B0E0822B932BA42BB52B80933C0190938C
S11313403D01A0933E01B0933F0186E390E0FC0190
S11313508081882F90E081709927892B01F18091F9
S11313604001909141010196092E000CAA0BBB0B80
S1131370AC013327222784E890E0FC01808191812D
S1131380CC01A0E0B0E0822B932BA42BB52B80934F
S11313903C0190933D01A0933E01B0933F018091A5
S11313A0E0019091E101892B61F02091E0013091FD
S11313B0E101809148019091490163E070E0F901F5
S11313C009950E9424150000DF91CF91FF91EF91C0
S11313D0BF91AF919F918F917F916F915F914F9149
S11313E03F912F910F9000925F000F901F901895DE
S11313F01F920F9200905F000F9211242F933F933E
S11314004F935F936F937F938F939F93AF93BF9308
S1131410EF93FF93CF93DF93CDB7DEB78091400175
S113142090914101092E000CAA0BBB0BAC01332790
S1131430222784E890E0FC0180819181CC01A0E026
S1131440B0E0822B932BA42BB52B80933C0190937B
S11314503D01A0933E01B0933F0186E390E0FC017F
S11314608081882F90E081709927892B01F18091E8
S11314704001909141010196092E000CAA0BBB0B6F
S1131480AC013327222784E890E0FC01808191811C
S1131490CC01A0E0B0E0822B932BA42BB52B80933E
S11314A03C0190933D01A0933E01B0933F01809194
S11314B0E2019091E301892B61F02091E2013091E6
S11314C0E30180914A0190914B0164E070E0F901DD
S11314D009950E9424150000DF91CF91FF91EF91AF
S11314E0BF91AF919F918F917F916F915F914F9138
S11314F03F912F910F9000925F000F901F901895CD
S11315001F920F9200905F000F9211242F933F932C
S11315104F935F936F937F938F939F93AF93BF93F7
S1131520EF93FF93CF93DF93CDB7DEB78091400164
S113153090914101092E000CAA0BBB0BAC0133277F
S1131540222784E890E0FC0180819181CC01A0E015
S1131550B0E0822B932BA42BB52B80933C0190936A
S11315603D01A0933E01B0933F0186E390E0FC016E
S11315708081882F90E081709927892B01F18091D7
S11315804001909141010196092E000CAA0BBB0B5E
S1131590AC013327222784E890E0FC01808191810B
S11315A0CC01A0E0B0E0822B932BA42BB52B80932D
S11315B03C0190933D01A0933E01B0933F01809183
S11315C0E4019091E501892B61F02091E4013091CF
S11315D0E50180914C0190914D0165E070E0F901C5
S11315E009950E9424150000DF91CF91FF91EF919E
S11315F0BF91AF919F918F917F916F915F914F9127
S11316003F912F910F9000925F000F901F901895BB
S11316101F920F9200905F000F9211242F933F931B
S11316204F935F936F937F938F939F93AF93BF93E6
S1131630EF93FF93CF93DF93CDB7DEB78091400153
S113164090914101092E000CAA0BBB0BAC0133276E
S1131650222784E890E0FC0180819181CC01A0E004
S1131660B0E0822B932BA42BB52B80933C01909359
S11316703D01A0933E01B0933F0186E390E0FC015D
S11316808081882F90E081709927892B01F18091C6
S11316904001909141010196092E000CAA0BBB0B4D
S11316A0AC013327222784E890E0FC0180819181FA
S11316B0CC01A0E0B0E0822B932BA42BB52B80931C
S11316C03C0190933D01A0933E01B0933F01809172
S11316D0E6019091E701892B61F02091E6013091B8
S11316E0E70180914E0190914F0166E070E0F901AD
S11316F009950E9424150000DF91CF91FF91EF918D
S1131700BF91AF919F918F917F916F915F914F9115
S11317103F912F910F9000925F000F901F901895AA
S11317201F920F9200905F000F9211242F933F930A
S11317304F935F936F937F938F939F93AF93BF93D5
S1131740EF93FF93CF93DF93CDB7DEB78091400142
S113175090914101092E000CAA0BBB0BAC0133275D
S1131760222784E890E0FC0180819181CC01A0E0F3
S1131770B0E0822B932BA42BB52B80933C01909348
S11317803D01A0933E01B0933F0186E390E0FC014C
S11317908081882F90E081709927892B01F18091B5
S11317A04001909141010196092E000CAA0BBB0B3C
S11317B0AC013327222784E890E0FC0180819181E9
S11317C0CC01A0E0B0E0822B932BA42BB52B80930B
S11317D03C0190933D01A0933E01B0933F01809161
S11317E0E8019091E901892B61F02091E8013091A1
S11317F0E901809150019091510167E070E0F90195
S113180009950E9424150000DF91CF91FF91EF917B
S1131810BF91AF919F918F917F916F915F914F9104
S11318203F912F910F9000925F000F901F90189599
S11318301F920F9200905F000F9211242F933F93F9
S11318404F935F936F937F938F939F93AF93BF93C4
S1131850EF93FF93CF93DF93CDB7DEB78091400131
S113186090914101092E000CAA0BBB0BAC0133274C
S1131870222784E890E0FC0180819181CC01A0E0E2
S1131880B0E0822B932BA42BB52B80933C01909337
S11318903D01A0933E01B0933F0186E390E0FC013B
S11318A08081882F90E081709927892B01F18091A4
S11318B04001909141010196092E000CAA0BBB0B2B
S11318C0AC013327222784E890E0FC0180819181D8
S11318D0CC01A0E0B0E0822B932BA42BB52B8093FA
S11318E03C0190933D01A0933E01B0933F01809150
S11318F0EA019091EB01892B61F02091EA0130918A
S1131900EB01809152019091530168E070E0F9017C
S113191009950E9424150000DF91CF91FF91EF916A
S1131920BF91AF919F918F917F916F915F914F91F3
S11319303F912F910F9000925F000F901F90189588
S11319401F920F9200905F000F9211242F933F93E8
S11319504F935F936F937F938F939F93AF93BF93B3
S1131960EF93FF93CF93DF93CDB7DEB78091400120
S113197090914101092E000CAA0BBB0BAC0133273B
S1131980222784E890E0FC0180819181CC01A0E0D1
S1131990B0E0822B932BA42BB52B80933C01909326
S11319A03D01A0933E01B0933F0186E390E0FC012A
S11319B08081882F90E081709927892B01F1809193
S11319C04001909141010196092E000CAA0BBB0B1A
S11319D0AC013327222784E890E0FC0180819181C7
S11319E0CC01A0E0B0E0822B932BA42BB52B8093E9
S11319F03C0190933D01A0933E01B0933F0180913F
S1131A00EC019091ED01892B61F02091EC01309172
S1131A10ED01809154019091550169E070E0F90164
S1131A2009950E9424150000DF91CF91FF91EF9159
S1131A30BF91AF919F918F917F916F915F914F91E2
S1131A403F912F910F9000925F000F901F90189577
S1131A501F920F9200905F000F9211242F933F93D7
S1131A604F935F936F937F938F939F93AF93BF93A2
S1131A70EF93FF93CF93DF93CDB7DEB7809140010F
S1131A8090914101092E000CAA0BBB0BAC0133272A
S1131A90222784E890E0FC0180819181CC01A0E0C0
S1131AA0B0E0822B932BA42BB52B80933C01909315
S1131AB03D01A0933E01B0933F0186E390E0FC0119
S1131AC08081882F90E081709927892B01F1809182
S1131AD04001909141010196092E000CAA0BBB0B09
S1131AE0AC013327222784E890E0FC0180819181B6
S1131AF0CC01A0E0B0E0822B932BA42BB52B8093D8
S1131B003C0190933D01A0933E01B0933F0180912D
S1131B10EE019091EF01892B61F02091EE0130915B
S1131B20EF0180915601909157016AE070E0F9014C
S1131B3009950E9424150000DF91CF91FF91EF9148
S1131B40BF91AF919F918F917F916F915F914F91D1
S1131B503F912F910F9000925F000F901F90189566
S1131B601F920F9200905F000F9211242F933F93C6
S1131B704F935F936F937F938F939F93AF93BF9391
S1131B80EF93FF93CF93DF93CDB7DEB780914001FE
S1131B9090914101092E000CAA0BBB0BAC01332719
S1131BA0222784E890E0FC0180819181CC01A0E0AF
S1131BB0B0E0822B932BA42BB52B80933C01909304
S1131BC03D01A0933E01B0933F0186E390E0FC0108
S1131BD08081882F90E081709927892B01F1809171
S1131BE04001909141010196092E000CAA0BBB0BF8
S1131BF0AC013327222784E890E0FC0180819181A5
S1131C00CC01A0E0B0E0822B932BA42BB52B8093C6
S1131C103C0190933D01A0933E01B0933F0180911C
S1131C20F0019091F101892B61F02091F001309144
S1131C30F10180915801909159016BE070E0F90134
S1131C4009950E9424150000DF91CF91FF91EF9137
S1131C50BF91AF919F918F917F916F915F914F91C0
S1131C603F912F910F9000925F000F901F90189555
S1131C701F920F9200905F000F9211242F933F93B5
S1131C804F935F936F937F938F939F93AF93BF9380
S1131C90EF93FF93CF93DF93CDB7DEB780914001ED
S1131CA090914101092E000CAA0BBB0BAC01332708
S1131CB0222784E890E0FC0180819181CC01A0E09E
S1131CC0B0E0822B932BA42BB52B80933C019093F3
S1131CD03D01A0933E01B0933F0186E390E0FC01F7
S1131CE08081882F90E081709927892B01F1809160
S1131CF04001909141010196092E000CAA0BBB0BE7
S1131D00AC013327222784E890E0FC018081918193
S1131D10CC01A0E0B0E0822B932BA42BB52B8093B5
S1131D203C0190933D01A0933E01B0933F0180910B
S1131D30F2019091F301892B61F02091F20130912D
S1131D40F30180915A0190915B016CE070E0F9011C
S1131D5009950E9424150000DF91CF91FF91EF9126
S1131D60BF91AF919F918F917F916F915F914F91AF
S1131D703F912F910F9000925F000F901F90189544
S1131D801F920F9200905F000F9211242F933F93A4
S1131D904F935F936F937F938F939F93AF93BF936F
S1131DA0EF93FF93CF93DF93CDB7DEB780914001DC
S1131DB090914101092E000CAA0BBB0BAC013327F7
S1131DC0222784E890E0FC0180819181CC01A0E08D
S1131DD0B0E0822B932BA42BB52B80933C019093E2
S1131DE03D01A0933E01B0933F0186E390E0FC01E6
S1131DF08081882F90E081709927892B01F180914F
S1131E004001909141010196092E000CAA0BBB0BD5
S1131E10AC013327222784E890E0FC018081918182
S1131E20CC01A0E0B0E0822B932BA42BB52B8093A4
S1131E303C0190933D01A0933E01B0933F018091FA
S1131E40F4019091F501892B61F02091F401309116
S1131E50F50180915C0190915D016DE070E0F90104
S1131E6009950E9424150000DF91CF91FF91EF9115
S1131E70BF91AF919F918F917F916F915F914F919E
S1131E803F912F910F9000925F000F901F90189533
S1131E901F920F9200905F000F9211242F933F9393
S1131EA04F935F936F937F938F939F93AF93BF935E
S1131EB0EF93FF93CF93DF93CDB7DEB780914001CB
S1131EC090914101092E000CAA0BBB0BAC013327E6
S1131ED0222784E890E0FC0180819181CC01A0E07C
S1131EE0B0E0822B932BA42BB52B80933C019093D1
S1131EF03D01A0933E01B0933F0186E390E0FC01D5
S1131F008081882F90E081709927892B01F180913D
S1131F104001909141010196092E000CAA0BBB0BC4
S1131F20AC013327222784E890E0FC018081918171
S1131F30CC01A0E0B0E0822B932BA42BB52B809393
S1131F403C0190933D01A0933E01B0933F018091E9
S1131F50F6019091F701892B61F02091F6013091FF
S1131F60F70180915E0190915F016EE070E0F901EC
S1131F7009950E9424150000DF91CF91FF91EF9104
S1131F80BF91AF919F918F917F916F915F914F918D
S1131F903F912F910F9000925F000F901F90189522
S1131FA01F920F9200905F000F9211242F933F9382
S1131FB04F935F936F937F938F939F93AF93BF934D
S1131FC0EF93FF93CF93DF93CDB7DEB780914001BA
S1131FD090914101092E000CAA0BBB0BAC013327D5
S1131FE0222784E890E0FC0180819181CC01A0E06B
S1131FF0B0E0822B932BA42BB52B80933C019093C0
S11320003D01A0933E01B0933F0186E390E0FC01C3
S11320108081882F90E081709927892B01F180912C
S11320204001909141010196092E000CAA0BBB0BB3
S1132030AC013327222784E890E0FC018081918160
S1132040CC01A0E0B0E0822B932BA42BB52B809382
S11320503C0190933D01A0933E01B0933F018091D8
S1132060F8019091F901892B61F02091F8013091E8
S1132070F90180916001909161016FE070E0F901D4
S113208009950E9424150000DF91CF91FF91EF91F3
S1132090BF91AF919F918F917F916F915F914F917C
S11320A03F912F910F9000925F000F901F90189511
S11320B01F920F9200905F000F9211242F933F9371
S11320C04F935F936F937F938F939F93AF93BF933C
S11320D0EF93FF93CF93DF93CDB7DEB780914001A9
S11320E090914101092E000CAA0BBB0BAC013327C4
S11320F0222784E890E0FC0180819181CC01A0E05A
S1132100B0E0822B932BA42BB52B80933C019093AE
S11321103D01A0933E01B0933F0186E390E0FC01B2
S11321208081882F90E081709927892B01F180911B
S11321304001909141010196092E000CAA0BBB0BA2
S1132140AC013327222784E890E0FC01808191814F
S1132150CC01A0E0B0E0822B932BA42BB52B809371
S11321603C0190933D01A0933E01B0933F018091C7
S1132170FA019091FB01892B61F02091FA013091D1
S1132180FB01809162019091630160E170E0F901CB
S113219009950E9424150000DF91CF91FF91EF91E2
S11321A0BF91AF919F918F917F916F915F914F916B
S11321B03F912F910F9000925F000F901F90189500
S11321C01F920F9200905F000F9211242F933F9360
S11321D04F935F936F937F938F939F93AF93BF932B
S11321E0EF93FF93CF93DF93CDB7DEB78091400198
S11321F090914101092E000CAA0BBB0BAC013327B3
S1132200222784E890E0FC0180819181CC01A0E048
S1132210B0E0822B932BA42BB52B80933C0190939D
S11322203D01A0933E01B0933F0186E390E0FC01A1
S11322308081882F90E081709927892B01F180910A
S11322404001909141010196092E000CAA0BBB0B91
S1132250AC013327222784E890E0FC01808191813E
S1132260CC01A0E0B0E0822B932BA42BB52B809360
S11322703C0190933D01A0933E01B0933F018091B6
S1132280FC019091FD01892B61F02091FC013091BA
S1132290FD01809164019091650161E170E0F901B3
S11322A009950E9424150000DF91CF91FF91EF91D1
S11322B0BF91AF919F918F917F916F915F914F915A
S11322C03F912F910F9000925F000F901F901895EF
S11322D0CF93DF93CDB7DEB728970FB6F894DEBF60
S11322E00FBECDBF9E838D8378876F831A82198238
S11322F08F819885FC01808191819C838B830BC0A5
S11323008B819C819A8389838B819C81FC01808150
S113231091819C838B838B819C81892B99F08B8108
S11323209C81FC0126813781408551858D819E8168
S1132330FC0186819781A085B18582179307A40744
S1132340B507F4F68D819E812B813C81FC0131839C
S1132350208389819A81892B41F48F8198852D81ED
S11323603E81FC013183208307C089819A812D81BC
S11323703E81FC0131832083000028960FB6F89437
S1132380DEBF0FBECDBFDF91CF910895CF93DF9312
S1132390CDB7DEB728970FB6F894DEBF0FBECDBF1A
S11323A09E838D8378876F831A8219828F819885A3
S11323B0FC01808191819C838B830BC08B819C81E8
S11323C09A8389838B819C81FC01808191819C8388
S11323D08B838B819C81892B99F08B819C81FC015F
S11323E022813381448155818D819E81FC018281CA
S11323F09381A481B58182179307A407B507F4F6E6
S11324008D819E812B813C81FC01318320838981D4
S11324109A81892B41F48F8198852D813E81FC011D
S11324203183208307C089819A812D813E81FC01FB
S113243031832083000028960FB6F894DEBF0FBEC8
S1132440CDBFDF91CF910895CF93DF9300D000D01B
S1132450CDB7DEB79C838B838B819C81FC0180810B
S113246091819A83898389819A81892B59F0898101
S11324709A81FC01208131818B819C81FC01318313
S1132480208316C08CEE90E02FEFFC0120838DEEAC
S113249090E02FEFFC0120838EEE90E02FEFFC0103
S11324A0208383E590E021E0FC0120838895F9CF27
S11324B089819A810F900F900F900F90DF91CF91A7
S11324C00895CF93DF9300D000D0CDB7DEB79A83C1
S11324D089837C836B838B819C81FC012081318186
S11324E089819A81FC01318320838B819C8129819C
S11324F03A81FC013183208300000F900F900F90EC
S11325000F90DF91CF910895CF93DF9300D000D047
S1132510CDB7DEB79A8389837C836B838B819C815F
S1132520FC012081318189819A81FC0131832083DE
S11325308B819C8129813A81FC01318320830000B5
S11325400F900F900F900F90DF91CF910895CF933C
S1132550DF9300D000D0CDB7DEB79C838B838B8113
S11325609C81FC01808191819A83898389819A81EC
S1132570FC01208131818B819C81FC01318320838A
S113258089819A810F900F900F900F90DF91CF91D6
S113259008951F920F9200905F000F9211242F93C1
S11325A03F934F935F936F937F938F939F93AF93D7
S11325B0BF93EF93FF93CF93DF93CDB7DEB78091B3
S11325C04001909141010196909341018093400113
S11325D080913A0190913B01892B09F44AC0809182
S11325E03A0190913B01FC0182819381A481B581E0
S11325F0CD01BB2797FDB095AB2F9C018091400185
S11326009091410128173907A1F528E830E080911D
S11326103A0190913B01FC0182819381A481B581AF
S1132620AC0184E890E0FC0180819181BA01681BCF
S1132630790BCB01019739F484E890E0FC018081A7
S11326409181019609C080913A0190913B01FC016E
S113265082819381A481B581F901918380838FE67E
S113266090E02FE630E0F90120812260FC01208314
S113267009C08FE690E02FE630E0F90120812D7F3C
S1132680FC0120830000DF91CF91FF91EF91BF9176
S1132690AF919F918F917F916F915F914F913F91F6
S11326A02F910F9000925F000F901F9018951F922A
S11326B00F9200905F000F921124EF92FF920F93FC
S11326C01F932F933F934F935F936F937F938F93B6
S11326D09F93AF93BF93EF93FF93CF93DF9300D078
S11326E000D0CDB7DEB78091400190914101092E11
S11326F0000CAA0BBB0BAC013327222784E890E023
S1132700FC0180819181CC01A0E0B0E0822B932B6D
S1132710A42BB52B89839A83AB83BC8386E390E097
S1132720FC018081882F90E081709927892B29F101
S113273080914001909141010196092E000CAA0B51
S1132740BB0BAC013327222784E890E0FC01808195
S11327509181CC01A0E0B0E0822B932BA42BB52B6C
S113276089839A83AB83BC8308C08AE391E00E9487
S1132770241268E371E00E94681180913A019091FB
S11327803B01892BD1F080913A0190913B01FC01EE
S1132790228133814481558189819A81AB81BC81B5
S11327A079018A01E81AF90A0A0B1B0BD801C7013F
S11327B0181619061A061B06C4F680913A01909160
S11327C03B01892B09F44AC080913A0190913B0165
S11327D0FC0182819381A481B581CD01BB2797FD42
S11327E0B095AB2F9C018091400190914101281735
S11327F03907A1F528E830E080913A0190913B0136
S1132800FC0182819381A481B581AC0184E890E0CC
S1132810FC01808191817A01E81AF90AC7010197C4
S113282039F484E890E0FC0180819181019609C02B
S113283080913A0190913B01FC0182819381A481B2
S1132840B581F901918380838FE690E02FE630E033
S1132850F90120812260FC01208309C08FE690E009
S11328602FE630E0F90120812D7FFC0120830E94B6
S1132870241500000F900F900F900F90DF91CF91CF
S1132880FF91EF91BF91AF919F918F917F916F9144
S11328905F914F913F912F911F910F91FF90EF9076
S11328A00F9000925F000F901F901895CF93DF93C5
S11328B000D0CDB7DEB79A83898380913601909199
S11328C0370106960E94A819892B69F489819A8197
S11328D0909337018093360189819A81069661E04D
S11328E070E00E94C81900000F900F90DF91CF9103
S11328F00895EF92FF920F931F93CF93DF93CDB779
S1132900DEB727970FB6F894DEBF0FBECDBF009198
S113291036011091370188E391E00E942412F801F6
S113292093838283F801828193819C838B8381E0EA
S11329308D838D81882309F078948B819C81FC019F
S1132940468557858B819C81FC01248535858B8147
S11329509C81FC0182859385B9010E940F178FE544
S113296090E0FC01808180788D83F8948B819C8138
S113297060E371E00E94611280913401909135010D
S1132980FC0180819181FC01828193819F838E83EC
S11329908091380190913901892B19F18E819F81A1
S11329A0892B09F4B4CF8091380190913901FC014D
S11329B026813781408551858E819F81FC018681E6
S11329C09781A085B18579018A01E81AF90A0A0B71
S11329D01B0BD801C701181619061A061B060CF0A2
S11329E096CF84E391E00E94A71262E371E00E9413
S11329F0841280913401909135019A8389830AC0AD
S1132A0089819A81FC0184819581FC018081918175
S1132A109A83898389819A81FC0184819581892B98
S1132A2079F789819A810E94561471CFCF93DF93ED
S1132A30CDB7DEB70E942415789483E590E021E0B9
S1132A40FC0120838895F9CFEF92FF920F931F9397
S1132A50CF93DF9300D0CDB7DEB78091340190914E
S1132A603501FC01828193819A83898380913801A5
S1132A7090913901892B91F1809132019091330128
S1132A80892B61F189819A81892BD1F08091380158
S1132A9090913901FC0126813781408551858981D6
S1132AA09A81FC0186819781A085B18579018A018B
S1132AB0E81AF90A0A0B1B0BD801C701BB2374F4EB
S1132AC082E391E00E94A71264E371E00E94841201
S1132AD080913401909135010E94561400000F90AA
S1132AE00F90DF91CF911F910F91FF90EF90089578
S1132AF0CF92DF92EF92FF920F931F93CF93DF93C6
S1132B00CDB7DEB765970FB6F894DEBF0FBECDBF65
S1132B10688779878A879B872C873D874E875F875D
S1132B20198B088BFB8AEA8ADD8ACC8A8FE590E0D0
S1132B30FC01808180788D83F89480E391E00E9489
S1132B4024129F838E838E819F8128893989FC0179
S1132B50338722878E819F812A893B89FC013587AF
S1132B6024878E819F812C893D89FC0137872687A4
S1132B708D81882369F08091360190913701FC01A1
S1132B8082819381FC0182819381A481B58108C0F3
S1132B9080913C0190913D01A0913E01B0913F0193
S1132BA0288539854A855B85820F931FA41FB51F2D
S1132BB02E813F81F90182839383A483B5838E811F
S1132BC09F81FC0122813381448155818C859D85BF
S1132BD0AE85BF85181619061A061B062CF48C85BB
S1132BE09D85AE85BF8504C08FEF9FEFAFEFBFE734
S1132BF0820F931FA41FB51F2E813F81F901868385
S1132C009783A087B1878091400190914101092E5B
S1132C10000CAA0BBB0BAC013327222784E890E0FD
S1132C20FC0180819181CC01A0E0B0E0822B932B48
S1132C30A42BB52B89839A83AB83BC8386E390E072
S1132C40FC018081882F90E081709927892BE1F025
S1132C5080914001909141010196092E000CAA0B2C
S1132C60BB0BAC013327222784E890E0FC01808170
S1132C709181CC01A0E0B0E0822B932BA42BB52B47
S1132C8089839A83AB83BC838E819F81FC012281DB
S1132C9033814481558189819A81AB81BC817901D9
S1132CA08A01E81AF90A0A0B1B0BD801C701181686
S1132CB019061A061B060CF061C08E819F816AE317
S1132CC071E00E94C61180913A0190913B01892BD9
S1132CD009F44AC080913A0190913B01FC01828140
S1132CE09381A481B581CD01BB2797FDB095AB2F0E
S1132CF09C01809140019091410128173907A1F569
S1132D0028E830E080913A0190913B01FC018281F6
S1132D109381A481B581AC0184E890E0FC018081B9
S1132D2091817A01E81AF90AC701019739F484E814
S1132D3090E0FC0180819181019609C080913A0163
S1132D4090913B01FC0182819381A481B581F901B9
S1132D50918380838FE690E02FE630E0F9012081B3
S1132D602260FC01208346C08FE690E02FE630E02D
S1132D70F90120812D7FFC0120833CC08E819F813D
S1132D8068E371E00E9468118D81882399F1809134
S1132D90320190913301892B69F18091380190912E
S1132DA03901FC01268137814085518580913401A8
S1132DB090913501FC0182819381FC018681978188
S1132DC0A085B18579018A01E81AF90A0A0B1B0B5F
S1132DD0D801C701BB2374F482E391E00E94A712D7
S1132DE064E371E00E948412809134019091350172
S1132DF00E9456148D81882309F078948E819F81D6
S1132E0065960FB6F894DEBF0FBECDBFDF91CF91AC
S1132E101F910F91FF90EF90DF90CF900895CF9383
S1132E20DF93CDB7DEB72C970FB6F894DEBF0FBE95
S1132E30CDBF98878F837A8769875C874B878FE5B7
S1132E4090E0FC01808180788B83F8948F81988551
S1132E50FC01808191819A83898389819A81892B5C
S1132E6009F45AC00AC089819A81FC018481958140
S1132E70FC01808191819A83898389819A81FC01F3
S1132E8084819581892B79F780913601909137015E
S1132E9029813A812817390719F08B81882339F45D
S1132EA08B81882309F078948FEF9FEF83C08F8103
S1132EB09885FC0182819381892B41F08F819885CB
S1132EC0FC0182819381FC011582148220913601D8
S1132ED0309137018F819885FC013383228380915F
S1132EE03601909137012F813885FC013583248385
S1132EF089819A810E9456148091360190913701FC
S1132F00FC0182819381892B39F48B81882309F018
S1132F10789480E090E04EC02091360130913701E2
S1132F208F819885FC01318320838B81882341F034
S1132F308F819885FC0182819381019709F07894AF
S1132F404B855C858F81988529853A85BA01F9017D
S1132F5009959D838C838FE590E0FC0180818078C6
S1132F608E83F8948F819885FC01118210828F8161
S1132F709885FC01828193819A83898389819A81CE
S1132F80892B91F089819A81019771F08F819885BD
S1132F90FC011382128289819A81FC0115821482B8
S1132FA089819A810E9456148B81882309F0789430
S1132FB08C819D812C960FB6F894DEBF0FBECDBFD9
S1132FC0DF91CF910895CF93DF9300D0CDB7DEB7D3
S1132FD01A8219821EC089819A81019682959295DE
S1132FE0907F9827807F98279C01255E3D4F89819B
S1132FF09A8182959295907F9827807F9827855E05
S11330009D4FFC013183208389819A8101969A83A3
S1133010898389819A810E97F4F21092FC021092AE
S1133020FB021A82198220C089819A819C012F5F38
S11330303F4F4DE1429FC001439F900D11249C01DD
S11330402A593E4F49815A816DE1649FC001659FB1
S1133050900D11248A599E4FFC013183208389816C
S11330609A8101969A83898389819A810397E4F2EC
S11330701092BE011092BD011A82198266C0298184
S11330803A814DE1429FC001439F900D1124069661
S11330908A599E4F0E94A81929813A814DE1429F85
S11330A0C001439F900D112406968A599E4F409665
S11330B049815A8160E6649F9001659F300D112417
S11330C0255F3C4F245A3F4FFC01318320832981E3
S11330D03A814DE1429FC001439F900D1124069611
S11330E08A599E4F429649815A8160E6649F9001B5
S11330F0659F300D1124255F3C4F245A3F4FFC013E
S11331003183208329813A814DE1429FC001439F4D
S1133110900D112406968A599E4F459629E734E16D
S1133120FC013183208329813A814DE1429FC00112
S1133130439F900D112486599E4FFC0111821082E9
S113314089819A8101969A83898389819A810497D6
S11331500CF495CF1092FF011092FE01109203021D
S113316010920202109201021092000281E690E095
S113317020E8FC01208381E690E0FC01108284E8D1
S113318090E0FC011182108281E890E024E0FC01CF
S113319020838FE690E021E0FC01208300000F9063
S11331A00F90DF91CF910895CF93DF9300D000D09B
S11331B000D0CDB7DEB79B838A837D836C834E8337
S11331C08E81823150F58FE590E0FC01808180781A
S11331D08983F8948E81882F90E0880F991F8E5BE5
S11331E09E4F2A813B81FC01318320838E81882F6D
S11331F090E0880F991F86529E4F2C813D81FC01DF
S1133200318320838A819B8121E030E0FC01338378
S113321022838981882309F07894000026960FB6CA
S1133220F894DEBF0FBECDBFDF91CF910895CF924A
S1133230DF92EF92FF920F931F93CF93DF93CDB75B
S1133240DEB727970FB6F894DEBF0FBECDBF9B83C2
S11332508A837D836C835F834E838FE590E0FC01DA
S1133260808180788983F8940E94E31778948C8114
S11332709D81892B89F04E815F812C813D818A81DA
S11332809B816A0179018C0120E030E0A90160E0B2
S113329070E0CB010E9478158FE590E0FC018081FD
S11332A080788983F8940E94161580E090E0279630
S11332B00FB6F894DEBF0FBECDBFDF91CF911F9143
S11332C00F91FF90EF90DF90CF90089597FB072E1A
S11332D016F4009407D077FD09D00E94851907FCE5
S11332E005D03EF4909581959F4F08957095619512
S11332F07F4F08950E949919A59F900DB49F900D3A
S1133300A49F800D911D11240895AA1BBB1B51E19C
S113331007C0AA1FBB1FA617B70710F0A61BB70B41
S1133320881F991F5A95A9F780959095BC01CD01E6
S11333300895A29FB001B39FC001A39F700D811D8A
S11333401124911DB29F700D811D1124911D0895AA
S1133350DC012D923D924D925D926D927D928D9203
S11333609D92AD92BD92CD92DD92ED92FD920D9320
S11333701D93CD93DD93FF91EF918DB78D938EB710
S11333808D938FB78D93ED93FD9388279927099497
S1133390DC01CB0181309105811D2D903D904D9034
S11333A05D906D907D908D909D90AD90BD90CD90F1
S11333B0DD90ED90FD900D911D91CD91DD91ED91FC
S11333C0FD910D90F894FEBF0FBEEDBFED91FD9100
S10933D00994F894FFCFFC
S11333D6010505010008000201010E0101010B01AE
S11333E600050B0001040B0100040F010101090093
S11333F601050F0101050B00000001010202030390
S10B34061B026601FE01FE0138
S9030000FC
