S01100004C6162342D50726F6A2E7372656308
S11300000C942E000C942A050C94B2050C943A0618
S11300100C94C2060C944A070C944B000C94A9103F
S11300200C944B000C941B100C94D2070C945A089B
S11300300C94E2080C946A090C94F2090C947A0A60
S11300400C94020B0C948A0B0C94120C0C949A0CC6
S11300500C94220D0C94AA0D0C94320E11241FBE84
S1130060CFEFD4E0DEBFCDBF11E0A0E0B1E0E2E726
S1130070FEE202C005900D92A833B107D9F724E03F
S1130080A8E3B1E001C01D92AB38B207E1F70E94CA
S113009070030C9437170C940000CF92DF92EF9208
S11300A0FF920F931F93FC01268121110AC021E0C6
S11300B0FC0126831F910F91FF90EF90DF90CF906A
S11300C00895168204811581C12CD12C87E9E82E6C
S11300D080E0F82E20E030E0A90160E070E0CB0180
S11300E00E94CA121F910F91FF90EF90DF90CF9062
S11300F00895CF92DF92EF92FF920F931F93FC012A
S113010004811581C12CD12C85ECE82E80E0F82ED9
S113011020E030E0A90160E070E0CB010E94CA1247
S11301201F910F91FF90EF90DF90CF900895CF92A1
S1130130DF92EF92FF920F931F93AC019CB12CB10D
S113014031E09695917093130EC026FB222720F977
S1130150231309C080E090E01F910F91FF90EF906E
S1130160DF90CF900895FA0104811581C12CD12C20
S113017085E6E82E81E0F82E20E030E0A90160E079
S113018070E0CB010E94CA12E5CFCF92DF92EF92CA
S1130190FF920F931F93CF93DF93EC011F9910C02D
S11301A00C811D81C12CD12C2EE3E22E21E0F22EF4
S11301B020E030E0A90160E070E0CB010E94CA12A7
S11301C01E9B12C01C9905C08E8181111EC081E046
S11301D08E8380E090E0DF91CF911F910F91FF908B
S11301E0EF90DF90CF9008950C811D81C12CD12C0C
S11301F097E1E92E91E0F92E20E030E0A90160E0DA
S113020070E0CB010E94CA12DDCF1E820C811D81D9
S1130210C12CD12C82E7E82E81E0F82E20E030E0DA
S1130220A90160E070E0CB010E94CA12D2CFCF9244
S1130230DF92EF92FF920F931F93FC01248121110F
S11302401AC0FC0107811085C12CD12C84E8E82E4A
S113025084E0F82E20E030E0A90160E070E0CB01FA
S11302600E94CA1280E090E01F910F91FF90EF90DE
S1130270DF90CF90089505811681E6CFCF92DF926B
S1130280EF92FF920F931F93FC01248121111AC056
S1130290FC0107811085C12CD12C85EBE82E84E06C
S11302A0F82E20E030E0A90160E070E0CB010E946C
S11302B0CA1280E090E01F910F91FF90EF90DF90C1
S11302C0CF90089505811681E6CFFC01248191E049
S11302D029272483E9EFF0E080819827908380E048
S11302E090E00895CF92DF92EF92FF920F931F93C5
S11302F0FC01248121111AC0FC0107811085C12C45
S1130300D12C84EEE82E84E0F82E20E030E0A90120
S113031060E070E0CB010E94CA1280E090E01F917F
S11303200F91FF90EF90DF90CF9008950581168193
S1130330E6CFCF92DF92EF92FF920F931F93CF936A
S1130340DF93EC010D811E81C12CD12C89E1E82EB3
S113035084E0F82E20E030E0A90160E070E0CB01F9
S11303600E94CA120F81188520E030E0A90160E0E4
S113037070E0CB010E94CA12DF91CF911F910F91BF
S1130380FF90EF90DF90CF900895E1E6F0E080E8F1
S11303908083108297EB9093E50097E09093E600BA
S11303A09EE29093E7008093E400E9EFF0E090810F
S11303B081E0892780838DB180678DB9759A85B175
S11303C0806D85B98EB18C608EB98DB3806C8DBB18
S11303D0ECE6F0E08081806D8083EBE6F0E08081E4
S11303E08C6080830895CF93DF93CDB7DEB72997D0
S11303F00FB6F894DEBF0FBECDBF8F8379876887B1
S11304008885998599230CF409C18885998506976F
S11304100CF004C18F81803308F400C18F818A33CA
S113042008F0FCC088859985885D9E4FFC01808119
S1130430882F90E084519F4F9C838B838F81882FDA
S113044090E0C0979E838D831A821982888599854E
S113045081709078992324F401978E6F9F6F019691
S1130460019799F584E090E09A8389838B819C813C
S1130470FC018081282F2F708B819C81FC012083BB
S11304808B819C8105962B813C812B5F3F4FF90129
S113049020812F70FC0120838B819C810A962B8103
S11304A03C81265F3F4FF90120812F70FC0120839E
S11304B08B819C810F962B813C81215F3F4FF901F9
S11304C020812F70FC0120832EC08B819C81FC0134
S11304D08081282F207F8B819C81FC0120838B814C
S11304E09C8105962B813C812B5F3F4FF901208134
S11304F0207FFC0120838B819C810A962B813C8187
S1130500265F3F4FF9012081207FFC0120838B81EE
S11305109C810F962B813C81215F3F4FF901208103
S1130520207FFC0120838D819E81880F991F880F75
S1130530991F80509F4FFC018081882F90E0098093
S113054002C0880F991F0A94E2F7282F8B819C819F
S1130550FC018081822B282F8B819C81FC012083CC
S11305608B819C8105962D813E81220F331F220FA2
S1130570331F2F5F3E4FF9012081222F30E0098085
S113058002C0220F331F0A94E2F7422F2B813C81D1
S11305902B5F3F4FF9012081242BFC0120838B81A9
S11305A09C810A962D813E81220F331F220F331F17
S11305B02E5F3E4FF9012081222F30E0098002C0D6
S11305C0220F331F0A94E2F7422F2B813C81265FCE
S11305D03F4FF9012081242BFC0120838B819C81D6
S11305E00F962D813E81220F331F220F331F2D5F63
S11305F03E4FF9012081222F30E0098002C0220FF2
S1130600331F0A94E2F7422F2B813C81215F3F4F35
S1130610F9012081242BFC01208301C000002996CC
S11306200FB6F894DEBF0FBECDBFDF91CF91089512
S1130630CF93DF93CDB7DEB72A970FB6F894DEBF1A
S11306400FBECDBF98878F837A87698789859A85FE
S11306509E838D838D81881F8827881F9E81937038
S1130660990F892B882F90E09A8389838D818F77C6
S1130670882F90E09C838B838B819C8124E630E0DF
S1130680B9010E94B8162AE030E0B9010E94B816F8
S1130690CB0120E3280F89819A81BC01822F0E941B
S11306A0F30189819A8101969A8389838B819C8144
S11306B02AE030E0B9010E94B81620E3280F8981AE
S11306C09A81BC01822F0E94F30180E090E02A9677
S11306D00FB6F894DEBF0FBECDBFDF91CF91089562
S11306E00F931F93CF93DF93CDB7DEB7C054D109D7
S11306F00FB6F894DEBF0FBECDBF0E94C5011EAE7B
S11307001DAE21961FAE1EAE21971AAE19AE1CAEB9
S11307101BAE1A8A198A1C8A1B8A1E8A1D8A188E85
S11307201F8A81E090E09A8F898F9C8F8B8F9E0126
S1130730235C3F4F3E8F2D8FCE01C99698A38F8F98
S11307401A8219821C821B821E821D8218861F82B5
S113075044E050E05A87498743E050E05C874B8788
S11307603E872D87988B8F871AA219A21CA21BA2E1
S11307701DA288979FA38EA3409799A788A7FE01DF
S1130780BA9688E0DF011D928A95E9F78E010F5D24
S11307901F4F1FA70EA71BAA1AAA1DAA1CAAFFABAC
S11307A0EEAB18AE41E06DE470E0CE01C2960E945B
S11307B0261642E069E770E0CE01C2960E94261632
S11307C040E050E069E971E0C8010E946916C05C2C
S11307D0DF4F0FB6F894DEBF0FBECDBFDF91CF91D0
S11307E01F910F9108956130710589F0633071058F
S11307F049F09091FE0081E089278093FE0080E01B
S113080090E008959EB180E489278EB9F2CF9EB11D
S113081080E189278EB9EDCF6130710531F0633005
S1130820710519F080E090E008951EB880E090E032
S11308300895CF92DF92EF92FF920F931F93CF937D
S1130840DF93EC018C819D81CA84DB84892B39F58B
S11308508CE0E82E84E0F82E8E0120E030E0A9013F
S113086060E070E0CB010E94CA12C12CD12C99E146
S1130870E92E94E0F92E20E030E0A90169E07DE35F
S113088080E090E00E94CA1280E090E0DF91CF9176
S11308901F910F91FF90EF90DF90CF9008950C85FA
S11308A01D8543EFE42E43E0F42E20E030E0A9015F
S11308B060E070E0CB010E94CA126C817D8184EFFC
S11308C091E00E94B8162DE730E0DB010E94CC16BF
S11308D097FD15C095958795779567959595879517
S11308E077956795C12CD12C39E1E32E34E0F32EB2
S11308F08E0120E030E0A9010E94CA12C5CF6D5FCD
S11309007F4F8F4F9F4FE6CFCF92DF92EF92FF92B0
S11309100F931F93FC01C480D580F3E6CF16D10456
S1130920DCF4FC012FEFC21AD20AD582C482D0842F
S1130930D0FAC7F88D2D86958370D82E0685178535
S113094088E1E82E83E0F82E20E030E0A90160E0A1
S113095070E0CB010E94CA1280E090E01F910F91D9
S1130960FF90EF90DF90CF900895CF92DF92EF92B7
S1130970FF920F931F93FC01C480D5801C141D04A7
S11309802CF481E0C81AD108D582C482D084D0FA6C
S1130990C7F88D2D86958370D82E0685178588E136
S11309A0E82E83E0F82E20E030E0A90160E070E05A
S11309B0CB010E94CA1280E090E01F910F91FF903A
S11309C0EF90DF90CF900895CF92DF92EF92FF9255
S11309D00F931F93CF93DF93EC018C819D8100973C
S11309E021F5CE808F81CC828D83D884D0FAC7F84C
S11309F08D2D86958370D82E0E851F8588E1E82E6F
S1130A0083E0F82E20E030E0A90160E070E0CB0143
S1130A100E94CA1280E090E0DF91CF911F910F9164
S1130A20FF90EF90DF90CF9008959F838E831D8277
S1130A301C82CA84DB849CE0E92E94E0F92E8E01AA
S1130A4020E030E0A90160E070E0CB010E94CA120E
S1130A50CC80CBCF1F920F9200905F000F92112495
S1130A602F933F934F935F936F937F938F939F93B2
S1130A70AF93BF93EF93FF93CF93DF93CDB7DEB7DD
S1130A808091400190914101092E000CAA0BBB0BEF
S1130A90AC013327222784E890E0FC018081918116
S1130AA0CC01A0E0B0E0822B932BA42BB52B809338
S1130AB03C0190933D01A0933E01B0933F0186E336
S1130AC090E0FC018081882F90E081709927892B28
S1130AD001F180914001909141010196092E000C91
S1130AE0AA0BBB0BAC013327222784E890E0FC015E
S1130AF080819181CC01A0E0B0E0822B932BA42BC8
S1130B00B52B80933C0190933D01A0933E01B0939B
S1130B103F018091DA019091DB01892B61F02091F2
S1130B20DA013091DB01809142019091430160E050
S1130B3070E0F90109950E9476120000DF91CF91CF
S1130B40FF91EF91BF91AF919F918F917F916F91A1
S1130B505F914F913F912F910F9000925F000F9002
S1130B601F9018951F920F9200905F000F9211240E
S1130B702F933F934F935F936F937F938F939F93A1
S1130B80AF93BF93EF93FF93CF93DF93CDB7DEB7CC
S1130B908091400190914101092E000CAA0BBB0BDE
S1130BA0AC013327222784E890E0FC018081918105
S1130BB0CC01A0E0B0E0822B932BA42BB52B809327
S1130BC03C0190933D01A0933E01B0933F0186E325
S1130BD090E0FC018081882F90E081709927892B17
S1130BE001F180914001909141010196092E000C80
S1130BF0AA0BBB0BAC013327222784E890E0FC014D
S1130C0080819181CC01A0E0B0E0822B932BA42BB6
S1130C10B52B80933C0190933D01A0933E01B0938A
S1130C203F018091DC019091DD01892B61F02091DD
S1130C30DC013091DD01809144019091450161E036
S1130C4070E0F90109950E9476120000DF91CF91BE
S1130C50FF91EF91BF91AF919F918F917F916F9190
S1130C605F914F913F912F910F9000925F000F90F1
S1130C701F9018951F920F9200905F000F921124FD
S1130C802F933F934F935F936F937F938F939F9390
S1130C90AF93BF93EF93FF93CF93DF93CDB7DEB7BB
S1130CA08091400190914101092E000CAA0BBB0BCD
S1130CB0AC013327222784E890E0FC0180819181F4
S1130CC0CC01A0E0B0E0822B932BA42BB52B809316
S1130CD03C0190933D01A0933E01B0933F0186E314
S1130CE090E0FC018081882F90E081709927892B06
S1130CF001F180914001909141010196092E000C6F
S1130D00AA0BBB0BAC013327222784E890E0FC013B
S1130D1080819181CC01A0E0B0E0822B932BA42BA5
S1130D20B52B80933C0190933D01A0933E01B09379
S1130D303F018091DE019091DF01892B61F02091C8
S1130D40DE013091DF01809146019091470162E01C
S1130D5070E0F90109950E9476120000DF91CF91AD
S1130D60FF91EF91BF91AF919F918F917F916F917F
S1130D705F914F913F912F910F9000925F000F90E0
S1130D801F9018951F920F9200905F000F921124EC
S1130D902F933F934F935F936F937F938F939F937F
S1130DA0AF93BF93EF93FF93CF93DF93CDB7DEB7AA
S1130DB08091400190914101092E000CAA0BBB0BBC
S1130DC0AC013327222784E890E0FC0180819181E3
S1130DD0CC01A0E0B0E0822B932BA42BB52B809305
S1130DE03C0190933D01A0933E01B0933F0186E303
S1130DF090E0FC018081882F90E081709927892BF5
S1130E0001F180914001909141010196092E000C5D
S1130E10AA0BBB0BAC013327222784E890E0FC012A
S1130E2080819181CC01A0E0B0E0822B932BA42B94
S1130E30B52B80933C0190933D01A0933E01B09368
S1130E403F018091E0019091E101892B61F02091B3
S1130E50E0013091E101809148019091490163E002
S1130E6070E0F90109950E9476120000DF91CF919C
S1130E70FF91EF91BF91AF919F918F917F916F916E
S1130E805F914F913F912F910F9000925F000F90CF
S1130E901F9018951F920F9200905F000F921124DB
S1130EA02F933F934F935F936F937F938F939F936E
S1130EB0AF93BF93EF93FF93CF93DF93CDB7DEB799
S1130EC08091400190914101092E000CAA0BBB0BAB
S1130ED0AC013327222784E890E0FC0180819181D2
S1130EE0CC01A0E0B0E0822B932BA42BB52B8093F4
S1130EF03C0190933D01A0933E01B0933F0186E3F2
S1130F0090E0FC018081882F90E081709927892BE3
S1130F1001F180914001909141010196092E000C4C
S1130F20AA0BBB0BAC013327222784E890E0FC0119
S1130F3080819181CC01A0E0B0E0822B932BA42B83
S1130F40B52B80933C0190933D01A0933E01B09357
S1130F503F018091E2019091E301892B61F020919E
S1130F60E2013091E30180914A0190914B0164E0E8
S1130F7070E0F90109950E9476120000DF91CF918B
S1130F80FF91EF91BF91AF919F918F917F916F915D
S1130F905F914F913F912F910F9000925F000F90BE
S1130FA01F9018951F920F9200905F000F921124CA
S1130FB02F933F934F935F936F937F938F939F935D
S1130FC0AF93BF93EF93FF93CF93DF93CDB7DEB788
S1130FD08091400190914101092E000CAA0BBB0B9A
S1130FE0AC013327222784E890E0FC0180819181C1
S1130FF0CC01A0E0B0E0822B932BA42BB52B8093E3
S11310003C0190933D01A0933E01B0933F0186E3E0
S113101090E0FC018081882F90E081709927892BD2
S113102001F180914001909141010196092E000C3B
S1131030AA0BBB0BAC013327222784E890E0FC0108
S113104080819181CC01A0E0B0E0822B932BA42B72
S1131050B52B80933C0190933D01A0933E01B09346
S11310603F018091E4019091E501892B61F0209189
S1131070E4013091E50180914C0190914D0165E0CE
S113108070E0F90109950E9476120000DF91CF917A
S1131090FF91EF91BF91AF919F918F917F916F914C
S11310A05F914F913F912F910F9000925F000F90AD
S11310B01F9018951F920F9200905F000F921124B9
S11310C02F933F934F935F936F937F938F939F934C
S11310D0AF93BF93EF93FF93CF93DF93CDB7DEB777
S11310E08091400190914101092E000CAA0BBB0B89
S11310F0AC013327222784E890E0FC0180819181B0
S1131100CC01A0E0B0E0822B932BA42BB52B8093D1
S11311103C0190933D01A0933E01B0933F0186E3CF
S113112090E0FC018081882F90E081709927892BC1
S113113001F180914001909141010196092E000C2A
S1131140AA0BBB0BAC013327222784E890E0FC01F7
S113115080819181CC01A0E0B0E0822B932BA42B61
S1131160B52B80933C0190933D01A0933E01B09335
S11311703F018091E6019091E701892B61F0209174
S1131180E6013091E70180914E0190914F0166E0B4
S113119070E0F90109950E9476120000DF91CF9169
S11311A0FF91EF91BF91AF919F918F917F916F913B
S11311B05F914F913F912F910F9000925F000F909C
S11311C01F9018951F920F9200905F000F921124A8
S11311D02F933F934F935F936F937F938F939F933B
S11311E0AF93BF93EF93FF93CF93DF93CDB7DEB766
S11311F08091400190914101092E000CAA0BBB0B78
S1131200AC013327222784E890E0FC01808191819E
S1131210CC01A0E0B0E0822B932BA42BB52B8093C0
S11312203C0190933D01A0933E01B0933F0186E3BE
S113123090E0FC018081882F90E081709927892BB0
S113124001F180914001909141010196092E000C19
S1131250AA0BBB0BAC013327222784E890E0FC01E6
S113126080819181CC01A0E0B0E0822B932BA42B50
S1131270B52B80933C0190933D01A0933E01B09324
S11312803F018091E8019091E901892B61F020915F
S1131290E8013091E901809150019091510167E09A
S11312A070E0F90109950E9476120000DF91CF9158
S11312B0FF91EF91BF91AF919F918F917F916F912A
S11312C05F914F913F912F910F9000925F000F908B
S11312D01F9018951F920F9200905F000F92112497
S11312E02F933F934F935F936F937F938F939F932A
S11312F0AF93BF93EF93FF93CF93DF93CDB7DEB755
S11313008091400190914101092E000CAA0BBB0B66
S1131310AC013327222784E890E0FC01808191818D
S1131320CC01A0E0B0E0822B932BA42BB52B8093AF
S11313303C0190933D01A0933E01B0933F0186E3AD
S113134090E0FC018081882F90E081709927892B9F
S113135001F180914001909141010196092E000C08
S1131360AA0BBB0BAC013327222784E890E0FC01D5
S113137080819181CC01A0E0B0E0822B932BA42B3F
S1131380B52B80933C0190933D01A0933E01B09313
S11313903F018091EA019091EB01892B61F020914A
S11313A0EA013091EB01809152019091530168E080
S11313B070E0F90109950E9476120000DF91CF9147
S11313C0FF91EF91BF91AF919F918F917F916F9119
S11313D05F914F913F912F910F9000925F000F907A
S11313E01F9018951F920F9200905F000F92112486
S11313F02F933F934F935F936F937F938F939F9319
S1131400AF93BF93EF93FF93CF93DF93CDB7DEB743
S11314108091400190914101092E000CAA0BBB0B55
S1131420AC013327222784E890E0FC01808191817C
S1131430CC01A0E0B0E0822B932BA42BB52B80939E
S11314403C0190933D01A0933E01B0933F0186E39C
S113145090E0FC018081882F90E081709927892B8E
S113146001F180914001909141010196092E000CF7
S1131470AA0BBB0BAC013327222784E890E0FC01C4
S113148080819181CC01A0E0B0E0822B932BA42B2E
S1131490B52B80933C0190933D01A0933E01B09302
S11314A03F018091EC019091ED01892B61F0209135
S11314B0EC013091ED01809154019091550169E066
S11314C070E0F90109950E9476120000DF91CF9136
S11314D0FF91EF91BF91AF919F918F917F916F9108
S11314E05F914F913F912F910F9000925F000F9069
S11314F01F9018951F920F9200905F000F92112475
S11315002F933F934F935F936F937F938F939F9307
S1131510AF93BF93EF93FF93CF93DF93CDB7DEB732
S11315208091400190914101092E000CAA0BBB0B44
S1131530AC013327222784E890E0FC01808191816B
S1131540CC01A0E0B0E0822B932BA42BB52B80938D
S11315503C0190933D01A0933E01B0933F0186E38B
S113156090E0FC018081882F90E081709927892B7D
S113157001F180914001909141010196092E000CE6
S1131580AA0BBB0BAC013327222784E890E0FC01B3
S113159080819181CC01A0E0B0E0822B932BA42B1D
S11315A0B52B80933C0190933D01A0933E01B093F1
S11315B03F018091EE019091EF01892B61F0209120
S11315C0EE013091EF0180915601909157016AE04C
S11315D070E0F90109950E9476120000DF91CF9125
S11315E0FF91EF91BF91AF919F918F917F916F91F7
S11315F05F914F913F912F910F9000925F000F9058
S11316001F9018951F920F9200905F000F92112463
S11316102F933F934F935F936F937F938F939F93F6
S1131620AF93BF93EF93FF93CF93DF93CDB7DEB721
S11316308091400190914101092E000CAA0BBB0B33
S1131640AC013327222784E890E0FC01808191815A
S1131650CC01A0E0B0E0822B932BA42BB52B80937C
S11316603C0190933D01A0933E01B0933F0186E37A
S113167090E0FC018081882F90E081709927892B6C
S113168001F180914001909141010196092E000CD5
S1131690AA0BBB0BAC013327222784E890E0FC01A2
S11316A080819181CC01A0E0B0E0822B932BA42B0C
S11316B0B52B80933C0190933D01A0933E01B093E0
S11316C03F018091F0019091F101892B61F020910B
S11316D0F0013091F10180915801909159016BE032
S11316E070E0F90109950E9476120000DF91CF9114
S11316F0FF91EF91BF91AF919F918F917F916F91E6
S11317005F914F913F912F910F9000925F000F9046
S11317101F9018951F920F9200905F000F92112452
S11317202F933F934F935F936F937F938F939F93E5
S1131730AF93BF93EF93FF93CF93DF93CDB7DEB710
S11317408091400190914101092E000CAA0BBB0B22
S1131750AC013327222784E890E0FC018081918149
S1131760CC01A0E0B0E0822B932BA42BB52B80936B
S11317703C0190933D01A0933E01B0933F0186E369
S113178090E0FC018081882F90E081709927892B5B
S113179001F180914001909141010196092E000CC4
S11317A0AA0BBB0BAC013327222784E890E0FC0191
S11317B080819181CC01A0E0B0E0822B932BA42BFB
S11317C0B52B80933C0190933D01A0933E01B093CF
S11317D03F018091F2019091F301892B61F02091F6
S11317E0F2013091F30180915A0190915B016CE018
S11317F070E0F90109950E9476120000DF91CF9103
S1131800FF91EF91BF91AF919F918F917F916F91D4
S11318105F914F913F912F910F9000925F000F9035
S11318201F9018951F920F9200905F000F92112441
S11318302F933F934F935F936F937F938F939F93D4
S1131840AF93BF93EF93FF93CF93DF93CDB7DEB7FF
S11318508091400190914101092E000CAA0BBB0B11
S1131860AC013327222784E890E0FC018081918138
S1131870CC01A0E0B0E0822B932BA42BB52B80935A
S11318803C0190933D01A0933E01B0933F0186E358
S113189090E0FC018081882F90E081709927892B4A
S11318A001F180914001909141010196092E000CB3
S11318B0AA0BBB0BAC013327222784E890E0FC0180
S11318C080819181CC01A0E0B0E0822B932BA42BEA
S11318D0B52B80933C0190933D01A0933E01B093BE
S11318E03F018091F4019091F501892B61F02091E1
S11318F0F4013091F50180915C0190915D016DE0FE
S113190070E0F90109950E9476120000DF91CF91F1
S1131910FF91EF91BF91AF919F918F917F916F91C3
S11319205F914F913F912F910F9000925F000F9024
S11319301F9018951F920F9200905F000F92112430
S11319402F933F934F935F936F937F938F939F93C3
S1131950AF93BF93EF93FF93CF93DF93CDB7DEB7EE
S11319608091400190914101092E000CAA0BBB0B00
S1131970AC013327222784E890E0FC018081918127
S1131980CC01A0E0B0E0822B932BA42BB52B809349
S11319903C0190933D01A0933E01B0933F0186E347
S11319A090E0FC018081882F90E081709927892B39
S11319B001F180914001909141010196092E000CA2
S11319C0AA0BBB0BAC013327222784E890E0FC016F
S11319D080819181CC01A0E0B0E0822B932BA42BD9
S11319E0B52B80933C0190933D01A0933E01B093AD
S11319F03F018091F6019091F701892B61F02091CC
S1131A00F6013091F70180915E0190915F016EE0E3
S1131A1070E0F90109950E9476120000DF91CF91E0
S1131A20FF91EF91BF91AF919F918F917F916F91B2
S1131A305F914F913F912F910F9000925F000F9013
S1131A401F9018951F920F9200905F000F9211241F
S1131A502F933F934F935F936F937F938F939F93B2
S1131A60AF93BF93EF93FF93CF93DF93CDB7DEB7DD
S1131A708091400190914101092E000CAA0BBB0BEF
S1131A80AC013327222784E890E0FC018081918116
S1131A90CC01A0E0B0E0822B932BA42BB52B809338
S1131AA03C0190933D01A0933E01B0933F0186E336
S1131AB090E0FC018081882F90E081709927892B28
S1131AC001F180914001909141010196092E000C91
S1131AD0AA0BBB0BAC013327222784E890E0FC015E
S1131AE080819181CC01A0E0B0E0822B932BA42BC8
S1131AF0B52B80933C0190933D01A0933E01B0939C
S1131B003F018091F8019091F901892B61F02091B6
S1131B10F8013091F90180916001909161016FE0C9
S1131B2070E0F90109950E9476120000DF91CF91CF
S1131B30FF91EF91BF91AF919F918F917F916F91A1
S1131B405F914F913F912F910F9000925F000F9002
S1131B501F9018951F920F9200905F000F9211240E
S1131B602F933F934F935F936F937F938F939F93A1
S1131B70AF93BF93EF93FF93CF93DF93CDB7DEB7CC
S1131B808091400190914101092E000CAA0BBB0BDE
S1131B90AC013327222784E890E0FC018081918105
S1131BA0CC01A0E0B0E0822B932BA42BB52B809327
S1131BB03C0190933D01A0933E01B0933F0186E325
S1131BC090E0FC018081882F90E081709927892B17
S1131BD001F180914001909141010196092E000C80
S1131BE0AA0BBB0BAC013327222784E890E0FC014D
S1131BF080819181CC01A0E0B0E0822B932BA42BB7
S1131C00B52B80933C0190933D01A0933E01B0938A
S1131C103F018091FA019091FB01892B61F02091A1
S1131C20FA013091FB01809162019091630160E1BE
S1131C3070E0F90109950E9476120000DF91CF91BE
S1131C40FF91EF91BF91AF919F918F917F916F9190
S1131C505F914F913F912F910F9000925F000F90F1
S1131C601F9018951F920F9200905F000F921124FD
S1131C702F933F934F935F936F937F938F939F9390
S1131C80AF93BF93EF93FF93CF93DF93CDB7DEB7BB
S1131C908091400190914101092E000CAA0BBB0BCD
S1131CA0AC013327222784E890E0FC0180819181F4
S1131CB0CC01A0E0B0E0822B932BA42BB52B809316
S1131CC03C0190933D01A0933E01B0933F0186E314
S1131CD090E0FC018081882F90E081709927892B06
S1131CE001F180914001909141010196092E000C6F
S1131CF0AA0BBB0BAC013327222784E890E0FC013C
S1131D0080819181CC01A0E0B0E0822B932BA42BA5
S1131D10B52B80933C0190933D01A0933E01B09379
S1131D203F018091FC019091FD01892B61F020918C
S1131D30FC013091FD01809164019091650161E1A4
S1131D4070E0F90109950E9476120000DF91CF91AD
S1131D50FF91EF91BF91AF919F918F917F916F917F
S1131D605F914F913F912F910F9000925F000F90E0
S1131D701F901895CF93DF93CDB7DEB728970FB692
S1131D80F894DEBF0FBECDBF9E838D8378876F83AB
S1131D901A8219828F819885FC01808191819C83AC
S1131DA08B830BC08B819C819A8389838B819C81DB
S1131DB0FC01808191819C838B838B819C81892B05
S1131DC099F08B819C81FC01268137814085518566
S1131DD08D819E81FC0186819781A085B1858217C2
S1131DE09307A407B507F4F68D819E812B813C816E
S1131DF0FC013183208389819A81892B41F48F816D
S1131E0098852D813E81FC013183208307C089811F
S1131E109A812D813E81FC01318320830000289624
S1131E200FB6F894DEBF0FBECDBFDF91CF910895FA
S1131E30CF93DF93CDB7DEB728970FB6F894DEBF04
S1131E400FBECDBF9E838D8378876F831A821982DC
S1131E508F819885FC01808191819C838B830BC049
S1131E608B819C819A8389838B819C81FC018081F5
S1131E7091819C838B838B819C81892B99F08B81AD
S1131E809C81FC0122813381448155818D819E8115
S1131E90FC0182819381A481B58182179307A407F1
S1131EA0B507F4F68D819E812B813C81FC01318341
S1131EB0208389819A81892B41F48F8198852D8192
S1131EC03E81FC013183208307C089819A812D8161
S1131ED03E81FC0131832083000028960FB6F894DC
S1131EE0DEBF0FBECDBFDF91CF910895CF93DF93B7
S1131EF000D000D0CDB7DEB79C838B838B819C81CF
S1131F00FC01808191819A83898389819A81892BBB
S1131F1059F089819A81FC01208131818B819C81D6
S1131F20FC013183208316C08CEE90E02FEFFC017E
S1131F3020838DEE90E02FEFFC0120838EEE90E065
S1131F402FEFFC01208383E590E021E0FC01208356
S1131F508895F9CF89819A810F900F900F900F90F7
S1131F60DF91CF910895CF93DF9300D000D0CDB708
S1131F70DEB79A8389837C836B838B819C81FC018C
S1131F802081318189819A81FC01318320838B8175
S1131F909C8129813A81FC013183208300000F90C8
S1131FA00F900F900F90DF91CF910895CF93DF930F
S1131FB000D000D0CDB7DEB79A8389837C836B834E
S1131FC08B819C81FC012081318189819A81FC0172
S1131FD0318320838B819C8129813A81FC01318367
S1131FE0208300000F900F900F900F90DF91CF91FE
S1131FF00895CF93DF9300D000D0CDB7DEB79C8394
S11320008B838B819C81FC01808191819A8389835C
S113201089819A81FC01208131818B819C81FC0121
S11320203183208389819A810F900F900F900F90B4
S1132030DF91CF9108951F920F9200905F000F924D
S113204011242F933F934F935F936F937F938F93B9
S11320509F93AF93BF93EF93FF93CF93DF93CDB74A
S1132060DEB7809140019091410101969093410126
S11320708093400180913A0190913B01892B09F4AE
S11320804AC080913A0190913B01FC018281938185
S1132090A481B581CD01BB2797FDB095AB2F9C01E1
S11320A0809140019091410128173907A1F528E852
S11320B030E080913A0190913B01FC01828193814F
S11320C0A481B581AC0184E890E0FC018081918118
S11320D0BA01681B790BCB01019739F484E890E0CD
S11320E0FC0180819181019609C080913A0190910F
S11320F03B01FC0182819381A481B581F901918323
S113210080838FE690E02FE630E0F90120812260A1
S1132110FC01208309C08FE690E02FE630E0F9014E
S113212020812D7FFC0120830000DF91CF91FF915E
S1132130EF91BF91AF919F918F917F916F915F913B
S11321404F913F912F910F9000925F000F901F903D
S113215018951F920F9200905F000F921124EF9236
S1132160FF920F931F932F933F934F935F936F931C
S11321707F938F939F93AF93BF93EF93FF93CF93EB
S1132180DF9300D000D0CDB7DEB7809140019091AD
S11321904101092E000CAA0BBB0BAC0133272227EB
S11321A084E890E0FC0180819181CC01A0E0B0E062
S11321B0822B932BA42BB52B89839A83AB83BC836B
S11321C086E390E0FC018081882F90E0817099275C
S11321D0892B29F180914001909141010196092EAA
S11321E0000CAA0BBB0BAC013327222784E890E038
S11321F0FC0180819181CC01A0E0B0E0822B932B83
S1132200A42BB52B89839A83AB83BC8308C08AE350
S113221091E00E94760F68E371E00E94BA0E80910B
S11322203A0190913B01892BD1F080913A01909130
S11322303B01FC01228133814481558189819A814A
S1132240AB81BC8179018A01E81AF90A0A0B1B0BDC
S1132250D801C701181619061A061B06C4F6809180
S11322603A0190913B01892B09F44AC080913A01CB
S113227090913B01FC0182819381A481B581CD01C0
S1132280BB2797FDB095AB2F9C01809140019091A5
S1132290410128173907A1F528E830E080913A0177
S11322A090913B01FC0182819381A481B581AC01B1
S11322B084E890E0FC01808191817A01E81AF90AAE
S11322C0C701019739F484E890E0FC018081918191
S11322D0019609C080913A0190913B01FC018281F1
S11322E09381A481B581F901918380838FE690E085
S11322F02FE630E0F90120812260FC01208309C02F
S11323008FE690E02FE630E0F90120812D7FFC017B
S113231020830E94761200000F900F900F900F9070
S1132320DF91CF91FF91EF91BF91AF919F918F91E9
S11323307F916F915F914F913F912F911F910F91D9
S1132340FF90EF900F9000925F000F901F901895F0
S1132350CF93DF9300D0CDB7DEB79A838983809182
S113236036019091370106960E94F616892B69F47E
S113237089819A81909337018093360189819A816A
S1132380069661E070E00E94161700000F900F900F
S1132390DF91CF910895EF92FF920F931F93CF9304
S11323A0DF93CDB7DEB727970FB6F894DEBF0FBE25
S11323B0CDBF009136011091370188E391E00E946E
S11323C0760FF80193838283F801828193819C8341
S11323D08B8381E08D838D81882309F078948B81B0
S11323E09C81FC01468557858B819C81FC01248559
S11323F035858B819C81FC0182859385B9010E947E
S113240061148FE590E0FC01808180788D83F894DD
S11324108B819C8160E371E00E94B30F8091340151
S113242090913501FC0180819181FC01828193812D
S11324309F838E838091380190913901892B19F102
S11324408E819F81892B09F4B4CF809138019091BA
S11324503901FC0126813781408551858E819F8118
S1132460FC0186819781A085B18579018A01E81AEA
S1132470F90A0A0B1B0BD801C701181619061A060C
S11324801B060CF096CF84E391E00E94F90F62E3FF
S113249071E00E94D60F80913401909135019A83A6
S11324A089830AC089819A81FC0184819581FC0118
S11324B0808191819A83898389819A81FC018481B5
S11324C09581892B79F789819A810E94A81171CF0E
S11324D0CF93DF93CDB7DEB70E947612789483E56D
S11324E090E021E0FC0120838895F9CFEF92FF92E0
S11324F00F931F93CF93DF9300D0CDB7DEB78091B6
S1132500340190913501FC01828193819A838983FE
S11325108091380190913901892B91F18091320198
S113252090913301892B61F189819A81892BD1F0B2
S11325308091380190913901FC01268137814085D1
S1132540518589819A81FC0186819781A085B18515
S113255079018A01E81AF90A0A0B1B0BD801C70191
S1132560BB2374F482E391E00E94F90F64E371E009
S11325700E94D60F80913401909135010E94A811D8
S113258000000F900F90DF91CF911F910F91FF905A
S1132590EF900895CF92DF92EF92FF920F931F93E3
S11325A0CF93DF93CDB7DEB765970FB6F894DEBF50
S11325B00FBECDBF688779878A879B872C873D8725
S11325C04E875F87198B088BFB8AEA8ADD8ACC8A5F
S11325D08FE590E0FC01808180788D83F89480E31E
S11325E091E00E94760F9F838E838E819F8128893C
S11325F03989FC01338722878E819F812A893B890F
S1132600FC01358724878E819F812C893D89FC01BB
S1132610378726878D81882369F0809136019091D0
S11326203701FC0182819381FC0182819381A48121
S1132630B58108C080913C0190913D01A0913E017B
S1132640B0913F01288539854A855B85820F931FA8
S1132650A41FB51F2E813F81F90182839383A48334
S1132660B5838E819F81FC01228133814481558110
S11326708C859D85AE85BF85181619061A061B061E
S11326802CF48C859D85AE85BF8504C08FEF9FEFAC
S1132690AFEFBFE7820F931FA41FB51F2E813F81A9
S11326A0F90186839783A087B18780914001909137
S11326B04101092E000CAA0BBB0BAC0133272227C6
S11326C084E890E0FC0180819181CC01A0E0B0E03D
S11326D0822B932BA42BB52B89839A83AB83BC8346
S11326E086E390E0FC018081882F90E08170992737
S11326F0892BE1F080914001909141010196092ECE
S1132700000CAA0BBB0BAC013327222784E890E012
S1132710FC0180819181CC01A0E0B0E0822B932B5D
S1132720A42BB52B89839A83AB83BC838E819F8131
S1132730FC01228133814481558189819A81AB8155
S1132740BC8179018A01E81AF90A0A0B1B0BD8012A
S1132750C701181619061A061B060CF061C08E81F3
S11327609F816AE371E00E94180F80913A01909171
S11327703B01892B09F44AC080913A0190913B01B5
S1132780FC0182819381A481B581CD01BB2797FD92
S1132790B095AB2F9C018091400190914101281785
S11327A03907A1F528E830E080913A0190913B0186
S11327B0FC0182819381A481B581AC0184E890E01D
S11327C0FC01808191817A01E81AF90AC701019715
S11327D039F484E890E0FC0180819181019609C07C
S11327E080913A0190913B01FC0182819381A48103
S11327F0B581F901918380838FE690E02FE630E084
S1132800F90120812260FC01208346C08FE690E01C
S11328102FE630E0F90120812D7FFC0120833CC0AC
S11328208E819F8168E371E00E94BA0E8D818823B6
S113283099F18091320190913301892B69F1809152
S1132840380190913901FC012681378140855185F9
S11328508091340190913501FC0182819381FC01C6
S113286086819781A085B18579018A01E81AF90AE0
S11328700A0B1B0BD801C701BB2374F482E391E05C
S11328800E94F90F64E371E00E94D60F8091340135
S1132890909135010E94A8118D81882309F07894C4
S11328A08E819F8165960FB6F894DEBF0FBECDBFB3
S11328B0DF91CF911F910F91FF90EF90DF90CF9018
S11328C00895CF93DF93CDB7DEB72C970FB6F89466
S11328D0DEBF0FBECDBF98878F837A8769875C87F9
S11328E04B878FE590E0FC01808180788B83F8949E
S11328F08F819885FC01808191819A838983898164
S11329009A81892B09F45AC00AC089819A81FC01F1
S113291084819581FC01808191819A838983898155
S11329209A81FC0184819581892B79F78091360104
S11329309091370129813A812817390719F08B8141
S1132940882339F48B81882309F078948FEF9FEFE3
S113295083C08F819885FC0182819381892B41F00A
S11329608F819885FC0182819381FC0115821482F8
S113297020913601309137018F819885FC01338392
S1132980228380913601909137012F813885FC0193
S11329903583248389819A810E94A811809136010C
S11329A090913701FC0182819381892B39F48B81C9
S11329B0882309F0789480E090E04EC0209136019D
S11329C0309137018F819885FC01318320838B817D
S11329D0882341F08F819885FC018281938101973E
S11329E009F078944B855C858F81988529853A8593
S11329F0BA01F90109959D838C838FE590E0FC0170
S1132A00808180788E83F8948F819885FC0111826F
S1132A1010828F819885FC01828193819A838983B6
S1132A2089819A81892B91F089819A81019771F02A
S1132A308F819885FC011382128289819A81FC011D
S1132A401582148289819A810E94A8118B8188231E
S1132A5009F078948C819D812C960FB6F894DEBF92
S1132A600FBECDBFDF91CF910895CF93DF9300D0F8
S1132A70CDB7DEB71A8219821EC089819A81019668
S1132A8082959295907F9827807F98279C01255E58
S1132A903D4F89819A8182959295907F9827807F76
S1132AA09827855E9D4FFC013183208389819A811B
S1132AB001969A83898389819A810E97F4F2109200
S1132AC0FC021092FB021A82198220C089819A8129
S1132AD09C012F5F3F4F4DE1429FC001439F900DEA
S1132AE011249C012A593E4F49815A816DE1649F0A
S1132AF0C001659F900D11248A599E4FFC013183BA
S1132B00208389819A8101969A83898389819A8114
S1132B100397E4F21092BE011092BD011A82198249
S1132B2066C029813A814DE1429FC001439F900DC7
S1132B30112406968A599E4F0E94F61629813A81DD
S1132B404DE1429FC001439F900D112406968A597E
S1132B509E4F409649815A8160E6649F9001659F2B
S1132B60300D1124255F3C4F245A3F4FFC01318323
S1132B70208329813A814DE1429FC001439F900DFA
S1132B80112406968A599E4F429649815A8160E6DD
S1132B90649F9001659F300D1124255F3C4F245A9A
S1132BA03F4FFC013183208329813A814DE1429FCB
S1132BB0C001439F900D112406968A599E4F459655
S1132BC02BEC31E1FC013183208329813A814DE1F1
S1132BD0429FC001439F900D112486599E4FFC01D2
S1132BE01182108289819A8101969A8389838981CD
S1132BF09A8104970CF495CF1092FF011092FE0174
S1132C00109203021092020210920102109200022A
S1132C1081E690E020E8FC01208381E690E0FC015D
S1132C20108284E890E0FC011182108281E890E037
S1132C3024E0FC0120838FE690E021E0FC01208366
S1132C4000000F900F90DF91CF910895CF93DF9301
S1132C5000D000D000D0CDB7DEB79B838A837D83BC
S1132C606C834E838E81823150F58FE590E0FC01B8
S1132C70808180788983F8948E81882F90E0880FF2
S1132C80991F8E5B9E4F2A813B81FC0131832083F7
S1132C908E81882F90E0880F991F86529E4F2C8139
S1132CA03D81FC01318320838A819B8121E030E0D6
S1132CB0FC01338322838981882309F078940000FE
S1132CC026960FB6F894DEBF0FBECDBFDF91CF912D
S1132CD00895CF92DF92EF92FF920F931F93CF93B9
S1132CE0DF93CDB7DEB727970FB6F894DEBF0FBEDC
S1132CF0CDBF9B838A837D836C835F834E838FE503
S1132D0090E0FC01808180788983F8940E943515D5
S1132D1078948C819D81892B89F04E815F812C81EF
S1132D203D818A819B816A0179018C0120E030E038
S1132D30A90160E070E0CB010E94CA128FE590E027
S1132D40FC01808180788983F8940E94681280E075
S1132D5090E027960FB6F894DEBF0FBECDBFDF918B
S1132D60CF911F910F91FF90EF90DF90CF90089536
S1132D7097FB072E16F4009407D077FD09D00E9424
S1132D80D31607FC05D03EF4909581959F4F089586
S1132D90709561957F4F08950E94E716B7FF0895D7
S1132DA0821B930B0895AA1BBB1B51E107C0AA1FEA
S1132DB0BB1FA617B70710F0A61BB70B881F991FD8
S1132DC05A95A9F780959095BC01CD010895A29FCD
S1132DD0B001B39FC001A39F700D811D1124911DEB
S1132DE0B29F700D811D1124911D0895DC012D9257
S1132DF03D924D925D926D927D928D929D92AD9297
S1132E00BD92CD92DD92ED92FD920D931D93CD93E3
S1132E10DD93FF91EF918DB78D938EB78D938FB71F
S1132E208D93ED93FD93882799270994DC01CB01B9
S1132E3081309105811D2D903D904D905D906D9058
S1132E407D908D909D90AD90BD90CD90DD90ED9056
S1132E50FD900D911D91CD91DD91ED91FD910D9020
S1132E60F894FEBF0FBEEDBFED91FD910994F89467
S1052E70FFCF8E
S1132E72010505010008000201010E0101010B0117
S1132E8200050B0001040B0100040F0101010900FC
S1132E9201050F0101050B000000010102020303F9
S10B2EA21B026601FE01FE01A2
S9030000FC
