S01100004C6162342D50726F6A2E7372656308
S11300000C942E000C9414020C9483020C94F202AF
S11300100C9461030C94D0030C944B000C94B60A1A
S11300200C944B000C94650A0C943F040C94AE049D
S11300300C941D050C948C050C94FB050C946A0619
S11300400C94D9060C9448070C94B7070C94260812
S11300500C9495080C9404090C94730911241FBE84
S1130060CFEFD4E0DEBFCDBF11E0A0E0B1E0E8E225
S1130070FBE102C005900D92A830B107D9F724E046
S1130080A8E0B1E001C01D92AB35B207E1F70E94D0
S1130090F4000C94920D0C94000021E0FC012483E4
S11300A040E050E068EE70E00C943E0CFC011482D9
S11300B040E050E068EE70E00C943E0CFC012481BA
S11300C040E050E068E271E0222311F0059601C09F
S11300D007960C943E0CFC01248140E050E062E35E
S11300E071E0222311F0059601C007960C943E0C92
S11300F0FC01848140E050E06BE371E0882319F057
S11301008581968102C0878190850C943E0CCF93A3
S1130110DF93EC01629906C040E050E06DE470E0CA
S11301200E943E0C639909C040E050E066E570E02F
S1130130CE01DF91CF910C943E0CDF91CF910895C5
S1130140CF93DF93EC011F9906C040E050E06BE6CB
S113015070E00E943E0C1E9907C040E050E06EE53E
S113016070E0CE010E943E0C1C9909C040E050E0B2
S113017068E770E0CE01DF91CF910C943E0CDF91E3
S1130180CF91089587EB8093E50087E08093E600A4
S11301908EE28093E70080E88093E40082E080931D
S11301A0F9001092FE0008952F9AEF9AECE6F0E021
S11301B08081806880830895CF93E1E6F0E0C0E811
S11301C0C08310820E94C200C4B9CF910C94D400A1
S11301D0E9EFF0E0908182E098279083EEEFF0E081
S11301E09081892780830895CF93DF93CDB7DEB7BD
S11301F029970FB6F894DEBF0FBECDBF1A821982BD
S11302001C821B821D821F821E82198618860E94F0
S1130210DC0042E067E870E0CE0101960E941B0D0D
S113022041E060EA70E0CE0101960E941B0D40E0BF
S113023050E060E070E080E090E00E94350D299687
S11302400FB6F894DEBF0FBECDBFDF91CF910895F6
S1130250FC0184819581833691051CF40196958374
S113026084830895FC0184819581009719F0019796
S1130270958384830895FC0184819581892B29F4D5
S1130280868197819583848302C015821482848138
S113029095810895CF93DF9300D000D0CDB7DEB71A
S11302A0EBEEF1E02BEC32E0CF01409691838083BA
S11302B0FC0182179307C1F71092CC021092CB0273
S11302C0E6E3F1E083E591E09183808380E791E0C8
S11302D0968F858FADE8B1E0B3AFA2AF1D921C92AB
S11302E0FA83E9831C821B8289819A8106960E9483
S11302F0510D8B819C81895C9C4FE981FA81978B9C
S1130300868B918F808F88EB9CE0948F838F1582EE
S113031014827D96FA83E983EB81FC81E05AFF4FD6
S1130320FC83EB83E038F140F9F6EEECF1E0118266
S113033010821582148213821282E1E6F0E080E8D2
S113034080831082109285001092840084E0809350
S1130350810081E080936F000F900F900F900F90B9
S1130360DF91CF910895CF93DF9300D0CDB7DEB75F
S11303709A838983809100019091010106960E94DD
S1130380510D892B59F489819A81909301018093AD
S1130390000161E070E006960E94710D0F900F90CD
S11303A0DF91CF9108950F931F93CF93DF93C09163
S11303B01001D0911101209791F180910401909145
S11303C00501009761F1E0910201F0910301A2811E
S11303D0B381109781F04E815F8168857985169687
S11303E00D911D912D913C911997401B510B620B5E
S11303F0730B77FF14C0DC012D913C91119730935E
S1130400050120930401ED93FC93909303018093E1
S11304100201DF91CF911F910F910C94B301DF91F1
S1130420CF911F910F9108951F920F920FB60F92C3
S113043011240F931F932F933F934F935F936F93C5
S11304407F938F939F93AF93BF93EF93FF93809189
S11304500801909109010091840010918500AC017C
S1130460092E000C660B770BBA015527442720E0B0
S113047030E0402B512B622B732B40930A01509395
S11304800B0160930C0170930D01B09B1AC0409155
S11304908400509185000196092E000CAA0BBB0B19
S11304A0DC019927882760E070E0842B952BA62B2C
S11304B0B72B80930A0190930B01A0930C01B09386
S11304C00D01E091AA01F091AB01309739F060E0A1
S11304D070E0809112019091130109950E94D3015B
S11304E0FF91EF91BF91AF919F918F917F916F9108
S11304F05F914F913F912F911F910F910F900FBEDC
S11305000F901F9018951F920F920FB60F921124FF
S11305100F931F932F933F934F935F936F937F9307
S11305208F939F93AF93BF93EF93FF9380910801B1
S1130530909109010091840010918500AC01092E6D
S1130540000C660B770BBA015527442720E030E0F6
S1130550402B512B622B732B40930A0150930B01B8
S113056060930C0170930D01B09B1AC040918400FC
S1130570509185000196092E000CAA0BBB0BDC01DF
S11305809927882760E070E0842B952BA62BB72B46
S113059080930A0190930B01A0930C01B0930D0179
S11305A0E091AC01F091AD01309739F061E070E079
S11305B0809114019091150109950E94D301FF9136
S11305C0EF91BF91AF919F918F917F916F915F91C7
S11305D04F913F912F911F910F910F900FBE0F904C
S11305E01F9018951F920F920FB60F9211240F931C
S11305F01F932F933F934F935F936F937F938F93A7
S11306009F93AF93BF93EF93FF93809108019091D1
S113061009010091840010918500AC01092E000CA1
S1130620660B770BBA015527442720E030E0402BB6
S1130630512B622B732B40930A0150930B0160934F
S11306400C0170930D01B09B1AC04091840050912D
S113065085000196092E000CAA0BBB0BDC0199271F
S1130660882760E070E0842B952BA62BB72B809312
S11306700A0190930B01A0930C01B0930D01E0913A
S1130680AE01F091AF01309739F062E070E08091F3
S113069016019091170109950E94D301FF91EF91E2
S11306A0BF91AF919F918F917F916F915F914F9186
S11306B03F912F911F910F910F900FBE0F901F909C
S11306C018951F920F920FB60F9211240F931F9338
S11306D02F933F934F935F936F937F938F939F9346
S11306E0AF93BF93EF93FF93809108019091090119
S11306F00091840010918500AC01092E000C660B5A
S1130700770BBA015527442720E030E0402B512BCA
S1130710622B732B40930A0150930B0160930C01DD
S113072070930D01B09B1AC04091840050918500D4
S11307300196092E000CAA0BBB0BDC019927882714
S113074060E070E0842B952BA62BB72B80930A01D5
S113075090930B01A0930C01B0930D01E091B001B3
S1130760F091B101309739F063E070E080911801A5
S11307709091190109950E94D301FF91EF91BF91C6
S1130780AF919F918F917F916F915F914F913F9125
S11307902F911F910F910F900FBE0F901F901895DE
S11307A01F920F920FB60F9211240F931F932F9342
S11307B03F934F935F936F937F938F939F93AF93E5
S11307C0BF93EF93FF9380910801909109010091E9
S11307D0840010918500AC01092E000C660B770B88
S11307E0BA015527442720E030E0402B512B622BDF
S11307F0732B40930A0150930B0160930C01709387
S11308000D01B09B1AC0409184005091850001965F
S1130810092E000CAA0BBB0BDC019927882760E08A
S113082070E0842B952BA62BB72B80930A01909311
S11308300B01A0930C01B0930D01E091B201F09172
S1130840B301309739F064E070E080911A0190911F
S11308501B0109950E94D301FF91EF91BF91AF91C4
S11308609F918F917F916F915F914F913F912F91C4
S11308701F910F910F900FBE0F901F9018951F920C
S11308800F920FB60F9211240F931F932F933F9340
S11308904F935F936F937F938F939F93AF93BF9384
S11308A0EF93FF93809108019091090100918400D6
S11308B010918500AC01092E000C660B770BBA0170
S11308C05527442720E030E0402B512B622B732B1B
S11308D040930A0150930B0160930C0170930D0136
S11308E0B09B1AC040918400509185000196092E56
S11308F0000CAA0BBB0BDC019927882760E070E091
S1130900842B952BA62BB72B80930A0190930B0174
S1130910A0930C01B0930D01E091B401F091B501E5
S1130920309739F065E070E080911C0190911D01D1
S113093009950E94D301FF91EF91BF91AF919F91CF
S11309408F917F916F915F914F913F912F911F9163
S11309500F910F900FBE0F901F9018951F920F923A
S11309600FB60F9211240F931F932F933F934F931E
S11309705F936F937F938F939F93AF93BF93EF9303
S1130980FF938091080190910901009184001091D6
S11309908500AC01092E000C660B770BBA015527B4
S11309A0442720E030E0402B512B622B732B4093E3
S11309B00A0150930B0160930C0170930D01B09BDD
S11309C01AC040918400509185000196092E000CB4
S11309D0AA0BBB0BDC019927882760E070E0842B0D
S11309E0952BA62BB72B80930A0190930B01A09310
S11309F00C01B0930D01E091B601F091B70130976D
S1130A0039F066E070E080911E0190911F01099514
S1130A100E94D301FF91EF91BF91AF919F918F916C
S1130A207F916F915F914F913F912F911F910F9102
S1130A300F900FBE0F901F9018951F920F920FB634
S1130A400F9211240F931F932F933F934F935F9310
S1130A506F937F938F939F93AF93BF93EF93FF9382
S1130A608091080190910901009184001091850002
S1130A70AC01092E000C660B770BBA0155274427ED
S1130A8020E030E0402B512B622B732B40930A0162
S1130A9050930B0160930C0170930D01B09B1AC02D
S1130AA040918400509185000196092E000CAA0BF8
S1130AB0BB0BDC019927882760E070E0842B952B21
S1130AC0A62BB72B80930A0190930B01A0930C01E2
S1130AD0B0930D01E091B801F091B901309739F06C
S1130AE067E070E0809120019091210109950E94B6
S1130AF0D301FF91EF91BF91AF919F918F917F911E
S1130B006F915F914F913F912F911F910F910F9092
S1130B100FBE0F901F9018951F920F920FB60F9251
S1130B2011240F931F932F933F934F935F936F93CE
S1130B307F938F939F93AF93BF93EF93FF93809192
S1130B400801909109010091840010918500AC0185
S1130B50092E000C660B770BBA015527442720E0B9
S1130B6030E0402B512B622B732B40930A0150939E
S1130B700B0160930C0170930D01B09B1AC040915E
S1130B808400509185000196092E000CAA0BBB0B22
S1130B90DC019927882760E070E0842B952BA62B35
S1130BA0B72B80930A0190930B01A0930C01B0938F
S1130BB00D01E091BA01F091BB01309739F068E082
S1130BC070E0809122019091230109950E94D30144
S1130BD0FF91EF91BF91AF919F918F917F916F9111
S1130BE05F914F913F912F911F910F910F900FBEE5
S1130BF00F901F9018951F920F920FB60F92112409
S1130C000F931F932F933F934F935F936F937F9310
S1130C108F939F93AF93BF93EF93FF9380910801BA
S1130C20909109010091840010918500AC01092E76
S1130C30000C660B770BBA015527442720E030E0FF
S1130C40402B512B622B732B40930A0150930B01C1
S1130C5060930C0170930D01B09B1AC04091840005
S1130C60509185000196092E000CAA0BBB0BDC01E8
S1130C709927882760E070E0842B952BA62BB72B4F
S1130C8080930A0190930B01A0930C01B0930D0182
S1130C90E091BC01F091BD01309739F069E070E05A
S1130CA0809124019091250109950E94D301FF911F
S1130CB0EF91BF91AF919F918F917F916F915F91D0
S1130CC04F913F912F911F910F910F900FBE0F9055
S1130CD01F9018951F920F920FB60F9211240F9325
S1130CE01F932F933F934F935F936F937F938F93B0
S1130CF09F93AF93BF93EF93FF93809108019091DB
S1130D0009010091840010918500AC01092E000CAA
S1130D10660B770BBA015527442720E030E0402BBF
S1130D20512B622B732B40930A0150930B01609358
S1130D300C0170930D01B09B1AC040918400509136
S1130D4085000196092E000CAA0BBB0BDC01992728
S1130D50882760E070E0842B952BA62BB72B80931B
S1130D600A0190930B01A0930C01B0930D01E09143
S1130D70BE01F091BF01309739F06AE070E08091D4
S1130D8026019091270109950E94D301FF91EF91CB
S1130D90BF91AF919F918F917F916F915F914F918F
S1130DA03F912F911F910F910F900FBE0F901F90A5
S1130DB018951F920F920FB60F9211240F931F9341
S1130DC02F933F934F935F936F937F938F939F934F
S1130DD0AF93BF93EF93FF93809108019091090122
S1130DE00091840010918500AC01092E000C660B63
S1130DF0770BBA015527442720E030E0402B512BD4
S1130E00622B732B40930A0150930B0160930C01E6
S1130E1070930D01B09B1AC04091840050918500DD
S1130E200196092E000CAA0BBB0BDC01992788271D
S1130E3060E070E0842B952BA62BB72B80930A01DE
S1130E4090930B01A0930C01B0930D01E091C001AC
S1130E50F091C101309739F06BE070E08091280186
S1130E609091290109950E94D301FF91EF91BF91BF
S1130E70AF919F918F917F916F915F914F913F912E
S1130E802F911F910F910F900FBE0F901F901895E7
S1130E901F920F920FB60F9211240F931F932F934B
S1130EA03F934F935F936F937F938F939F93AF93EE
S1130EB0BF93EF93FF9380910801909109010091F2
S1130EC0840010918500AC01092E000C660B770B91
S1130ED0BA015527442720E030E0402B512B622BE8
S1130EE0732B40930A0150930B0160930C01709390
S1130EF00D01B09B1AC04091840050918500019669
S1130F00092E000CAA0BBB0BDC019927882760E093
S1130F1070E0842B952BA62BB72B80930A0190931A
S1130F200B01A0930C01B0930D01E091C201F0916B
S1130F30C301309739F06CE070E080912A01909100
S1130F402B0109950E94D301FF91EF91BF91AF91BD
S1130F509F918F917F916F915F914F913F912F91CD
S1130F601F910F910F900FBE0F901F9018951F9215
S1130F700F920FB60F9211240F931F932F933F9349
S1130F804F935F936F937F938F939F93AF93BF938D
S1130F90EF93FF93809108019091090100918400DF
S1130FA010918500AC01092E000C660B770BBA0179
S1130FB05527442720E030E0402B512B622B732B24
S1130FC040930A0150930B0160930C0170930D013F
S1130FD0B09B1AC040918400509185000196092E5F
S1130FE0000CAA0BBB0BDC019927882760E070E09A
S1130FF0842B952BA62BB72B80930A0190930B017E
S1131000A0930C01B0930D01E091C401F091C501CE
S1131010309739F06DE070E080912C0190912D01B2
S113102009950E94D301FF91EF91BF91AF919F91D8
S11310308F917F916F915F914F913F912F911F916C
S11310400F910F900FBE0F901F9018951F920F9243
S11310500FB60F9211240F931F932F933F934F9327
S11310605F936F937F938F939F93AF93BF93EF930C
S1131070FF938091080190910901009184001091DF
S11310808500AC01092E000C660B770BBA015527BD
S1131090442720E030E0402B512B622B732B4093EC
S11310A00A0150930B0160930C0170930D01B09BE6
S11310B01AC040918400509185000196092E000CBD
S11310C0AA0BBB0BDC019927882760E070E0842B16
S11310D0952BA62BB72B80930A0190930B01A09319
S11310E00C01B0930D01E091C601F091C701309756
S11310F039F06EE070E080912E0190912F010995F6
S11311000E94D301FF91EF91BF91AF919F918F9175
S11311107F916F915F914F913F912F911F910F910B
S11311200F900FBE0F901F9018951F920F920FB63D
S11311300F9211240F931F932F933F934F935F9319
S11311406F937F938F939F93AF93BF93EF93FF938B
S1131150809108019091090100918400109185000B
S1131160AC01092E000C660B770BBA0155274427F6
S113117020E030E0402B512B622B732B40930A016B
S113118050930B0160930C0170930D01B09B1AC036
S113119040918400509185000196092E000CAA0B01
S11311A0BB0BDC019927882760E070E0842B952B2A
S11311B0A62BB72B80930A0190930B01A0930C01EB
S11311C0B0930D01E091C801F091C901309739F055
S11311D06FE070E0809130019091310109950E9497
S11311E0D301FF91EF91BF91AF919F918F917F9127
S11311F06F915F914F913F912F911F910F910F909C
S11312000FBE0F901F9018951F920F920FB60F925A
S113121011240F931F932F933F934F935F936F93D7
S11312207F938F939F93AF93BF93EF93FF9380919B
S11312300801909109010091840010918500AC018E
S1131240092E000C660B770BBA015527442720E0C2
S113125030E0402B512B622B732B40930A015093A7
S11312600B0160930C0170930D01B09B1AC0409167
S11312708400509185000196092E000CAA0BBB0B2B
S1131280DC019927882760E070E0842B952BA62B3E
S1131290B72B80930A0190930B01A0930C01B09398
S11312A00D01E091CA01F091CB01309739F060E172
S11312B070E0809132019091330109950E94D3012D
S11312C0FF91EF91BF91AF919F918F917F916F911A
S11312D05F914F913F912F911F910F910F900FBEEE
S11312E00F901F9018951F920F920FB60F92112412
S11312F00F931F932F933F934F935F936F937F931A
S11313008F939F93AF93BF93EF93FF9380910801C3
S1131310909109010091840010918500AC01092E7F
S1131320000C660B770BBA015527442720E030E008
S1131330402B512B622B732B40930A0150930B01CA
S113134060930C0170930D01B09B1AC0409184000E
S1131350509185000196092E000CAA0BBB0BDC01F1
S11313609927882760E070E0842B952BA62BB72B58
S113137080930A0190930B01A0930C01B0930D018B
S1131380E091CC01F091CD01309739F061E170E04A
S1131390809134019091350109950E94D301FF9108
S11313A0EF91BF91AF919F918F917F916F915F91D9
S11313B04F913F912F911F910F910F900FBE0F905E
S11313C01F901895CF92DF92EF92FF920F931F9385
S11313D0CF93DF93DB01ED91FC91A0E0B0E0309777
S11313E099F0C680D780E084F184EC010E811F81DE
S11313F0288539850C151D052E053F052CF0DF01C8
S11314000190F081E02DEBCFEC01F983E883109794
S113141021F4FB019183808302C08D939C93DF911F
S1131420CF911F910F91FF90EF90DF90CF9008958F
S1131430CF92DF92EF92FF920F931F93CF93DF939C
S1131440DB01ED91FC91A0E0B0E0309799F0C2800F
S1131450D380E480F580EC010A811B812C813D81DD
S11314600C151D052E053F052CF0DF010190F081C0
S1131470E02DEBCFEC01F983E883109721F4FB0115
S11314809183808302C08D939C93DF91CF911F91B0
S11314900F91FF90EF90DF90CF900895DC01ED91D4
S11314A0FC911197309759F48FEF8093EC0080935F
S11314B0ED008093EE0081E083BF8895FDCF20810D
S11314C031812D933C93CF0108951F920F920FB653
S11314D00F9211242F933F934F935F938F939F9376
S11314E0AF93BF93EF93FF932091080130910901CB
S11314F02F5F3F4F3093090120930801E0910E01C3
S1131500F0910F013097F1F082819381A481B5812C
S11315102A173B07B9F49C0140918400509185003F
S1131520841B950B019731F4209184003091850040
S11315302F5F3F4F309389002093880080916F0084
S1131540826003C080916F008D7F80936F00FF9154
S1131550EF91BF91AF919F918F915F914F913F9187
S11315602F910F900FBE0F901F9018951F920F92FE
S11315700FB60F921124CF92DF92EF92FF922F9326
S11315803F934F935F936F937F938F939F93AF9307
S1131590BF93EF93FF938091080190910901C0904C
S11315A08400D0908500B09B05C0C0908400D0908A
S11315B085000196092E000CAA0BBB0BDC019927B0
S11315C08827E12CF12CC82AD92AEA2AFB2AE0919F
S11315D00E01F0910F013097F9F082819381A4817B
S11315E0B581AC01BD014C195D096E097F09141662
S11315F01506160617064CF08EE091E00E944E0A7E
S113160060E171E00E94E209E2CF2091080130918B
S113161009012A173B07E1F080916F008D7F8093C9
S11316206F000E94D301FF91EF91BF91AF919F9101
S11316308F917F916F915F914F913F912F91FF9087
S1131640EF90DF90CF900F900FBE0F901F901895E2
S11316509C014091840050918500841B950B019757
S113166031F420918400309185002F5F3F4F3093F7
S113167089002093880080916F008260D0CF3F92D0
S11316804F925F926F927F928F929F92AF92BF928E
S1131690CF92DF92EF92FF920F931F93CF93DF933A
S11316A02B013C0149015A018FB78078382EF894F8
S11316B086E091E00E944E0AEC011B870A87FD86B2
S11316C0EC86DF86CE86332061F0E0910001F09154
S11316D001010280F381E02D82819381A481B5818F
S11316E008C080910A0190910B01A0910C01B09166
S11316F00D01480E591E6A1E7B1E4A825B826C8253
S11317007D82181419041A041B0434F088248A9462
S1131710982CA82C5FE7B52E840C951CA61CB71C2E
S11317208E829F82A886B9868091080190910901D2
S11317302091840030918500B09B05C020918400E5
S1131740309185000196092E000CAA0BBB0BDC011D
S113175099278827A90160E070E0842B952BA62B9C
S1131760B72B481A590A6A0A7B0A1414150416047A
S11317701704ACF56EE071E0CE010E94180AE09106
S11317800E01F0910F01309711F182819381A481B0
S1131790B58120910801309109012A173B07B9F45A
S11317A09C014091840050918500841B950B019706
S11317B031F420918400309185002F5F3F4F3093A6
S11317C089002093880080916F00826003C080911B
S11317D06F008D7F80936F0031103CC03CC060E18E
S11317E071E0CE010E94E2093320A9F18091040145
S11317F090910501009771F1E0910201F0910301CC
S1131800209110013091110102811381D9011696A2
S11318104D915D916D917C911997D80116960D911A
S11318201D912D913C911997401B510B620B730B29
S113183077FF10C0DC012D913C9111973093050185
S113184020930401ED93FC93909303018093020190
S11318500E94B3017894CE01DF91CF911F910F9133
S1131860FF90EF90DF90CF90BF90AF909F908F90BC
S11318707F906F905F904F903F900895CF92DF924A
S1131880FF920F931F93CF93DF93EC018B016A01B7
S11318908FB78078F82EF894888199810097A1F108
S11318A0DC011496ED91FC911597309719F0808125
S11318B09181F6CFE0910001F09101018E179F070D
S11318C021F0FF2009F448C005C0FF2009F444C0FA
S11318D0789442C0AA81BB81109721F015961C927E
S11318E01E921497FB83EA83D583C4830E94B301B9
S11318F0E0910001F091010182819381892B21F40F
S1131900789480E090E02CC08091000190910101D6
S113191099838883FF2029F08A819B81019709F0AC
S11319207894B601CE01F80109958C018FB7F8942B
S1131930198218828A819B818230910548F01B822A
S11319401A82DC0115961C921E9214970E94B30110
S1131950FF2029F0789403C08FEF9FEF01C0C801E6
S1131960DF91CF911F910F91FF90DF90CF90089559
S1131970009100011091010180E191E00E944E0A62
S1131980EC01D80113969C938E93129778944E850C
S11319905F856C857D858A859B850E943E0C8FB70B
S11319A0F894809106019091070199838883D093DC
S11319B00701C0930601E0910201F09103018081C7
S11319C09181EC01AA81BB81C0911001D0911101D8
S11319D02097B1F0109761F24E815F816885798517
S11319E016960D911D912D913C911997401B510B09
S11319F0620B730B14161506160617060CF0B8CFF7
S1131A009093030180930201209104013091050118
S1131A1031832083F0930501E0930401DC011496E3
S1131A20ED91FC911597309719F080819181F6CF53
S1131A300E94B3019DCF4231B8F42FB7F89450E01F
S1131A40440F551FFA01EE5EFE4F91838083FA0125
S1131A50E655FE4F7183608341E050E0FC015383FF
S1131A60428327FF01C0789408958C017B016A01A9
S1131A708FB7F8940E944A017894E114F10441F07C
S1131A8020E030E0A90160E070E0CB010E943F0B50
S1131A908FB7F8940E94D301789481E083BF88952E
S1131AA0FDCFDC012D923D924D925D926D927D921F
S1131AB08D929D92AD92BD92CD92DD92ED92FD926A
S1131AC00D931D93CD93DD93FF91EF918DB78D937E
S1131AD08EB78D938FB78D93ED93FD9388279927B8
S1131AE00994DC01CB0181309105811D2D903D903D
S1131AF04D905D906D907D908D909D90AD90BD903A
S1131B00CD90DD90ED90FD900D911D91CD91DD91E5
S1131B10ED91FD910D90F894FEBF0FBEEDBFED91D8
S10B1B20FD910994F894FFCF34
S10B1B28CE01CE013601EB01F0
S9030000FC
