S01100004C6162352D50726F6A2E7372656307
S11300000C942E000C9456040C94C5040C943405E2
S11300100C94A3050C9412060C944B000C947D0CC8
S11300200C944B000C942B0C0C9481060C94F0064D
S11300300C945F070C94CE070C943D080C94AC0808
S11300400C941B090C948A090C94F9090C94680A01
S11300500C94D70A0C94460B0C94B50B11241FBEB8
S1130060CFEFD4E0DEBFCDBF11E0A0E0B1E0EAE322
S1130070FFE102C005900D92A234B107D9F724E044
S1130080A2E4B1E001C01D92A539B207E1F70E94D4
S113009077020C949B0F0C940000CF92DF92EF92A6
S11300A0FF920F931F93FC0124853585215031095C
S11300B03587248706811781F801D084CD2CC79415
S11300C0CC24C7942F77C22A8D2D86958370D82E81
S11300D00F2EF1E4EF2EF2E0FF2EF02D20E030E0C1
S11300E0A90160E070E0CB010E941D0D80E090E06A
S11300F01F910F91FF90EF90DF90CF900895CF92D2
S1130100DF92EF92FF920F931F936130710521F5F7
S1130110FC01208531852F5F3F4F31872087068181
S11301201781F801D480CD2CC794CC24C7942F77A1
S1130130C22A8D2D86958370D82E0F2EF1E4EF2ED2
S1130140F2E0FF2EF02D20E030E0A90160E070E045
S1130150CB010E941D0D25C0672B19F5FC012285DA
S113016033852F5F3F4F3387228706811781F8013C
S1130170D680CD2CC794CC24C7942F77C22A8D2D3A
S113018086958370D82E0F2EF1E4EF2EF2E0FF2E29
S1130190F02D20E030E0A90160E070E0CB010E9486
S11301A01D0D80E090E01F910F91FF90EF90DF9084
S11301B0CF900895CF92DF92EF92FF920F931F9307
S11301C0CF93DF93EC016130710511F58885998532
S11301D00197998788870E811F81F801D480CD2CDF
S11301E0C794CC24C7948F77C82A8D2D86958370A5
S11301F0D82E0F2EF1E4EF2EF2E0FF2EF02D20E0AA
S113020030E0A90160E070E0CB010E941D0D23C025
S1130210672B09F58A859B8501979B878A870E81C1
S11302201F81F801D680CD2CC794CC24C7948F7736
S1130230C82A8D2D86958370D82E0F2EF1E4EF2ECB
S1130240F2E0FF2EF02D20E030E0A90160E070E044
S1130250CB010E941D0D8E859F8501969F878E87F9
S11302608C859D8501969D878C870E811F81F80161
S1130270D084CD2CC794CC24C7948F77C82A8D2DD5
S113028086958370D82E0F2EF1E4EF2EF2E0FF2E28
S1130290F02D20E030E0A90160E070E0CB010E9485
S11302A01D0DC12CD12C0F2EFDE4EF2EF0E0FF2EFE
S11302B0F02D8E0120E030E0A9016AE572E682E0CB
S11302C090E00E941D0D80E090E0DF91CF911F919E
S11302D00F91FF90EF90DF90CF90089562307105F9
S11302E089F024F46130710541F01AC0643071055D
S11302F071F06830710581F013C061E070E00E9414
S11303007F000EC061E070E00E94DA0009C060E086
S113031070E00E947F0004C060E070E00E94DA0098
S113032080E090E0089580EC8093E40087EB809374
S1130330E50087E08093E6008FE08093E700109269
S1130340C50083E38093C40088E98093C10086E0FC
S11303508093C2000895CF92DF92EF92FF920F93A1
S11303601F93C090C600FC0104811581D12C0F2E6F
S1130370FEE6EF2EF1E0FF2EF02D20E030E0A901A3
S113038060E070E0CB010E941D0D80E090E01F91C1
S11303900F91FF90EF90DF90CF9008956630710534
S11303A008F06EC0803308F46BC08A3308F068C06C
S11303B0FB01EE5EFE4FE081F0E0E451FF4FA82F19
S11303C0B0E0D09761707078772334F4615071098C
S11303D06E6F7F6F6F5F7F4F6130710571F4808145
S11303E08F70808385818F70858382858F708287EB
S11303F087858F70878724E00DC08081807F80830C
S11304008581807F85838285807F82878785807FC1
S1130410878720E0AA0FBB1FAA0FBB1FA65EBE4F93
S11304208C9190E0022E02C0880F991F0A94E2F783
S11304309081892B808311968C91119790E0022EE4
S113044002C0880F991F0A94E2F79581892B85834E
S113045012968C91129790E0022E02C0880F991F79
S11304600A94E2F79285892B828713968C9190E007
S113047002C0880F991F2A95E2F79785892B8787F1
S11304800895EF92FF920F931F93CF93DF93C62F9C
S1130490CC1FCC27CC1F7370770F7C2BC72FD0E0D9
S11304A06F77062F10E0C80164E670E00E94320FF7
S11304B00F2EFAE0EF2EF12CF02DB7010E94320F2F
S11304C0862FBE01805D0E94CE012196C801B7012E
S11304D00E94320FBE01805D0E94CE0180E090E058
S11304E0DF91CF911F910F91FF90EF9008950F939B
S11304F01F93CF93DF93CDB7DEB7A7970FB6F894CA
S1130500DEBF0FBECDBF0E9493012AE0E8E0F1E018
S1130510CE010196DC0101900D922A95E1F71C862B
S11305201B861E861D86188A1F861A8A198A9E01B2
S1130530255F3F4F3C8B2B8B9E8B8D8B188E1F8A98
S11305401A8E198E1C8E1B8E1E8E1D8E1F8E18A247
S113055081E089A31BA21AA21DA21CA28E01015F25
S11305601F4F1FA30EA348E06BEA71E0CE018296F1
S11305700E94000F40E050E06AED70E0C8010E9464
S11305801B0FA7960FB6F894DEBF0FBECDBFDF9149
S1130590CF911F910F910895CF93DF9300D000D096
S11305A0CDB7DEB780E090E018C0AC014F5F5F4F7D
S11305B09A0122953295307F3227207F32272B5D96
S11305C03D4F82959295907F9827807F9827FC01D4
S11305D0EB5DFD4F31832083CA018E3091052CF3EE
S11305E0109206031092050380E090E015C0AC0160
S11305F04F5F5F4F6DE1649F9001659F300D112443
S113060020593E4F689FF001699FF00D1124E05975
S1130610FE4F31832083CA018330910544F3109245
S1130620C8011092C7011A82198232C02DE1498192
S11306305A81249FC001259F900D1124FC01EA5882
S1130640FE4FFC83EB83CF010E945A0F20E64981C1
S11306505A81249FC001259F900D11248F589C4FCF
S1130660EB81FC81918B808B938B828B88EA9EE05B
S1130670968B858B8DE1849FF001859FF00D11246D
S1130680E059FE4F158214824F5F5F4F5A834983AE
S113069029813A81243031054CF2E8E0F2E01182FC
S11306A010821582148213821282E1E6F0E080E85F
S11306B080831082109285001092840084E08093DD
S11306C0810081E080936F000F900F900F900F9046
S11306D0DF91CF910895CF93DF9300D0CDB7DEB7EC
S11306E09A838983809100019091010106960E946A
S11306F05A0F892B59F489819A819093010180932F
S1130700000161E070E006960E947A0F0F900F904E
S1130710DF91CF9108950F931F93CF93DF93DC0163
S1130720CB01EB01E881F981C0E0D0E004C0EF0126
S11307300190F081E02D309779F0068117812085B2
S1130740318516964D915D916D917C911997401765
S11307505107620773075CF71196FC93EE93209799
S113076021F4FC01B183A08302C0B983A883DF9183
S1130770CF911F910F9108950F931F93CF93DF9300
S1130780DC01CB01EB01E881F981C0E0D0E004C0D9
S1130790EF010190F081E02D309779F0028113810F
S11307A02481358112964D915D916D917C911597BF
S11307B040175107620773075CF71196FC93EE9399
S11307C0209721F4FC01B183A08302C0B983A883DC
S11307D0DF91CF911F910F910895DC01ED91FC9170
S11307E01197309759F48FEF8093EC008093ED00CC
S11307F08093EE0081E083BF8895FCCF2081318116
S11308002D933C93CF010895FB0120813181FC019C
S113081031832083FB01918380830895FB01208130
S11308203181FC0131832083FB019183808308950E
S1130830DC01ED91FC911197208131812D933C9342
S1130840CF010895CF93DF93E0910201F09103016A
S1130850C281D381E0914A01F0914B01309719F1A3
S11308608091040190910501892BE9F0209769F0AA
S113087086819781A085B1854E815F816885798560
S1130880841B950BA60BB70B72F484E091E00E94D5
S1130890180462E071E00E940E04809102019091BC
S11308A003010E946B03DF91CF9108951F920F9271
S11308B00FB60F9211240F931F932F933F934F93CF
S11308C05F936F937F938F939F93AF93BF93EF93B4
S11308D0FF938091420190914301AC01092E000CD9
S11308E0660B770B9A0111270027409184005091E1
S11308F0850060E070E0402B512B622B732B4093FA
S11309004401509345016093460170934701B09BA5
S11309101AC00196092E000CAA0BBB0BBC0155276B
S113092044278091840090918500A0E0B0E0842B5E
S1130930952BA62BB72B8093440190934501A0934C
S11309404601B0934701E091E401F091E50130974D
S113095039F060E070E080914C0190914D0109956F
S11309600E942204FF91EF91BF91AF919F918F91CB
S11309707F916F915F914F913F912F911F910F91B3
S11309800F900FBE0F901F9018951F920F920FB6E5
S11309900F9211240F931F932F933F934F935F93C1
S11309A06F937F938F939F93AF93BF93EF93FF9333
S11309B08091420190914301AC01092E000C660B19
S11309C0770B9A01112700274091840050918500EC
S11309D060E070E0402B512B622B732B4093440159
S11309E0509345016093460170934701B09B1AC030
S11309F00196092E000CAA0BBB0BBC0155274427FA
S1130A008091840090918500A0E0B0E0842B952B28
S1130A10A62BB72B8093440190934501A0934601E4
S1130A20B0934701E091E601F091E701309739F086
S1130A3061E070E080914E0190914F0109950E9410
S1130A402204FF91EF91BF91AF919F918F917F917C
S1130A506F915F914F913F912F911F910F910F9043
S1130A600FBE0F901F9018951F920F920FB60F9202
S1130A7011240F931F932F933F934F935F936F937F
S1130A807F938F939F93AF93BF93EF93FF93809143
S1130A90420190914301AC01092E000C660B770BC7
S1130AA09A0111270027409184005091850060E04D
S1130AB070E0402B512B622B732B409344015093D5
S1130AC045016093460170934701B09B1AC001969B
S1130AD0092E000CAA0BBB0BBC015527442780919F
S1130AE0840090918500A0E0B0E0842B952BA62B88
S1130AF0B72B8093440190934501A0934601B09392
S1130B004701E091E801F091E901309739F062E0A2
S1130B1070E0809150019091510109950E94220446
S1130B20FF91EF91BF91AF919F918F917F916F91C1
S1130B305F914F913F912F911F910F910F900FBE95
S1130B400F901F9018951F920F920FB60F921124B9
S1130B500F931F932F933F934F935F936F937F93C1
S1130B608F939F93AF93BF93EF93FF938091420131
S1130B7090914301AC01092E000C660B770B9A018E
S1130B8011270027409184005091850060E070E0B7
S1130B90402B512B622B732B4093440150934501FE
S1130BA06093460170934701B09B1AC00196092EC9
S1130BB0000CAA0BBB0BBC01552744278091840071
S1130BC090918500A0E0B0E0842B952BA62BB72B49
S1130BD08093440190934501A0934601B09347014B
S1130BE0E091EA01F091EB01309739F063E070E0B5
S1130BF0809152019091530109950E942204FF9122
S1130C00EF91BF91AF919F918F917F916F915F9180
S1130C104F913F912F911F910F910F900FBE0F9005
S1130C201F9018951F920F920FB60F9211240F93D5
S1130C301F932F933F934F935F936F937F938F9360
S1130C409F93AF93BF93EF93FF9380914201909151
S1130C504301AC01092E000C660B770B9A01112796
S1130C600027409184005091850060E070E0402BA3
S1130C70512B622B732B4093440150934501609395
S1130C80460170934701B09B1AC00196092E000CCF
S1130C90AA0BBB0BBC01552744278091840090917B
S1130CA08500A0E0B0E0842B952BA62BB72B809376
S1130CB0440190934501A0934601B0934701E0910C
S1130CC0EC01F091ED01309739F064E070E080912F
S1130CD054019091550109950E942204FF91EF91CE
S1130CE0BF91AF919F918F917F916F915F914F9140
S1130CF03F912F911F910F910F900FBE0F901F9056
S1130D0018951F920F920FB60F9211240F931F93F1
S1130D102F933F934F935F936F937F938F939F93FF
S1130D20AF93BF93EF93FF9380914201909143015E
S1130D30AC01092E000C660B770B9A0111270027D2
S1130D40409184005091850060E070E0402B512B6D
S1130D50622B732B409344015093450160934601E9
S1130D6070934701B09B1AC00196092E000CAA0B80
S1130D70BB0BBC01552744278091840090918500CA
S1130D80A0E0B0E0842B952BA62BB72B80934401D5
S1130D9090934501A0934601B0934701E091EE0181
S1130DA0F091EF01309739F065E070E080915601E1
S1130DB09091570109950E942204FF91EF91BF91F0
S1130DC0AF919F918F917F916F915F914F913F91DF
S1130DD02F911F910F910F900FBE0F901F90189598
S1130DE01F920F920FB60F9211240F931F932F93FC
S1130DF03F934F935F936F937F938F939F93AF939F
S1130E00BF93EF93FF938091420190914301AC0112
S1130E10092E000C660B770B9A01112700274091CD
S1130E2084005091850060E070E0402B512B622BD0
S1130E30732B409344015093450160934601709392
S1130E404701B09B1AC00196092E000CAA0BBB0BDC
S1130E50BC01552744278091840090918500A0E02F
S1130E60B0E0842B952BA62BB72B80934401909351
S1130E704501A0934601B0934701E091F001F09140
S1130E80F101309739F066E070E08091580190915B
S1130E90590109950E942204FF91EF91BF91AF91EE
S1130EA09F918F917F916F915F914F913F912F917E
S1130EB01F910F910F900FBE0F901F9018951F92C6
S1130EC00F920FB60F9211240F931F932F933F93FA
S1130ED04F935F936F937F938F939F93AF93BF933E
S1130EE0EF93FF938091420190914301AC01092E4D
S1130EF0000C660B770B9A011127002740918400A0
S1130F005091850060E070E0402B512B622B732BD5
S1130F104093440150934501609346017093470107
S1130F20B09B1AC00196092E000CAA0BBB0BBC0186
S1130F30552744278091840090918500A0E0B0E07B
S1130F40842B952BA62BB72B8093440190934501BA
S1130F50A0934601B0934701E091F201F091F301AF
S1130F60309739F067E070E080915A0190915B010D
S1130F7009950E942204FF91EF91BF91AF919F9137
S1130F808F917F916F915F914F913F912F911F911D
S1130F900F910F900FBE0F901F9018951F920F92F4
S1130FA00FB60F9211240F931F932F933F934F93D8
S1130FB05F936F937F938F939F93AF93BF93EF93BD
S1130FC0FF938091420190914301AC01092E000CE2
S1130FD0660B770B9A0111270027409184005091EA
S1130FE0850060E070E0402B512B622B732B409303
S1130FF04401509345016093460170934701B09BAF
S11310001AC00196092E000CAA0BBB0BBC01552774
S113101044278091840090918500A0E0B0E0842B67
S1131020952BA62BB72B8093440190934501A09355
S11310304601B0934701E091F401F091F501309736
S113104039F068E070E080915C0190915D01099550
S11310500E942204FF91EF91BF91AF919F918F91D4
S11310607F916F915F914F913F912F911F910F91BC
S11310700F900FBE0F901F9018951F920F920FB6EE
S11310800F9211240F931F932F933F934F935F93CA
S11310906F937F938F939F93AF93BF93EF93FF933C
S11310A08091420190914301AC01092E000C660B22
S11310B0770B9A01112700274091840050918500F5
S11310C060E070E0402B512B622B732B4093440162
S11310D0509345016093460170934701B09B1AC039
S11310E00196092E000CAA0BBB0BBC015527442703
S11310F08091840090918500A0E0B0E0842B952B32
S1131100A62BB72B8093440190934501A0934601ED
S1131110B0934701E091F601F091F701309739F06F
S113112069E070E080915E0190915F0109950E94F1
S11311302204FF91EF91BF91AF919F918F917F9185
S11311406F915F914F913F912F911F910F910F904C
S11311500FBE0F901F9018951F920F920FB60F920B
S113116011240F931F932F933F934F935F936F9388
S11311707F938F939F93AF93BF93EF93FF9380914C
S1131180420190914301AC01092E000C660B770BD0
S11311909A0111270027409184005091850060E056
S11311A070E0402B512B622B732B409344015093DE
S11311B045016093460170934701B09B1AC00196A4
S11311C0092E000CAA0BBB0BBC01552744278091A8
S11311D0840090918500A0E0B0E0842B952BA62B91
S11311E0B72B8093440190934501A0934601B0939B
S11311F04701E091F801F091F901309739F06AE084
S113120070E0809160019091610109950E9422042F
S1131210FF91EF91BF91AF919F918F917F916F91CA
S11312205F914F913F912F911F910F910F900FBE9E
S11312300F901F9018951F920F920FB60F921124C2
S11312400F931F932F933F934F935F936F937F93CA
S11312508F939F93AF93BF93EF93FF93809142013A
S113126090914301AC01092E000C660B770B9A0197
S113127011270027409184005091850060E070E0C0
S1131280402B512B622B732B409344015093450107
S11312906093460170934701B09B1AC00196092ED2
S11312A0000CAA0BBB0BBC0155274427809184007A
S11312B090918500A0E0B0E0842B952BA62BB72B52
S11312C08093440190934501A0934601B093470154
S11312D0E091FA01F091FB01309739F06BE070E096
S11312E0809162019091630109950E942204FF910B
S11312F0EF91BF91AF919F918F917F916F915F918A
S11313004F913F912F911F910F910F900FBE0F900E
S11313101F9018951F920F920FB60F9211240F93DE
S11313201F932F933F934F935F936F937F938F9369
S11313309F93AF93BF93EF93FF938091420190915A
S11313404301AC01092E000C660B770B9A0111279F
S11313500027409184005091850060E070E0402BAC
S1131360512B622B732B409344015093450160939E
S1131370460170934701B09B1AC00196092E000CD8
S1131380AA0BBB0BBC015527442780918400909184
S11313908500A0E0B0E0842B952BA62BB72B80937F
S11313A0440190934501A0934601B0934701E09115
S11313B0FC01F091FD01309739F06CE070E0809110
S11313C064019091650109950E942204FF91EF91B7
S11313D0BF91AF919F918F917F916F915F914F9149
S11313E03F912F911F910F910F900FBE0F901F905F
S11313F018951F920F920FB60F9211240F931F93FB
S11314002F933F934F935F936F937F938F939F9308
S1131410AF93BF93EF93FF93809142019091430167
S1131420AC01092E000C660B770B9A0111270027DB
S1131430409184005091850060E070E0402B512B76
S1131440622B732B409344015093450160934601F2
S113145070934701B09B1AC00196092E000CAA0B89
S1131460BB0BBC01552744278091840090918500D3
S1131470A0E0B0E0842B952BA62BB72B80934401DE
S113148090934501A0934601B0934701E091FE017A
S1131490F091FF01309739F06DE070E080916601C2
S11314A09091670109950E942204FF91EF91BF91E9
S11314B0AF919F918F917F916F915F914F913F91E8
S11314C02F911F910F910F900FBE0F901F901895A1
S11314D01F920F920FB60F9211240F931F932F9305
S11314E03F934F935F936F937F938F939F93AF93A8
S11314F0BF93EF93FF938091420190914301AC011C
S1131500092E000C660B770B9A01112700274091D6
S113151084005091850060E070E0402B512B622BD9
S1131520732B40934401509345016093460170939B
S11315304701B09B1AC00196092E000CAA0BBB0BE5
S1131540BC01552744278091840090918500A0E038
S1131550B0E0842B952BA62BB72B8093440190935A
S11315604501A0934601B0934701E0910002F09138
S11315700102309739F06EE070E08091680190913B
S1131580690109950E942204FF91EF91BF91AF91E7
S11315909F918F917F916F915F914F913F912F9187
S11315A01F910F910F900FBE0F901F9018951F92CF
S11315B00F920FB60F9211240F931F932F933F9303
S11315C04F935F936F937F938F939F93AF93BF9347
S11315D0EF93FF938091420190914301AC01092E56
S11315E0000C660B770B9A011127002740918400A9
S11315F05091850060E070E0402B512B622B732BDF
S11316004093440150934501609346017093470110
S1131610B09B1AC00196092E000CAA0BBB0BBC018F
S1131620552744278091840090918500A0E0B0E084
S1131630842B952BA62BB72B8093440190934501C3
S1131640A0934601B0934701E0910202F091030296
S1131650309739F06FE070E080916A0190916B01EE
S113166009950E942204FF91EF91BF91AF919F9140
S11316708F917F916F915F914F913F912F911F9126
S11316800F910F900FBE0F901F9018951F920F92FD
S11316900FB60F9211240F931F932F933F934F93E1
S11316A05F936F937F938F939F93AF93BF93EF93C6
S11316B0FF938091420190914301AC01092E000CEB
S11316C0660B770B9A0111270027409184005091F3
S11316D0850060E070E0402B512B622B732B40930C
S11316E04401509345016093460170934701B09BB8
S11316F01AC00196092E000CAA0BBB0BBC0155277E
S113170044278091840090918500A0E0B0E0842B70
S1131710952BA62BB72B8093440190934501A0935E
S11317204601B0934701E0910402F091050230971D
S113173039F060E170E080916C0190916D01099540
S11317400E942204FF91EF91BF91AF919F918F91DD
S11317507F916F915F914F913F912F911F910F91C5
S11317600F900FBE0F901F9018951F920F920FB6F7
S11317700F9211240F931F932F933F934F935F93D3
S11317806F937F938F939F93AF93BF93EF93FF9345
S11317908091420190914301AC01092E000C660B2B
S11317A0770B9A01112700274091840050918500FE
S11317B060E070E0402B512B622B732B409344016B
S11317C0509345016093460170934701B09B1AC042
S11317D00196092E000CAA0BBB0BBC01552744270C
S11317E08091840090918500A0E0B0E0842B952B3B
S11317F0A62BB72B8093440190934501A0934601F7
S1131800B0934701E0910602F0910702309739F056
S113181061E170E080916E0190916F0109950E94E1
S11318202204FF91EF91BF91AF919F918F917F918E
S11318306F915F914F913F912F911F910F910F9055
S11318400FBE0F901F9018950E942204789481E097
S113185083BF8895FCCF1F920F920FB60F9211246D
S11318602F933F934F935F936F937F938F939F93A4
S1131870EF93FF93809142019091430101969093DD
S1131880430180934201E0914801F091490130976E
S113189001F1428153816481758186179707C9F4E8
S11318A0CA012091840030918500421B530B4130C2
S11318B0510529F4809184009091850001969093BC
S11318C0890080938800EFE6F0E080818260808365
S11318D005C0EFE6F0E080818D7F8083FF91EF917A
S11318E09F918F917F916F915F914F913F912F9134
S11318F00F900FBE0F901F9018951F920F920FB666
S11319000F921124CF92DF92EF92FF922F933F9385
S11319104F935F936F937F938F939F93AF93BF93F3
S1131920EF93FF9380914201909143016C01092E42
S1131930000CEE08FF087601DD24CC2440918400DD
S11319405091850060E070E0C42AD52AE62AF72A7F
S1131950B09B1EC06C012FEFC21AD20A0D2C000CD2
S1131960EE08FF08D60199278827C0908400D090FC
S11319708500E12CF12CC82AD92AEA2AFB2A08C0BE
S113198088E491E00E94ED036AE471E00E948B0315
S1131990E0914801F0914901309769F08281938187
S11319A0A481B5818C199D09AE09BF0918161906C1
S11319B01A061B062CF7309721F182819381A481AA
S11319C0B58120914201309143012A173B07C9F4A4
S11319D09C014091840050918500841B950B0197D4
S11319E031F420918400309185002F5F3F4F309374
S11319F0890020938800EFE6F0E080818260808394
S1131A0005C0EFE6F0E080818D7F80830E94220490
S1131A10FF91EF91BF91AF919F918F917F916F91C2
S1131A205F914F913F912F91FF90EF90DF90CF9076
S1131A300F900FBE0F901F9018953F924F925F9298
S1131A406F927F928F929F92AF92BF92CF92DF92CA
S1131A50EF92FF920F931F93CF93DF932B013C01DF
S1131A6049015A018FB78078382EF89486E091E0C6
S1131A700E94ED03EC011B870A87FD86EC86DF8656
S1131A80CE86332061F0E0910001F09101010280E3
S1131A90F381E02D82819381A481B58108C0809176
S1131AA0440190914501A0914601B0914701480E2F
S1131AB0591E6A1E7B1E4A825B826C827D821814C8
S1131AC019041A041B0444F00F2E88248A94982CB9
S1131AD0A82CFFE7BF2EF02D840C951CA61CB71C68
S1131AE08E829F82A886B98620914201309143015B
S1131AF0C901032E000CAA0BBB0BDC019927882714
S1131B00409184005091850060E070E0842B952B17
S1131B10A62BB72BB09B13C0C9010196092E000C4C
S1131B20AA0BBB0BDC0199278827409184005091B4
S1131B30850060E070E0842B952BA62BB72B481A08
S1131B40590A6A0A7B0A1414150416041704ACF51E
S1131B5068E471E0CE010E94BC03E0914801F09179
S1131B604901309721F182819381A481B58120912B
S1131B704201309143012A173B07C9F49C0140916B
S1131B80840050918500841B950B019731F42091BA
S1131B908400309185002F5F3F4F3093890020935C
S1131BA08800EFE6F0E080818260808339C0EFE650
S1131BB0F0E080818D7F808333C06AE471E0CE01E0
S1131BC00E948B03332061F18091040190910501FF
S1131BD0892B31F1E0914A01F0914B018681978183
S1131BE0A085B185E0910201F09103010280F381A7
S1131BF0E02D4681578160857185841B950BA60B6A
S1131C00B70B72F484E091E00E94180462E071E082
S1131C100E940E0480910201909103010E946B03C3
S1131C20332009F07894CE01DF91CF911F910F9169
S1131C30FF90EF90DF90CF90BF90AF909F908F90E8
S1131C407F906F905F904F903F900895CF92DF9276
S1131C50EF92FF920F931F93CF93DF93EC017B01DD
S1131C606A011FB71078F894A881B981109719F404
S1131C7035C0A081B1811496ED91FC9115973097F0
S1131C80C1F72091000130910101A217B30711F0AF
S1131C90111107C0112309F44AC078948FEF9FEF04
S1131CA04EC08A819B81009719F0FC011582148231
S1131CB03B832A83F901D583C483CD010E946B033E
S1131CC0E0910001F091010182819381892B31F42B
S1131CD0112381F1789480E090E031C0809100017B
S1131CE09091010199838883112329F08A819B8132
S1131CF0019709F07894B601CE01F7010995F82E01
S1131D00092F8FB7F894198218828A819B818230B7
S1131D10910538F01B821A82FC01158214820E94FC
S1131D206B03112351F078948F2D902F08C08FEFFF
S1131D309FEF05C080E090E002C08F2D902FDF91CF
S1131D40CF911F910F91FF90EF90DF90CF90089566
S1131D5000910001109101018AE491E00E94ED03D9
S1131D60EC01F8019383828378946C857D854E859C
S1131D705F858A859B850E94260E8FB7F89466E05E
S1131D8071E0CE010E940404E0910201F09103018C
S1131D900190F081E02DC281D381E0914A01F0915C
S1131DA04B013097A1F0209799F286819781A08505
S1131DB0B1854E815F8168857985841B950BA60B5F
S1131DC0B70B181619061A061B060CF0C1CF82E0D1
S1131DD091E00E94180464E071E00E940E04A09156
S1131DE00201B091030102C0A081B1811496ED916A
S1131DF0FC9115973097C1F7CD010E946B03A8CFD2
S1131E00FC014231B8F49FB79078F89450E0440F45
S1131E10551FDA01A45BBE4FED93FC93DA01AC517C
S1131E20BE4F6D937C9321E030E03383228399236A
S1131E3009F0789408958C017B016A018FB7F894B6
S1131E400E94CC027894E114F10441F020E030E0E7
S1131E50A90160E070E0CB010E941D0D8FB7F894DA
S1131E600E94240C97FB072E16F4009407D077FDEC
S1131E7009D00E94460F07FC05D03EF49095819549
S1131E809F4F0895709561957F4F0895AA1BBB1BC2
S1131E9051E107C0AA1FBB1FA617B70710F0A61B66
S1131EA0B70B881F991F5A95A9F780959095BC0187
S1131EB0CD010895DC012D923D924D925D926D927B
S1131EC07D928D929D92AD92BD92CD92DD92ED92D6
S1131ED0FD920D931D93CD93DD93FF91EF918DB7FB
S1131EE08D938EB78D938FB78D93ED93FD93882744
S1131EF099270994DC01CB0181309105811D2D9036
S1131F003D904D905D906D907D908D909D90AD90A5
S1131F10BD90CD90DD90ED90FD900D911D91CD91F2
S1131F20DD91ED91FD910D90F894FEBF0FBEEDBFD4
S10D1F30ED91FD910994F894FFCFA0
S1131F3A08020802700125020000000004000000E3
S1131F4A0200000001010202030301050501000861
S1131F5A000201010E0101010B0100050B0001043D
S1131F6A0B0100040F010101090001050F0101051C
S1051F7A0B0056
S9030000FC
