S01100004C6162322D50726F6A2E737265630A
S11300000C942E000C944B000C944B000C945A044A
S11300100C944B000C944B000C944B000C948D04EA
S11300200C944B000C944B000C944B000C944B0020
S11300300C944B000C944B000C944B000C944B0010
S11300400C944B000C944B000C944B000C944B0000
S11300500C944B000C944B000C944B0011241FBEC9
S1130060CFEFD4E0DEBFCDBF11E0A0E0B1E0ECE71C
S1130070FAE002C005900D92A433B107D9F723E04A
S1130080A4E3B1E001C01D92AB35B207E1F70E94D1
S113009095020C943C050C940000CF93DF93CDB7EC
S11300A0DEB781E690E020E8FC01208381E690E061
S11300B0FC0110820000DF91CF910895CF93DF936C
S11300C0CDB7DEB785EE90E027EBFC01208386EE0A
S11300D090E027E0FC01208387EE90E02EE2FC0113
S11300E0208384EE90E020E8FC0120830000DF916F
S11300F0CF910895CF93DF93CDB7DEB729970FB68D
S1130100F894DEBF0FBECDBF8F837987688788855B
S1130110998599230CF409C18885998506970CF073
S113012004C18F81803308F400C18F818A3308F0C1
S1130130FCC088859985885D9E4FFC018081882F4D
S113014090E084519F4F9C838B838F81882F90E014
S1130150C0979E838D831A821982888599858170C0
S11301609078992324F401978E6F9F6F01960197DD
S113017099F584E090E09A8389838B819C81FC01CA
S11301808081282F2F708B819C81FC0120838B819F
S11301909C8105962B813C812B5F3F4FF901208187
S11301A02F70FC0120838B819C810A962B813C81DA
S11301B0265F3F4FF90120812F70FC0120838B8142
S11301C09C810F962B813C81215F3F4FF901208157
S11301D02F70FC0120832EC08B819C81FC018081C7
S11301E0282F207F8B819C81FC0120838B819C8123
S11301F005962B813C812B5F3F4FF9012081207FA5
S1130200FC0120838B819C810A962B813C81265F93
S11302103F4FF9012081207FFC0120838B819C8149
S11302200F962B813C81215F3F4FF9012081207F74
S1130230FC0120838D819E81880F991F880F991F4F
S113024080509F4FFC018081882F90E0098002C07C
S1130250880F991F0A94E2F7282F8B819C81FC0157
S11302608081822B282F8B819C81FC0120838B81B0
S11302709C8105962D813E81220F331F220F331F4F
S11302802F5F3E4FF9012081222F30E0098002C008
S1130290220F331F0A94E2F7422F2B813C812B5FFC
S11302A03F4FF9012081242BFC0120838B819C8109
S11302B00A962D813E81220F331F220F331F2E5F9A
S11302C03E4FF9012081222F30E0098002C0220F25
S11302D0331F0A94E2F7422F2B813C81265F3F4F64
S11302E0F9012081242BFC0120838B819C810F96B2
S11302F02D813E81220F331F220F331F2D5F3E4F6E
S1130300F9012081222F30E0098002C0220F331F1F
S11303100A94E2F7422F2B813C81215F3F4FF90180
S11303202081242BFC01208301C0000029960FB6F4
S1130330F894DEBF0FBECDBFDF91CF910895CF9368
S1130340DF93CDB7DEB728970FB6F894DEBF0FBEA4
S1130350CDBF6D837E838F83988782E090E0A0E099
S1130360B0E089839A83AB83BC831FC08D819E8157
S1130370AF81B88529813A814B815C81BC01CD0173
S11303800E94BA04DC01CB01892B8A2B8B2B11F43C
S113039080E019C089819A81AB81BC810196A11D3D
S11303A0B11D89839A83AB83BC8329813A814B81B4
S11303B05C818D819E81AF81B885281739074A07F2
S11303C05B07A4F281E028960FB6F894DEBF0FBE57
S11303D0CDBFDF91CF9108950F931F93CF93DF93F8
S11303E0CDB7DEB72A970FB6F894DEBF0FBECDBFE8
S11303F06D837E838F8398875A87498789859A85F9
S1130400909339018093380100913801109139019A
S11304108D819E81AF81B88524E630E040E050E0D4
S1130420BC01CD010E94BA04DC01CB012AE030E01A
S113043040E050E0BC01CD010E94BA04DA01C901D8
S1130440805DB8010E947A001A8219821C821B8284
S11304500AC089819A8101969A8389838B819C81C0
S113046001969C838B838B819C81883E93408CF383
S113047080913801909139010196909339018093CC
S1130480380100913801109139018D819E81AF812D
S1130490B8852AE030E040E050E0BC01CD010E9484
S11304A0BA04DC01CB01805DB8010E947A0000002F
S11304B02A960FB6F894DEBF0FBECDBFDF91CF9161
S11304C01F910F910895CF93DF9300D000D000D0F7
S11304D0CDB7DEB79E838D8381E090E0A0E0B0E0ED
S11304E089839A83AB83BC8389819A81AB81BC81E4
S11304F0BC01CD010E949F01882359F02D813E81CA
S113050089819A81AB81BC81A901BC01CD010E9482
S1130510EC0189819A81AB81BC810196A11DB11D39
S113052089839A83AB83BC83DFCFCF93DF93CDB72B
S1130530DEB70E945E000E944D0060E070E083E63A
S113054092E00E94C30383E090E00E94630280E093
S113055090E0DF91CF910895CF93DF9300D0CDB792
S1130560DEB71A82198220C089819A819C012F5F8B
S11305703F4F4DE6429FC001439F900D11249C01C3
S113058029553E4F49815A816DE6649FC001659F9C
S1130590900D112485559E4FFC0131832083898160
S11305A09A8101969A83898389819A810397E4F2D7
S11305B01092F3021092F20285E290E025E230E01C
S11305C0F90120812068FC0120838DE390E02DE374
S11305D030E0F90120812068FC0120838CE690E062
S11305E02CE630E0F90120812068FC01208380E8BA
S11305F090E020E830E0F9012081206CFC012083A8
S113060081E890E021E830E0F90120812D60FC01CF
S113061020838FE690E02FE630E0F901208122600C
S1130620FC012083F89488E890E027E831E0FC019D
S11306303183208384E890E0FC0111821082789455
S113064081E090E0909337018093360100000F9091
S11306500F90DF91CF910895CF93DF9300D000D016
S113066000D0CDB7DEB79C838B837E836D838B8173
S11306709C81FC01158214828D819E81FC01808104
S11306809181892B41F48D819E812B813C81FC01D8
S1130690318320831DC08D819E81FC0180819181E5
S11306A09A83898307C089819A81FC018481958119
S11306B09A83898389819A81FC0184819581892B1C
S11306C091F789819A812B813C81FC0135832483B4
S11306D0000026960FB6F894DEBF0FBECDBFDF91A3
S11306E0CF910895CF93DF9300D000D0CDB7DEB77C
S11306F09C838B838B819C81FC01808191819A8373
S113070089838B819C81FC0180819181892B71F08B
S11307108B819C81FC0180819181FC012481358144
S11307208B819C81FC013183208301C0FFCF8981AF
S11307309A810F900F900F900F90DF91CF910895B1
S1130740CF93DF9300D0CDB7DEB79A8389838091AE
S113075032019091330106960E94FB04892B69F4BF
S113076089819A81909333018093320189819A819E
S1130770069661E070E00E941B0500000F900F9048
S1130780DF91CF910895CF93DF9300D000D000D0B4
S1130790CDB7DEB79C838B837E836D83F894809181
S11307A0360190913701892B11F40E94AC0280E349
S11307B091E00E9472039A83898389819A812B81B3
S11307C03C81FC013183208389819A812D813E8182
S11307D0FC013383228389819A81FC01158214826E
S11307E089819A8106960E94FB04019701F5789409
S11307F08091320190913301FC01208131818091FB
S1130800320190913301FC0182819381F9010995B0
S1130810F894809132019091330160E371E00E9479
S11308202C0384E391E00E9472030E94A003898157
S11308309A810696409629813A81235E3F4F245B34
S11308403F4FFC013183208389819A810696429629
S113085029813A81235E3F4F245B3F4FFC01318362
S1130860208389819A8164E371E00E942C03789447
S1130870000026960FB6F894DEBF0FBECDBFDF9101
S1130880CF910895CF93DF93CDB7DEB7F8948091DD
S113089032019091330164E371E00E942C0384E3FC
S11308A091E00E9472030E94A00378940000DF91FB
S11308B0CF9108951F920F9200905F000F92112420
S11308C02F933F934F935F936F937F938F939F9354
S11308D0AF93BF93EF93FF93CF93DF93CDB7DEB77F
S11308E083E290E0FC018081882314F00E9442049A
S11308F00000DF91CF91FF91EF91BF91AF919F9154
S11309008F917F916F915F914F913F912F910F90B4
S113091000925F000F901F9018951F920F92009005
S11309205F000F9211242F933F934F935F936F9324
S11309307F938F939F93AF93BF93EF93FF93CF9343
S1130940DF93CDB7DEB70E9442040000DF91CF9160
S1130950FF91EF91BF91AF919F918F917F916F9193
S11309605F914F913F912F910F9000925F000F90F4
S11309701F901895052E97FB1EF400940E94D10435
S113098057FD07D00E94D90407FC03D04EF40C9401
S1130990D10450954095309521953F4F4F4F5F4F6F
S11309A0089590958095709561957F4F8F4F9F4FD7
S11309B00895A1E21A2EAA1BBB1BFD010DC0AA1F9C
S11309C0BB1FEE1FFF1FA217B307E407F50720F0B4
S11309D0A21BB30BE40BF50B661F771F881F991F2F
S11309E01A9469F760957095809590959B01AC0178
S11309F0BD01CF010895DC012D923D924D925D928F
S1130A006D927D928D929D92AD92BD92CD92DD922A
S1130A10ED92FD920D931D93CD93DD93FF91EF9194
S1130A208DB78D938EB78D938FB78D93ED93FD9383
S1130A30882799270994DC01CB0181309105811D18
S1130A402D903D904D905D906D907D908D909D90FA
S1130A50AD90BD90CD90DD90ED90FD900D911D91E8
S1130A60CD91DD91ED91FD910D90F894FEBF0FBEF7
S10F0A70EDBFED91FD910994F894FFCFC7
S1130A7C010505010008000201010E0101010B0131
S1130A8C00050B0001040B0100040F010101090016
S1130A9C01050F0101050B00000001010202030313
S1070AACA7013A015F
S9030000FC
