S01100004C6162322D50726F6A2E737265630A
S11300000C942E000C944B000C944B000C944B005D
S11300100C944B000C944B000C944B000C944B0030
S11300200C944B000C944B000C944B000C944B0020
S11300300C944B000C944B000C944B000C944B0010
S11300400C944B000C944B000C944B000C944B0000
S11300500C944B000C944B000C944B0011241FBEC9
S1130060CFEFD4E0DEBFCDBF11E0A0E0B1E0E6E326
S1130070F5E002C005900D92A433B107D9F723E04F
S1130080A4E3B1E001C01D92A935B207E1F70E94D3
S113009037010C9499020C94000087EB8093E500DF
S11300A087E08093E6008EE28093E70080E8809307
S11300B0E40008956630710508F059C090ED980F7A
S11300C09A3008F054C0FB01E050FF4FE081F0E0AB
S11300D0E451FF4FA82FB0E0D097808160FF0DC09E
S11300E08F70808385818F70858382858F708287EE
S11300F087858F70878794E00CC0807F808385819B
S1130100807F85838285807F82878785807F8787BC
S113011090E02081AA0FBB1FAA0FBB1FA45FBE4F94
S11301208C91092E01C0880F0A94EAF7822B8083F0
S1130130258111968C911197092E01C0880F0A947C
S1130140EAF7822B8583228512968C911297092EC9
S113015001C0880F0A94EAF7822B828727851396B9
S11301608C9101C0880F9A95EAF7822B87870895AE
S11301708F929F92AF92BF92CF92DF92EF92FF92B3
S11301804B015C0182E0C82ED12CE12CF12CC81467
S1130190D904EA04FB0484F4C501B401A70196015F
S11301A00E941702672B682B692B41F08FEFC81A46
S11301B0D80AE80AF80AEBCF81E001C080E0FF909A
S11301C0EF90DF90CF90BF90AF909F908F90089565
S11301D08F929F92AF92BF92CF92DF92EF92FF9253
S11301E0CF93DF934B015C01EA0124E630E040E069
S11301F050E00E9417022AE0C22ED12CE12CF12CEF
S1130200A70196010E941702BE0180E3820F0E949B
S11302105A002196C501B401A70196010E94170254
S1130220862FBE01805DDF91CF91FF90EF90DF902C
S1130230CF90BF90AF909F908F900C945A00EC0198
S1130240C12CD12C7601C394C701B6010E94B80019
S1130250882339F0AE01C701B6010E94E8000E946C
S1130260FF018FEFC81AD80AE80AF80AEDCF0E94F6
S11302704D0060E070E08FE191E00E947B0183E03B
S113028090E00E941F01DC0115961C921E921497A7
S1130290DB01ED91FC911197309719F48D939C93A8
S11302A00895248135812115310511F0F901F9CF23
S11302B0958384830895CF93DF9300D0CDB7DEB7C1
S11302C09A838983809108019091090106960E947E
S11302D05802892B59F489819A819093090180935A
S11302E0080161E070E006960E9478020F900F907A
S11302F0DF91CF910895CF93DF9300D0CDB7DEB7D0
S1130300F8942091340130913501232BE1F422E15A
S113031032E03093AA012093A9012FE732E0309311
S11303201702209316022CEE32E0309384022093BD
S113033083021092F1021092F00221E030E0309337
S113034035012093340120910A0130910B013A8345
S1130350298321153105A1F0F901248135813093D8
S11303600B0120930A019183808373836283158236
S11303701482CF0106960E945802019749F501C0E4
S1130380FFCF7894A0910801B0910901ED91FC91FF
S1130390119712968D919C9113970995F8946AE0A0
S11303A071E080910801909109010E9443018091BC
S11303B0360190913701009751F0FC012481358179
S11303C030933701209336010E945B0101C0FFCFB7
S11303D0E981FA81369689819A8187599F4F918B59
S11303E0808B938B828B66E371E089819A810E9472
S11303F0430178940F900F90DF91CF91089566E3B5
S113040071E080910801909109010E94430180915B
S1130410360190913701009749F0FC012481358120
S113042030933701209336010C945B01FFCF052EE6
S113043097FB1EF400940E942E0257FD07D00E94E1
S1130440360207FC03D04EF40C942E0250954095CE
S1130450309521953F4F4F4F5F4F0895909580956C
S1130460709561957F4F8F4F9F4F0895A1E21A2E8B
S1130470AA1BBB1BFD010DC0AA1FBB1FEE1FFF1F44
S1130480A217B307E407F50720F0A21BB30BE40B94
S1130490F50B661F771F881F991F1A9469F76095DB
S11304A07095809590959B01AC01BD01CF01089595
S11304B0DC012D923D924D925D926D927D928D92D2
S11304C09D92AD92BD92CD92DD92ED92FD920D93EF
S11304D01D93CD93DD93FF91EF918DB78D938EB7DF
S11304E08D938FB78D93ED93FD9388279927099466
S11304F0DC01CB0181309105811D2D903D904D9003
S11305005D906D907D908D909D90AD90BD90CD90BF
S1130510DD90ED90FD900D911D91CD91DD91ED91CA
S1130520FD910D90F894FEBF0FBEEDBFED91FD91CE
S10905300994F894FFCFCA
S113053600000101020203033801A50101050501BA
S11305460008000201010E0101010B0100050B0068
S113055601040B0100040F010101090001050F014B
S107056601050B007C
S9030000FC
