S01100004C6162322D50726F6A2E737265630A
S11300000C942E000C944B000C944B000C941E0288
S11300100C944B000C944B000C944B000C944B0030
S11300200C944B000C944B000C944B000C944B0020
S11300300C944B000C944B000C944B000C944B0010
S11300400C944B000C944B000C944B000C944B0000
S11300500C944B000C944B000C944B0011241FBEC9
S1130060CFEFD4E0DEBFCDBF11E0A0E0B1E0EEE819
S1130070F5E002C005900D92A433B107D9F723E04F
S1130080A4E3B1E001C01D92A935B207E1F70E94D3
S113009035010C94C5020C94000087EB8093E500B5
S11300A087E08093E6008EE28093E70080E8809307
S11300B0E40008956630710508F059C090ED980F7A
S11300C09A3008F054C0FB01E050FF4FE081F0E0AB
S11300D0E451FF4FA82FB0E0D097808160FF0DC09E
S11300E08F70808385818F70858382858F708287EE
S11300F087858F70878794E00CC0807F808385819B
S1130100807F85838285807F82878785807F8787BC
S113011090E02081AA0FBB1FAA0FBB1FA45FBE4F94
S11301208C91092E01C0880F0A94EAF7822B8083F0
S1130130258111968C911197092E01C0880F0A947C
S1130140EAF7822B8583228512968C911297092EC9
S113015001C0880F0A94EAF7822B828727851396B9
S11301608C9101C0880F9A95EAF7822B87870895AE
S11301708F929F92AF92BF92CF92DF92EF92FF92B3
S11301804B015C0182E0C82ED12CE12CF12CC81467
S1130190D904EA04FB0484F4C501B401A70196015F
S11301A00E944302672B682B692B41F08FEFC81A1A
S11301B0D80AE80AF80AEBCF81E001C080E0FF909A
S11301C0EF90DF90CF90BF90AF909F908F90089565
S11301D08F929F92AF92BF92CF92DF92EF92FF9253
S11301E0CF93DF934B015C01EA0124E630E040E069
S11301F050E00E9443022AE0C22ED12CE12CF12CC3
S1130200A70196010E944302BE0180E3820F0E946F
S11302105A002196C501B401A70196010E94430228
S1130220862FBE01805DDF91CF91FF90EF90DF902C
S1130230CF90BF90AF909F908F900C945A00EC0198
S1130240C12CD12C7601C394C701B6010E94B80019
S1130250882329F0AE01C701B6010E94E8008FEFA0
S1130260C81AD80AE80AF80AEFCF0E944D0060E0E5
S113027070E08FE191E00E94790183E090E00E94B8
S11302801F01DC0115961C921E921497DB01ED915F
S1130290FC911197309719F48D939C9308952481C0
S11302A035812115310511F0F901F9CF9583848346
S11302B00895CF93DF9300D0CDB7DEB79A838983B7
S11302C0809108019091090106960E948402892B6D
S11302D059F489819A81909309018093080161E01E
S11302E070E006960E94A4020F900F90DF91CF91C8
S11302F00895CF93DF9300D0CDB7DEB7F894209163
S1130300340130913501232B29F52F9A20E824B9A3
S1130310EF9AECE6F0E020812068208322E132E0CD
S11303203093AA012093A9012FE732E030931702FA
S1130330209316022CEE32E0309384022093830241
S11303401092F1021092F00221E030E03093350176
S11303502093340120910A0130910B013A832983BF
S113036021153105A1F0F9012481358130930B0168
S113037020930A019183808373836283158214829C
S1130380CF0106960E948402019749F501C0FFCF70
S11303907894A0910801B0910901ED91FC91119715
S11303A012968D919C9113970995F8946AE071E0E7
S11303B080910801909109010E94410180913601C8
S11303C090913701009751F0FC01248135813093DD
S11303D03701209336010E94590101C0FFCFE98102
S11303E0FA81369689819A8187599F4F918B808BA8
S11303F0938B828B66E371E089819A810E9441012B
S113040078940F900F90DF91CF91089566E371E097
S113041080910801909109010E9441018091360167
S113042090913701009749F0FC0124813581309384
S11304303701209336010C945901FFCF1F920F927C
S11304400FB60F9211242F933F934F935F936F93A3
S11304507F938F939F93AF93BF93EF93FF931F9BD0
S11304600E940602FF91EF91BF91AF919F918F91EE
S11304707F916F915F914F913F912F910F900FBE9C
S11304800F901F901895052E97FB1EF400940E9460
S11304905A0257FD07D00E94620207FC03D04EF4B3
S11304A00C945A0250954095309521953F4F4F4FEB
S11304B05F4F089590958095709561957F4F8F4F0C
S11304C09F4F0895A1E21A2EAA1BBB1BFD010DC06C
S11304D0AA1FBB1FEE1FFF1FA217B307E407F507F0
S11304E020F0A21BB30BE40BF50B661F771F881FCC
S11304F0991F1A9469F760957095809590959B0162
S1130500AC01BD01CF010895DC012D923D924D92C5
S11305105D926D927D928D929D92AD92BD92CD929F
S1130520DD92ED92FD920D931D93CD93DD93FF919A
S1130530EF918DB78D938EB78D938FB78D93ED9388
S1130540FD93882799270994DC01CB01813091051B
S1130550811D2D903D904D905D906D907D908D907E
S11305609D90AD90BD90CD90DD90ED90FD900D915E
S11305701D91CD91DD91ED91FD910D90F894FEBF0B
S11105800FBEEDBFED91FD910994F894FFCFED
S113058E00000101020203033801A5010105050162
S113059E0008000201010E0101010B0100050B0010
S11305AE01040B0100040F010101090001050F01F3
S10705BE01050B0024
S9030000FC
