S01100004C6162342D50726F6A2E7372656308
S11300000C942E000C9426060C9495060C9404076C
S11300100C9473070C94E2070C944B000C944D0E53
S11300200C944B000C94FB0D0C9451080C94C008D8
S11300300C942F090C949E090C940D0A0C947C0AC0
S11300400C94EB0A0C945A0B0C94C90B0C94380CBA
S11300500C94A70C0C94160D0C94850D11241FBE42
S1130060CFEFD4E0DEBFCDBF11E0A0E0B1E0E6E029
S1130070F3E202C005900D92A833B107D9F724E04A
S1130080A8E3B1E001C01D92AB38B207E1F70E94CA
S1130090BA020C9481110C940000CF92DF92EF927B
S11300A0FF920F931F93CF93DF93EC011F9922C00C
S11300B00C811D81C12CD12C0F2EF9E5EF2EF1E01E
S11300C0FF2EF02D20E030E0A90160E070E0CB01CC
S11300D00E94ED0E0F2EFDE4EF2EF0E0FF2EF02D2A
S11300E08E0120E030E0A90169E07DE380E090E04A
S11300F00E94ED0E1E9922C00C811D81C12CD12CB1
S11301000F2EF0E2EF2EF1E0FF2EF02D20E030E094
S1130110A90160E070E0CB010E94ED0E0F2EFDE41A
S1130120EF2EF0E0FF2EF02D8E0120E030E0A9014B
S113013069E07DE380E090E00E94ED0E80E090E0D5
S1130140DF91CF911F910F91FF90EF90DF90CF90AF
S11301500895CF92DF92EF92FF920F931F93619BCA
S113016002C0669914C0FC0104811581C12CD12CF4
S11301700F2EF2E9EF2EF1E0FF2EF02D20E030E01B
S1130180A9016AE678E180E090E00E94ED0E80E04B
S113019090E01F910F91FF90EF90DF90CF90089522
S11301A0CF92DF92EF92FF920F931F93CF93DF933F
S11301B0EC011F9912C0C12CD12C0F2EFDE4EF2E9F
S11301C0F0E0FF2EF02D8C0120E030E0A9016AE17F
S11301D076E080E090E00E94ED0E1E9912C0C12CE2
S11301E0D12C0F2EFDE4EF2EF0E0FF2EF02D8E012A
S11301F020E030E0A9016AE176E080E090E00E942E
S1130200ED0E1C9912C0C12CD12C0F2EFFE9EF2E3C
S1130210F1E0FF2EF02D8E0120E030E0A9016AE12B
S113022076E080E090E00E94ED0E80E090E0DF91C7
S1130230CF911F910F91FF90EF90DF90CF90089591
S1130240CF92DF92EF92FF920F931F93FC012481D0
S1130250222399F005811681C12CD12C0F2EF3EAAB
S1130260EF2EF3E0FF2EF02D20E030E0A90160E056
S113027070E0CB010E94ED0E13C0FC0107811085D4
S1130280C12CD12C0F2EF3EAEF2EF3E0FF2EF02D2C
S113029020E030E0A90160E070E0CB010E94ED0EA7
S11302A080E090E01F910F91FF90EF90DF90CF904E
S11302B00895CF92DF92EF92FF920F931F93FC0168
S11302C02481222399F005811681C12CD12C0F2E73
S11302D0F1EFEF2EF3E0FF2EF02D20E030E0A90146
S11302E060E070E0CB010E94ED0E13C0FC010781B9
S11302F01085C12CD12C0F2EF1EFEF2EF3E0FF2E41
S1130300F02D20E030E0A90160E070E0CB010E9414
S1130310ED0E80E090E01F910F91FF90EF90DF9041
S1130320CF900895FC01248191E029272483E9EFEB
S1130330F0E080819827908380E090E00895CF9248
S1130340DF92EF92FF920F931F93FC0124812223EB
S113035099F005811681C12CD12C0F2EFAE3EF2ED2
S1130360F4E0FF2EF02D20E030E0A90160E070E021
S1130370CB010E94ED0E13C0FC0107811085C12C36
S1130380D12C0F2EFAE3EF2EF4E0FF2EF02D20E017
S113039030E0A90160E070E0CB010E94ED0E80E046
S11303A090E01F910F91FF90EF90DF90CF90089510
S11303B0E1E6F0E080E880831082089587EB809383
S11303C0E50087E08093E6008EE28093E70080E812
S11303D08093E400E9EFF0E0908181E08927808355
S11303E0089580E884B9089585B1806D85B98EB18A
S11303F08C608EB98DB3806C8DBBECE6F0E08081AF
S1130400886F8083EBE6F0E080818C6080830895C0
S11304100E94D8010E94DE010E94F1010E94F401B1
S113042008956630710508F06EC0803308F46BC01F
S11304308A3308F068C0FB01E85FFE4FE081F0E01A
S1130440E451FF4FA82FB0E0D09761707078772304
S113045034F4615071096E6F7F6F6F5F7F4F61304D
S1130460710571F480818F70808385818F7085839D
S113047082858F70828787858F70878724E00DC07F
S11304808081807F80838581807F85838285807F52
S113049082878785807F878720E0AA0FBB1FAA0FEA
S11304A0BB1FA05FBE4F8C9190E0022E02C0880F4C
S11304B0991F0A94E2F79081892B808311968C917D
S11304C0119790E0022E02C0880F991F0A94E2F758
S11304D09581892B858312968C91129790E0022E38
S11304E002C0880F991F0A94E2F79285892B8287AC
S11304F013968C9190E002C0880F991F2A95E2F719
S11305009785892B87870895EF92FF920F931F9306
S1130510CF93DF93C62FCC1FCC27CC1F7370770FDC
S11305207C2BC72FD0E06F77062F10E0C80164E65C
S113053070E00E9402110F2EFAE0EF2EF12CF02D44
S1130540B7010E940211862FBE01805D0E94110234
S11305502196C801B7010E940211BE01805D0E946C
S1130560110280E090E0DF91CF911F910F91FF90F5
S1130570EF900895CF93DF93CDB7DEB7E7970FB62B
S1130580F894DEBF0FBECDBF0E9408021A82198202
S11305901C821B821E821D8218861F821A8619865F
S11305A01C861B861E861D86188A1F8681E090E0A5
S11305B09A8B898B9C8B8B8B9E012F5F3F4F3E8B3D
S11305C02D8BCE010596988F8F8B1A8E198E1C8ECB
S11305D01B8E1E8E1D8E18A21F8E44E050E05AA35F
S11305E049A343E050E05CA34BA33EA32DA398A7EB
S11305F08FA31AA619A61CA61BA61DA604969FA720
S11306008EA7409699AB88AB1BAA1AAA1DAA1CAA4E
S113061040969FAB8EAB42E060ED70E009960E947D
S1130620D01041E069EA70E0CE01C2960E94D01079
S113063040E050E060E070E080E090E00E94EB1069
S1130640E7960FB6F894DEBF0FBECDBFDF91CF9112
S113065008956130710529F49EB180E189278EB92E
S113066007C06330710521F49EB180E489278EB9F7
S1130670EEEFF0E0908181E08927808380E090E0D4
S113068008956130710511F41EB804C0633071051A
S113069009F41EB880E090E00895CF92DF92EF92C3
S11306A0FF920F931F93CF93DF93FC012481358135
S11306B0232BF1F1EC0104851585C284D3840F2E1C
S11306C0F9E2EF2EF3E0FF2EF02D20E030E0A90157
S11306D060E070E0CB010E94ED0E6C817D8184EFBF
S11306E091E00E9402112DE730E0DB010E94161117
S11306F08B019C01992324F40D5F1F4F2F4F3F4F13
S1130700C901B801959587957795679595958795CE
S113071077956795C12CD12C0F2EFDE4EF2EF3E0D5
S1130720FF2EF02D8E0120E030E0A9010E94ED0E95
S113073080E090E0DF91CF911F910F91FF90EF90B7
S1130740DF90CF900895CF92DF92EF92FF920F93B4
S11307501F93CF93DF93EC018C819D8183369105A8
S11307601CF401969D838C839C81D8848D2D879560
S1130770882787959F77C92EC82A8D2D86958370E3
S1130780D82E0E851F850F2EF4E8EF2EF2E0FF2EF3
S1130790F02D20E030E0A90160E070E0CB010E9480
S11307A0ED0E8C819D81019789F4C12CD12C0F2EE3
S11307B0FDE4EF2EF3E0FF2EF02D8E0120E030E07B
S11307C0A90160E070E0CB010E94ED0E8C819D8157
S11307D0DF91CF911F910F91FF90EF90DF90CF9019
S11307E00895CF92DF92EF92FF920F931F93CF93CE
S11307F0DF93EC018C819D81009719F001979D8313
S11308008C83CA84DB840F2EF1E4EF2EF3E0FF2EF9
S1130810F02D8E0120E030E0A90160E070E0CB0112
S11308200E94ED0E9C81D8848D2D8795882787950D
S11308309F77C92EC82A8D2D86958370D82E0E8554
S11308401F850F2EF4E8EF2EF2E0FF2EF02D20E0AE
S113085030E0A90160E070E0CB010E94ED0E8C81D4
S11308609D81DF91CF911F910F91FF90EF90DF90C9
S1130870CF900895CF92DF92EF92FF920F931F9340
S1130880CF93DF93EC018C819D810097C1F48E811D
S11308909F819D838C83892B39F1C12CD12C0F2E00
S11308A0FDE4EF2EF3E0FF2EF02D8E0120E030E08A
S11308B0A90160E070E0CB010E94ED0E15C09F839A
S11308C08E831D821C82CA84DB840F2EF1E4EF2EFA
S11308D0F3E0FF2EF02D8E0120E030E0A90160E06E
S11308E070E0CB010E94ED0E9C81D8848D2D8795FC
S11308F0882787959F77C92EC82A8D2D8695837062
S1130900D82E0E851F850F2EF4E8EF2EF2E0FF2E71
S1130910F02D20E030E0A90160E070E0CB010E94FE
S1130920ED0E8C819D81DF91CF911F910F91FF90EE
S1130930EF90DF90CF900895CF93DF9300D000D055
S1130940CDB7DEB780E090E018C0AC014F5F5F4FD9
S11309509A0122953295307F3227207F3227255EF7
S11309603D4F82959295907F9827807F9827FC0130
S1130970E55EFD4F31832083CA018E3091052CF34F
S11309801092FC021092FB0280E090E015C0AC01D2
S11309904F5F5F4F6DE1649F9001659F300D11249F
S11309A02A593E4F689FF001699FF00D1124EA59BE
S11309B0FE4F31832083CA018330910544F31092A2
S11309C0BE011092BD011A82198232C02DE1498103
S11309D05A81249FC001259F900D1124FC01E459E4
S11309E0FE4FFC83EB83CF010E94401120E6498136
S11309F05A81249FC001259F900D112489599C4F31
S1130A00EB81FC81918B808B938B828B88E790E1C7
S1130A10968B858B8DE1849FF001859FF00D1124C9
S1130A20EA59FE4F158214824F5F5F4F5A83498300
S1130A3029813A81243031054CF2EEEFF1E0118244
S1130A4010821582148213821282E1E6F0E080E8BB
S1130A5080831082109285001092840084E0809339
S1130A60810081E080936F000F900F900F900F90A2
S1130A70DF91CF910895CF93DF9300D0CDB7DEB748
S1130A809A838983809100019091010106960E94C6
S1130A904011892B59F489819A81909301018093A3
S1130AA0000161E070E006960E9460110F900F90C3
S1130AB0DF91CF9108950F931F93CF93DF93DC01C0
S1130AC0CB01EB01E881F981C0E0D0E004C0EF0183
S1130AD00190F081E02D309779F00681178120850F
S1130AE0318516964D915D916D917C9119974017C2
S1130AF05107620773075CF71196FC93EE932097F6
S1130B0021F4FC01B183A08302C0B983A883DF91DF
S1130B10CF911F910F9108950F931F93CF93DF935C
S1130B20DC01CB01EB01E881F981C0E0D0E004C035
S1130B30EF010190F081E02D309779F0028113816B
S1130B402481358112964D915D916D917C9115971B
S1130B5040175107620773075CF71196FC93EE93F5
S1130B60209721F4FC01B183A08302C0B983A88338
S1130B70DF91CF911F910F910895DC01ED91FC91CC
S1130B801197309759F48FEF8093EC008093ED0028
S1130B908093EE0081E083BF8895FCCF2081318172
S1130BA02D933C93CF010895FB0120813181FC01F9
S1130BB031832083FB01918380830895FB0120818D
S1130BC03181FC0131832083FB019183808308956B
S1130BD0DC01ED91FC911197208131812D933C939F
S1130BE0CF010895CF93DF93E0910201F0910301C7
S1130BF0C281D381E0914001F0914101309719F114
S1130C008091040190910501892BE9F0209769F006
S1130C1086819781A085B1854E815F8168857985BC
S1130C20841B950BA60BB70B72F484E091E00E9431
S1130C30E80562E071E00E94DE0580910201909176
S1130C4003010E943B05DF91CF9108951F920F92FB
S1130C500FB60F9211240F931F932F933F934F932B
S1130C605F936F937F938F939F93AF93BF93EF9310
S1130C70FF938091380190913901AC01092E000C49
S1130C80660B770B9A01112700274091840050913D
S1130C90850060E070E0402B512B622B732B409356
S1130CA03A0150933B0160933C0170933D01B09B2A
S1130CB01AC00196092E000CAA0BBB0BBC015527C8
S1130CC044278091840090918500A0E0B0E0842BBB
S1130CD0952BA62BB72B80933A0190933B01A093BD
S1130CE03C01B0933D01E091DA01F091DB013097D2
S1130CF039F060E070E080914201909143010995E0
S1130D000E94F205FF91EF91BF91AF919F918F9156
S1130D107F916F915F914F913F912F911F910F910F
S1130D200F900FBE0F901F9018951F920F920FB641
S1130D300F9211240F931F932F933F934F935F931D
S1130D406F937F938F939F93AF93BF93EF93FF938F
S1130D508091380190913901AC01092E000C660B89
S1130D60770B9A0111270027409184005091850048
S1130D7060E070E0402B512B622B732B40933A01BF
S1130D8050933B0160933C0170933D01B09B1AC0AA
S1130D900196092E000CAA0BBB0BBC015527442756
S1130DA08091840090918500A0E0B0E0842B952B85
S1130DB0A62BB72B80933A0190933B01A0933C015F
S1130DC0B0933D01E091DC01F091DD01309739F001
S1130DD061E070E0809144019091450109950E9481
S1130DE0F205FF91EF91BF91AF919F918F917F9108
S1130DF06F915F914F913F912F911F910F910F90A0
S1130E000FBE0F901F9018951F920F920FB60F925E
S1130E1011240F931F932F933F934F935F936F93DB
S1130E207F938F939F93AF93BF93EF93FF9380919F
S1130E30380190913901AC01092E000C660B770B37
S1130E409A0111270027409184005091850060E0A9
S1130E5070E0402B512B622B732B40933A0150933B
S1130E603B0160933C0170933D01B09B1AC0019615
S1130E70092E000CAA0BBB0BBC01552744278091FB
S1130E80840090918500A0E0B0E0842B952BA62BE4
S1130E90B72B80933A0190933B01A0933C01B0930C
S1130EA03D01E091DE01F091DF01309739F062E01D
S1130EB070E0809146019091470109950E94F205E6
S1130EC0FF91EF91BF91AF919F918F917F916F911E
S1130ED05F914F913F912F911F910F910F900FBEF2
S1130EE00F901F9018951F920F920FB60F92112416
S1130EF00F931F932F933F934F935F936F937F931E
S1130F008F939F93AF93BF93EF93FF938091380197
S1130F1090913901AC01092E000C660B770B9A01F4
S1130F2011270027409184005091850060E070E013
S1130F30402B512B622B732B40933A0150933B016E
S1130F4060933C0170933D01B09B1AC00196092E39
S1130F50000CAA0BBB0BBC015527442780918400CD
S1130F6090918500A0E0B0E0842B952BA62BB72BA5
S1130F7080933A0190933B01A0933C01B0933D01CF
S1130F80E091E001F091E101309739F063E070E025
S1130F90809148019091490109950E94F205FF91C1
S1130FA0EF91BF91AF919F918F917F916F915F91DD
S1130FB04F913F912F911F910F910F900FBE0F9062
S1130FC01F9018951F920F920FB60F9211240F9332
S1130FD01F932F933F934F935F936F937F938F93BD
S1130FE09F93AF93BF93EF93FF93809138019091B8
S1130FF03901AC01092E000C660B770B9A011127FD
S11310000027409184005091850060E070E0402BFF
S1131010512B622B732B40933A0150933B01609305
S11310203C0170933D01B09B1AC00196092E000C3F
S1131030AA0BBB0BBC0155274427809184009091D7
S11310408500A0E0B0E0842B952BA62BB72B8093D2
S11310503A0190933B01A0933C01B0933D01E09190
S1131060E201F091E301309739F064E070E080919F
S11310704A0190914B0109950E94F205FF91EF916D
S1131080BF91AF919F918F917F916F915F914F919C
S11310903F912F911F910F910F900FBE0F901F90B2
S11310A018951F920F920FB60F9211240F931F934E
S11310B02F933F934F935F936F937F938F939F935C
S11310C0AF93BF93EF93FF938091380190913901CF
S11310D0AC01092E000C660B770B9A01112700272F
S11310E0409184005091850060E070E0402B512BCA
S11310F0622B732B40933A0150933B0160933C0164
S113110070933D01B09B1AC00196092E000CAA0BE6
S1131110BB0BBC0155274427809184009091850026
S1131120A0E0B0E0842B952BA62BB72B80933A013B
S113113090933B01A0933C01B0933D01E091E40105
S1131140F091E501309739F065E070E080914C0151
S113115090914D0109950E94F205FF91EF91BF9185
S1131160AF919F918F917F916F915F914F913F913B
S11311702F911F910F910F900FBE0F901F901895F4
S11311801F920F920FB60F9211240F931F932F9358
S11311903F934F935F936F937F938F939F93AF93FB
S11311A0BF93EF93FF938091380190913901AC0183
S11311B0092E000C660B770B9A011127002740912A
S11311C084005091850060E070E0402B512B622B2D
S11311D0732B40933A0150933B0160933C0170930D
S11311E03D01B09B1AC00196092E000CAA0BBB0B43
S11311F0BC01552744278091840090918500A0E08C
S1131200B0E0842B952BA62BB72B80933A019093B7
S11312103B01A0933C01B0933D01E091E601F091C4
S1131220E701309739F066E070E080914E019091CB
S11312304F0109950E94F205FF91EF91BF91AF9183
S11312409F918F917F916F915F914F913F912F91DA
S11312501F910F910F900FBE0F901F9018951F9222
S11312600F920FB60F9211240F931F932F933F9356
S11312704F935F936F937F938F939F93AF93BF939A
S1131280EF93FF938091380190913901AC01092EBD
S1131290000C660B770B9A011127002740918400FC
S11312A05091850060E070E0402B512B622B732B32
S11312B040933A0150933B0160933C0170933D018C
S11312C0B09B1AC00196092E000CAA0BBB0BBC01E3
S11312D0552744278091840090918500A0E0B0E0D8
S11312E0842B952BA62BB72B80933A0190933B012B
S11312F0A0933C01B0933D01E091E801F091E90134
S1131300309739F067E070E080915001909151017D
S113131009950E94F205FF91EF91BF91AF919F91C2
S11313208F917F916F915F914F913F912F911F9179
S11313300F910F900FBE0F901F9018951F920F9250
S11313400FB60F9211240F931F932F933F934F9334
S11313505F936F937F938F939F93AF93BF93EF9319
S1131360FF938091380190913901AC01092E000C52
S1131370660B770B9A011127002740918400509146
S1131380850060E070E0402B512B622B732B40935F
S11313903A0150933B0160933C0170933D01B09B33
S11313A01AC00196092E000CAA0BBB0BBC015527D1
S11313B044278091840090918500A0E0B0E0842BC4
S11313C0952BA62BB72B80933A0190933B01A093C6
S11313D03C01B0933D01E091EA01F091EB013097BB
S11313E039F068E070E080915201909153010995C1
S11313F00E94F205FF91EF91BF91AF919F918F9160
S11314007F916F915F914F913F912F911F910F9118
S11314100F900FBE0F901F9018951F920F920FB64A
S11314200F9211240F931F932F933F934F935F9326
S11314306F937F938F939F93AF93BF93EF93FF9398
S11314408091380190913901AC01092E000C660B92
S1131450770B9A0111270027409184005091850051
S113146060E070E0402B512B622B732B40933A01C8
S113147050933B0160933C0170933D01B09B1AC0B3
S11314800196092E000CAA0BBB0BBC01552744275F
S11314908091840090918500A0E0B0E0842B952B8E
S11314A0A62BB72B80933A0190933B01A0933C0168
S11314B0B0933D01E091EC01F091ED01309739F0EA
S11314C069E070E0809154019091550109950E9462
S11314D0F205FF91EF91BF91AF919F918F917F9111
S11314E06F915F914F913F912F911F910F910F90A9
S11314F00FBE0F901F9018951F920F920FB60F9268
S113150011240F931F932F933F934F935F936F93E4
S11315107F938F939F93AF93BF93EF93FF938091A8
S1131520380190913901AC01092E000C660B770B40
S11315309A0111270027409184005091850060E0B2
S113154070E0402B512B622B732B40933A01509344
S11315503B0160933C0170933D01B09B1AC001961E
S1131560092E000CAA0BBB0BBC0155274427809104
S1131570840090918500A0E0B0E0842B952BA62BED
S1131580B72B80933A0190933B01A0933C01B09315
S11315903D01E091EE01F091EF01309739F06AE0FE
S11315A070E0809156019091570109950E94F205CF
S11315B0FF91EF91BF91AF919F918F917F916F9127
S11315C05F914F913F912F911F910F910F900FBEFB
S11315D00F901F9018951F920F920FB60F9211241F
S11315E00F931F932F933F934F935F936F937F9327
S11315F08F939F93AF93BF93EF93FF9380913801A1
S113160090913901AC01092E000C660B770B9A01FD
S113161011270027409184005091850060E070E01C
S1131620402B512B622B732B40933A0150933B0177
S113163060933C0170933D01B09B1AC00196092E42
S1131640000CAA0BBB0BBC015527442780918400D6
S113165090918500A0E0B0E0842B952BA62BB72BAE
S113166080933A0190933B01A0933C01B0933D01D8
S1131670E091F001F091F101309739F06BE070E006
S1131680809158019091590109950E94F205FF91AA
S1131690EF91BF91AF919F918F917F916F915F91E6
S11316A04F913F912F911F910F910F900FBE0F906B
S11316B01F9018951F920F920FB60F9211240F933B
S11316C01F932F933F934F935F936F937F938F93C6
S11316D09F93AF93BF93EF93FF93809138019091C1
S11316E03901AC01092E000C660B770B9A01112706
S11316F00027409184005091850060E070E0402B09
S1131700512B622B732B40933A0150933B0160930E
S11317103C0170933D01B09B1AC00196092E000C48
S1131720AA0BBB0BBC0155274427809184009091E0
S11317308500A0E0B0E0842B952BA62BB72B8093DB
S11317403A0190933B01A0933C01B0933D01E09199
S1131750F201F091F301309739F06CE070E0809180
S11317605A0190915B0109950E94F205FF91EF9156
S1131770BF91AF919F918F917F916F915F914F91A5
S11317803F912F911F910F910F900FBE0F901F90BB
S113179018951F920F920FB60F9211240F931F9357
S11317A02F933F934F935F936F937F938F939F9365
S11317B0AF93BF93EF93FF938091380190913901D8
S11317C0AC01092E000C660B770B9A011127002738
S11317D0409184005091850060E070E0402B512BD3
S11317E0622B732B40933A0150933B0160933C016D
S11317F070933D01B09B1AC00196092E000CAA0BF0
S1131800BB0BBC015527442780918400909185002F
S1131810A0E0B0E0842B952BA62BB72B80933A0144
S113182090933B01A0933C01B0933D01E091F401FE
S1131830F091F501309739F06DE070E080915C0132
S113184090915D0109950E94F205FF91EF91BF917E
S1131850AF919F918F917F916F915F914F913F9144
S11318602F911F910F910F900FBE0F901F901895FD
S11318701F920F920FB60F9211240F931F932F9361
S11318803F934F935F936F937F938F939F93AF9304
S1131890BF93EF93FF938091380190913901AC018C
S11318A0092E000C660B770B9A0111270027409133
S11318B084005091850060E070E0402B512B622B36
S11318C0732B40933A0150933B0160933C01709316
S11318D03D01B09B1AC00196092E000CAA0BBB0B4C
S11318E0BC01552744278091840090918500A0E095
S11318F0B0E0842B952BA62BB72B80933A019093C1
S11319003B01A0933C01B0933D01E091F601F091BD
S1131910F701309739F06EE070E080915E019091AC
S11319205F0109950E94F205FF91EF91BF91AF917C
S11319309F918F917F916F915F914F913F912F91E3
S11319401F910F910F900FBE0F901F9018951F922B
S11319500F920FB60F9211240F931F932F933F935F
S11319604F935F936F937F938F939F93AF93BF93A3
S1131970EF93FF938091380190913901AC01092EC6
S1131980000C660B770B9A01112700274091840005
S11319905091850060E070E0402B512B622B732B3B
S11319A040933A0150933B0160933C0170933D0195
S11319B0B09B1AC00196092E000CAA0BBB0BBC01EC
S11319C0552744278091840090918500A0E0B0E0E1
S11319D0842B952BA62BB72B80933A0190933B0134
S11319E0A0933C01B0933D01E091F801F091F9011D
S11319F0309739F06FE070E080916001909161015F
S1131A0009950E94F205FF91EF91BF91AF919F91CB
S1131A108F917F916F915F914F913F912F911F9182
S1131A200F910F900FBE0F901F9018951F920F9259
S1131A300FB60F9211240F931F932F933F934F933D
S1131A405F936F937F938F939F93AF93BF93EF9322
S1131A50FF938091380190913901AC01092E000C5B
S1131A60660B770B9A01112700274091840050914F
S1131A70850060E070E0402B512B622B732B409368
S1131A803A0150933B0160933C0170933D01B09B3C
S1131A901AC00196092E000CAA0BBB0BBC015527DA
S1131AA044278091840090918500A0E0B0E0842BCD
S1131AB0952BA62BB72B80933A0190933B01A093CF
S1131AC03C01B0933D01E091FA01F091FB013097A4
S1131AD039F060E170E080916201909163010995B1
S1131AE00E94F205FF91EF91BF91AF919F918F9169
S1131AF07F916F915F914F913F912F911F910F9122
S1131B000F900FBE0F901F9018951F920F920FB653
S1131B100F9211240F931F932F933F934F935F932F
S1131B206F937F938F939F93AF93BF93EF93FF93A1
S1131B308091380190913901AC01092E000C660B9B
S1131B40770B9A011127002740918400509185005A
S1131B5060E070E0402B512B622B732B40933A01D1
S1131B6050933B0160933C0170933D01B09B1AC0BC
S1131B700196092E000CAA0BBB0BBC015527442768
S1131B808091840090918500A0E0B0E0842B952B97
S1131B90A62BB72B80933A0190933B01A0933C0171
S1131BA0B0933D01E091FC01F091FD01309739F0D3
S1131BB061E170E0809164019091650109950E9452
S1131BC0F205FF91EF91BF91AF919F918F917F911A
S1131BD06F915F914F913F912F911F910F910F90B2
S1131BE00FBE0F901F9018950E94F205789481E023
S1131BF083BF8895FCCF1F920F920FB60F921124CA
S1131C002F933F934F935F936F937F938F939F9300
S1131C10EF93FF938091380190913901019690934D
S1131C20390180933801E0913E01F0913F013097F2
S1131C3001F1428153816481758186179707C9F444
S1131C40CA012091840030918500421B530B41301E
S1131C50510529F480918400909185000196909318
S1131C60890080938800EFE6F0E0808182608083C1
S1131C7005C0EFE6F0E080818D7F8083FF91EF91D6
S1131C809F918F917F916F915F914F913F912F9190
S1131C900F900FBE0F901F9018951F920F920FB6C2
S1131CA00F921124CF92DF92EF92FF922F933F93E2
S1131CB04F935F936F937F938F939F93AF93BF9350
S1131CC0EF93FF9380913801909139016C01092EB3
S1131CD0000CEE08FF087601DD24CC24409184003A
S1131CE05091850060E070E0C42AD52AE62AF72ADC
S1131CF0B09B1EC06C012FEFC21AD20A0D2C000C2F
S1131D00EE08FF08D60199278827C0908400D09058
S1131D108500E12CF12CC82AD92AEA2AFB2A08C01A
S1131D208EE391E00E94BD0560E471E00E945B05D2
S1131D30E0913E01F0913F01309769F082819381F7
S1131D40A481B5818C199D09AE09BF09181619061D
S1131D501A061B062CF7309721F182819381A48106
S1131D60B58120913801309139012A173B07C9F414
S1131D709C014091840050918500841B950B019730
S1131D8031F420918400309185002F5F3F4F3093D0
S1131D90890020938800EFE6F0E0808182608083F0
S1131DA005C0EFE6F0E080818D7F80830E94F2051C
S1131DB0FF91EF91BF91AF919F918F917F916F911F
S1131DC05F914F913F912F91FF90EF90DF90CF90D3
S1131DD00F900FBE0F901F9018953F924F925F92F5
S1131DE06F927F928F929F92AF92BF92CF92DF9227
S1131DF0EF92FF920F931F93CF93DF932B013C013C
S1131E0049015A018FB78078382EF89486E091E022
S1131E100E94BD05EC011B870A87FD86EC86DF86E0
S1131E20CE86332061F0E0910001F091010102803F
S1131E30F381E02D82819381A481B58108C08091D2
S1131E403A0190913B01A0913C01B0913D01480EB3
S1131E50591E6A1E7B1E4A825B826C827D82181424
S1131E6019041A041B0444F00F2E88248A94982C15
S1131E70A82CFFE7BF2EF02D840C951CA61CB71CC4
S1131E808E829F82A886B9862091380130913901CB
S1131E90C901032E000CAA0BBB0BDC019927882770
S1131EA0409184005091850060E070E0842B952B74
S1131EB0A62BB72BB09B13C0C9010196092E000CA9
S1131EC0AA0BBB0BDC019927882740918400509111
S1131ED0850060E070E0842B952BA62BB72B481A65
S1131EE0590A6A0A7B0A1414150416041704ACF57B
S1131EF06EE371E0CE010E948C05E0913E01F09109
S1131F003F01309721F182819381A481B581209191
S1131F103801309139012A173B07C9F49C014091DB
S1131F20840050918500841B950B019731F4209116
S1131F308400309185002F5F3F4F309389002093B8
S1131F408800EFE6F0E080818260808339C0EFE6AC
S1131F50F0E080818D7F808333C060E471E0CE0146
S1131F600E945B05332061F1809104019091050189
S1131F70892B31F1E0914001F091410186819781F3
S1131F80A085B185E0910201F09103010280F38103
S1131F90E02D4681578160857185841B950BA60BC6
S1131FA0B70B72F484E091E00E94E80562E071E00E
S1131FB00E94DE0580910201909103010E943B057D
S1131FC0332009F07894CE01DF91CF911F910F91C6
S1131FD0FF90EF90DF90CF90BF90AF909F908F9045
S1131FE07F906F905F904F903F900895CF92DF92D3
S1131FF0EF92FF920F931F93CF93DF93EC017B013A
S11320006A011FB71078F894A881B981109719F460
S113201035C0A081B1811496ED91FC91159730974C
S1132020C1F72091000130910101A217B30711F00B
S1132030111107C0112309F44AC078948FEF9FEF60
S11320404EC08A819B81009719F0FC01158214828D
S11320503B832A83F901D583C483CD010E943B05C8
S1132060E0910001F091010182819381892B31F487
S1132070112381F1789480E090E031C080910001D7
S11320809091010199838883112329F08A819B818E
S1132090019709F07894B601CE01F7010995F82E5D
S11320A0092F8FB7F894198218828A819B81823014
S11320B0910538F01B821A82FC01158214820E9459
S11320C03B05112351F078948F2D902F08C08FEF8A
S11320D09FEF05C080E090E002C08F2D902FDF912C
S11320E0CF911F910F91FF90EF90DF90CF900895C3
S11320F0009100011091010180E491E00E94BD056E
S1132100EC01F8019383828378946C857D854E85F8
S11321105F858A859B850E94F60F8FB7F89466E0E9
S113212071E0CE010E94D405E0910201F091030117
S11321300190F081E02DC281D381E0914001F091C2
S113214041013097A1F0209799F286819781A0856B
S1132150B1854E815F8168857985841B950BA60BBB
S1132160B70B181619061A061B060CF0C1CF82E02D
S113217091E00E94E80564E071E00E94DE05A09110
S11321800201B091030102C0A081B1811496ED91C6
S1132190FC9115973097C1F7CD010E943B05A8CF5C
S11321A0FC014231B8F49FB79078F89450E0440FA2
S11321B0551FDA01AE5BBE4FED93FC93DA01A652D4
S11321C0BE4F6D937C9321E030E0338322839923C7
S11321D009F0789408958C017B016A018FB7F89413
S11321E00E949C047894E114F10441F020E030E072
S11321F0A90160E070E0CB010E94ED0E8FB7F89466
S11322000E94F40D97FB072E16F4009407D077FD77
S113221009D00E941D1107FC05D03EF490958195CC
S11322209F4F0895709561957F4F08950E943111D5
S1132230B7FF0895821B930B0895AA1BBB1B51E1A2
S113224007C0AA1FBB1FA617B70710F0A61BB70B22
S1132250881F991F5A95A9F780959095BC01CD01C7
S11322600895A29FB001B39FC001A39F700D811D6B
S11322701124911DB29F700D811D1124911D08958B
S1132280DC012D923D924D925D926D927D928D92E4
S11322909D92AD92BD92CD92DD92ED92FD920D9301
S11322A01D93CD93DD93FF91EF918DB78D938EB7F1
S11322B08D938FB78D93ED93FD9388279927099478
S11322C0DC01CB0181309105811D2D903D904D9015
S11322D05D906D907D908D909D90AD90BD90CD90D2
S11322E0DD90ED90FD900D911D91CD91DD91ED91DD
S11322F0FD910D90F894FEBF0FBEEDBFED91FD91E1
S10923000994F894FFCFDC
S1132306FE01FE0166011B02000001010202030335
S1132316010505010008000201010E0101010B017E
S113232600050B0001040B0100040F010101090063
S10B233601050F0101050B0074
S9030000FC
